:020000040800F2
:10000000102B0020513300086D33000871330008B5
:1000100075330008793300087D33000800000000C4
:100020000000000000000000000000008133000814
:10003000853300080000000089330008772300089A
:100040009133000895330008993300089D33000868
:10005000A1330008A5330008A9330008AD33000818
:10006000B1330008B5330008B9330008BD330008C8
:10007000C1330008C5330008C9330008CD33000878
:10008000D1330008D5330008D9330008DD33000828
:10009000E1330008E5330008E9330008ED330008D8
:1000A000F1330008F5330008F9330008FD33000888
:1000B000E92D000805340008093400080D34000853
:1000C000113400081B1C0008193400081D340008F6
:1000D0002134000825340008293400082D34000894
:1000E0003134000835340008393400083D34000844
:1000F000413400082DE9F04FA1B0824602AE002045
:1001000017461D46029170620DF144080AE017F887
:10011000011B0298D0470290002800F0DA82706A32
:10012000401C7062387808B9706AD4E22528EED194
:100130000020F06030617061B061F061306201E018
:1001400040F0010017F8011F2029F9D023290DD014
:100150002B2904D02D2906D030290AD00CE040F0FC
:10016000020080B2EEE740F00400FAE740F0080039
:10017000F7E740F01000F4E72A290DD129680A1D9D
:100180002A600968F162002904D5494240F0040060
:10019000F16280B27F1C13E00021F1620BE0F16A92
:1001A0006FF00043994205D001EB810302EB43015C
:1001B0003039F1627F1C3A78A2F130010A29EED37E
:1001C00039782E2903D04FF0FF31B1621EE017F8C5
:1001D000011F2A2906D129680A1D2A607F1C096887
:1001E000B16213E00021B1620BE0B16A6FF000432D
:1001F000994205D001EB810302EB43013039B16232
:100200007F1C3A78A2F130010A29EED330860FF62E
:100210006040397800F04AFE08B117F8010B8DF8FC
:100220003A009DF83A00682802BF397868296220B0
:1002300005D06C2804BF38786C2803D171208DF864
:100240003A007F1C11A8B0603978B1F1250029D09F
:100250001C3800F0C080001F022840F2BC80133818
:1002600000F0E480093800F0B680801E00F077814D
:10027000401E00F02081401E022840F2AC80001F8A
:1002800000F01981401F7BD0401E00F0CF80401E3F
:1002900022D0C01E0BD0801E00F0C880C01E00F00F
:1002A000C58064E1F068411CF160252169E128689E
:1002B000011D29600068B26A7060002A02D500F052
:1002C00001FE07E0002100F019FE00281ABF716846
:1002D000401AB06A306156E12868011D296000218A
:1002E0000068CDE900014FF03C0E11A87060DDE917
:1002F000000111B908B9B26ACAB10206120FA0EB27
:1003000002123032AEF10103D2B29E463A2AA8BFA1
:100310002732000903F8082040EA0170090908BFE4
:10032000002804D0726811AB73449A42E5D311A936
:1003300071447160CEF13C00B16A3061884207DAE5
:10034000081AB0614FF6EF71308E084030861AE11E
:10035000002940F1188196F8301001F0140110299D
:1003600040F01181F16AF268891AB269891AA1EB29
:10037000000EBEF1010FC0F20681C6F818E002E1DE
:100380009DF83A00622818D0682806D06A280BD059
:100390006C2819D0712807D016E02868011D296043
:1003A0000068716A0180EEE02A68101D28601268FA
:1003B000706AC117C2E90001E5E02868011D2960E3
:1003C0000068716A0170DEE02868011D296000681C
:1003D000716A0160D7E02868C01D20F0070028601E
:1003E00000F108022A60D0E90023CDE90023002BA8
:1003F00004D5F068421CF2602D220DE0308E820799
:1004000004D5F068421CF2602B2205E0C00705D538
:10041000F068421CF260202200F80820F06811AA5F
:100420008018706000A800F0E3F9ACE09DF83A0095
:100430006C2808BF2A6811D0712808BF2A6802D02A
:100440002A686A280AD1D21D22F007022A601446BF
:1004500004F108022A60D4E9002303E0131D2B6095
:1004600000231268CDE90023682808BF92B207D0A4
:10047000622808BFD2B203D0742818BF7A2802D1EC
:100480000023CDE9002396F8300000075FD5DDE9B1
:100490000023002B08BF002A59D041F02000782803
:1004A00055D1F068302200F80820401C421CF26050
:1004B00000F808104BE09DF83A0062280CD068283C
:1004C00010D06A281AD06C2823D0712816D074282E
:1004D0001FD07A280CD01CE02868021D2A6090F9F1
:1004E00000201AE02868021D2A60B0F9002014E0FC
:1004F0002868021D2A60002302680FE02868C01DDA
:1005000020F00700286000F108022A60D0E90023EB
:1005100004E02868021D2A600268D317CDE9002391
:10052000002B04DAF068421CF2602D220DE0308EC0
:10053000820704D5F068421CF2602B2205E0C00758
:1005400005D5F068421CF260202200F80820F0680F
:1005500011AA8018706000A800F0C0F813E0F068DD
:10056000411CF16029680A1D2A60096809E0F068E9
:10057000421CF260252200F8082021B1F068421CDC
:10058000F26000F80810F06AF168401AB169401A88
:100590003169401AF169401A7169401A316AA0EB59
:1005A000010996F830007F1C400710D420208DF8F8
:1005B0004000002409E0012310AA00A9504600F0E1
:1005C00040FC002840F08580641C4C45F3DBF46857
:1005D0000DF1440B0AE01BF8011B0298D047029072
:1005E000002876D0706A401C7062641E002CF2D124
:1005F00030208DF840004FF0000BB46909E0012372
:1006000010AA00A9504600F01CFC002861D10BF193
:10061000010BA345F3DB3469D6F804B00AE01BF8FC
:10062000011B0298D0470290002852D0706A401CEB
:100630007062641E002CF2D130208DF840004FF023
:10064000000BF46909E0012310AA00A9504600F04C
:10065000F8FB00283DD10BF1010BA345F3DB30691A
:100660007168746900EB010B09E01BF8011B02982B
:10067000D047029068B3706A401C7062641E002C00
:10068000F3D130208DF840004FF0000B346A08E0C1
:10069000012310AA00A9504600F0D3FBC8B90BF102
:1006A000010BA345F4DB96F8300040077FF53AAD27
:1006B00020208DF84000002400E0641C4C45BFF66B
:1006C00031AD012310AA00A9504600F0BAFB002862
:1006D000F3D04FF0FF3021B0BDE8F08F2DE9FA479D
:1006E000064682B035690A466F2A08BF082705D03A
:1006F00041F02000782814BF0A271027D6E900010E
:100700003C2480468946642A18BF692A05D10029FD
:1007100003DAD8F1000869EB4909B9F1000F08BF05
:10072000B8F1000F0CD1306B50B9082F3BD196F8BF
:100730003800000737D530203B2485F83B0032E0F5
:10074000CDE90089FB17404649463A4600F002FCD5
:10075000B846A8FB0023DDE90089A8EB020230328D
:10076000A4F1010AD2B254463A2A03DB9DF80830BC
:10077000513B9A180AF8052080465FEA010908BF34
:10078000B8F1000F03D0F06861198842D8D3082F60
:1007900009D196F83800000705D5605D302802D0F1
:1007A000641E30206055C4F13C00B0616119F160F5
:1007B000316B884207DA081A30624FF6EF71308FDA
:1007C0000840308710E000290ED596F8381001F067
:1007D0001401102908D1716B7269891A326A891A59
:1007E000081A0128A8BF306204B0BDE8F0870000F5
:1007F0002DE9F24F04468EB0D4E90001CDE90201A3
:1008000004AE9DF8380040F02000009061280AD026
:10081000206B002848BF062004D404BF0098672836
:1008200001D1012020636168C1F30A5040F2FF72D8
:1008300090421CD1080304BF2068002809D103207E
:10084000A0619DF8380061381A2836D30FF2346160
:1008500008E00320A0619DF8380061381A2829D3E8
:100860000FF21861E068032200F0ECFBB5E101280B
:1008700016DA204600F039FC012811DB00270020A1
:100880000099612920D1E168302201F8012B4A1C2E
:10089000E2609DF83820612A0CBF782258220FE0D0
:1008A000626840F2FE3161F31E52471A62604FF0F7
:1008B000FF30E5E70FF2C051D4E70FF2C451D1E7A2
:1008C0000A706169891C616110B9002500277BE10C
:1008D0000098612840F09680206B00284CBF2125AD
:1008E000451CDDE902012DB26E1CD4E9008900220D
:1008F000002300F01BFC3ABF89F00040CDE90280E4
:10090000CDE902893F1F8DF810200DF1110801E09B
:1009100000F20708012E32DBDDE90201002200238C
:1009200000F01CFC2BD21C2102A800F02FFCDDE9FA
:10093000020100F0B1FCF61F8146012E09DB00F038
:10094000D7FC02460B46DDE9020100F0E9FCCDE9E7
:10095000020108F20700072105E009F00F0200F884
:10096000012D4FEA2919B9F1010F01DB491EF4D518
:10097000491E5CBF002200F8012DF9D5C8E70DF132
:100980001100A8EB00010DF11106A942B8BF0D46F8
:100990002DB228002FD4884206DA04A941184978DC
:1009A0000829A8BF0F2100DA002104AA821800E05C
:1009B0006D1E12F80139401E8B42F9D00F2904D167
:1009C00004A941184A78521C4A70002802D504AE86
:1009D0006D1C3F1D2DB2681E0DD481190A7830326E
:1009E000D2B23A2A03DB9DF838303A3B9A1801F824
:1009F0000129401EF2D5206B002840F1E580681ED9
:100A00002063E1E0DDE902010022002300F08EFB1B
:100A10003CBF81F00041CDE902013FB247F297505F
:100A200078434849DFF820B190FBF1F73FB2C7F1B6
:100A300007069246012E19DBDDE90289F00707D58A
:100A400052465B464046494600F02AFD80468946AC
:100A500076105046594652465B4600F021FD8246CC
:100A60008B46002EEAD1CDE9028921E076429046FC
:100A7000DFF8D89012E0F00707D552465B464046B3
:100A8000494600F00DFD804689467610504659468D
:100A900052465B4600F004FD82468B46002EEAD1AA
:100AA000DDE9020142464B4600F0CCFDCDE90201F2
:100AB000009866280CBF07F10A000620216B451834
:100AC000142DA8BF132530208DF810000DF111064C
:100AD000DFF87C90012D3DDBDDE9020100F0F2FB47
:100AE00006F1080104220A23B0FBF3F303EB8306AB
:100AF000A0EB4600303001F8010D0A20B3FBF0F006
:100B000000EB8006A3EB4603303301F8013D521E93
:100B1000E9D1083D01F10806012DDBDBDDE9020129
:100B200000F0D0FB00F0EEFB02460B46DDE90201CF
:100B300000F0F6FB00224B4600F0B2FCCDE90201CA
:100B4000CAE700BFA0860100000024400000F03F7B
:100B500084D797410DF11100301A0DF1110602E012
:100B6000401E7F1E761C31783029F9D00099662905
:100B700002D13FB2791C03E065290CBF012100219D
:100B8000226B8D182DB2A842B8BF05462DB22900A0
:100B90001AD4814204DA885D3528A8BF392000DAEA
:100BA00030208A19521E00E06D1E12F80139491ECC
:100BB0008342F9D0392802D1885D401C885500292C
:100BC00002D5761E6D1C7F1C3FB29DF83810009731
:100BD0002BB23246204600F003F80FB0BDE8F08F8C
:100BE0002DE9F043054685B01E46D5F8308089468C
:100BF0001746012E02DA01260FF28C2749F0200059
:100C0000BDF93040662808BF641C17D0672840F043
:100C1000818014F1040FC0F28380444580F280800B
:100C200095F83800641C000702D44645B8BFB046AA
:100C300024B2B8EB040848BF4FF00008E868A9697F
:100C400024B2012C25DA30234A1C0B54B8F1010FD1
:100C500003DA95F83810090702D52E211154521CD9
:100C6000AA6118EB040FB8BFC8F1000424B26142B6
:100C7000A0446962B045B8BF464636B2EE6132461E
:100C8000AB693946181800F0DDF9A8EB0600A86238
:100C9000C0E00818A64218DA3246394600F0D2F908
:100CA000A9697118A961A01B6862B8F1010F03DA84
:100CB00095F83800000705D5E8682E220A54E8693F
:100CC000401CE861C5F82880A4E02246394600F0BF
:100CD000B9F9A8692018361BB8F1010F03DA95F8A5
:100CE0003810090703D5E9682E224254401C36B259
:100CF000A861B045B8BF4646EB6836B23246E11946
:100D0000C01800F09FF9A8693018A861A8EB060088
:100D100068627FE0B9F1610F16D14FF0700918E0F9
:100D2000464504DA95F83810090758BFB046B8F1BF
:100D3000010848BF4FF00008B9F1670F14BF4FF02A
:100D400045094FF0650904E0B9F1410F08BF4FF0C4
:100D50005009A969E86817F8013B0B544A1CB8F11F
:100D6000010F05DA95F83810090758BFAA6117D5A1
:100D70002E211154531CAB61B8F1010F10DB761E0C
:100D800036B2B045B8BF464636B232463946181874
:100D900000F058F9A8693018A861A8EB060068624D
:100DA000A869E9684718200007F8019B03D42B20A5
:100DB00007F8010B03E02D2107F8011B6442002610
:100DC0000DF1080808E00A2200A800F05EFD019875
:100DD00008F8010B761C009C21B20129F3DA022EDF
:100DE00006DA49F02000652804BF302007F8010B1F
:100DF0004EB9302007F8010B07E0761E02A8305CE0
:100E0000303007F8010B012EF7DAA869E9684018BD
:100E1000381AE86195F8380000F0140010280DD158
:100E20006869A9690818696A0818E9690818A96A47
:100E30000818696B8842BCBF081A286205B0BDE873
:100E4000F083F8B504460D4616461F46002004E020
:100E5000E86A401CE8627F1E002047B116F8011BBB
:100E6000A868A047A8600028F2D14FF0FF30F2BD7B
:100E7000686A6C747A4C00006E616E004E414E00E0
:100E8000696E6600494E4600300050F8041B61B19F
:100E900050F8042BD30744BFA9F101039A1800238B
:100EA00042F8043B091FFAD1EFE770470278C9B254
:100EB0008A421AB11CBF10F8012FF9E718BF0020B1
:100EC0007047000000F10103810704D010F8011BF6
:100ED00089B18107FAD10268B2F10131914311F071
:100EE000803F04BF50F8042FF6E710F8011B11B142
:100EF00010F8011BFBE7C01A70470000C9B2830756
:100F000006D0521E22D310F8013B9942F7D11FE0C0
:100F1000083A13D302F1040241EA012141EA0141F6
:100F200050F8043B121F21BF4B40A3F1013C2CEAB7
:100F3000030C1CF0803FF3D0C9B2001F083210F838
:100F4000013B521E28BF91EA030FF8D818BF0120B9
:100F5000401E70471B4213D1094236D12AB1844644
:100F6000B0FBF2F002FB10C2704700F095BCFCD35E
:100F70000022002370470B00020000210020704770
:100F8000904271EB030CF6D370B5B1FA81F4B3FA69
:100F900083F52C1BA340C4F1200532FA05F6334338
:100FA000A2405FF00046E64002E05B085FEA3202E2
:100FB000841A71EB030524BF204629467641F4D3F9
:100FC00002000B003000002170BD012ACFD970B59E
:100FD000140C20D0B1FA81F4B2FA82F5C4F12004E5
:100FE0006419B4F12006D6D3B2405FF00044F44057
:100FF000002502E052085FEA3303C61A71EB020EC5
:1010000024BF3046714664416D41F3D302000B00AA
:101010002000290070BD0C46B1FBF2F102FB114526
:101020002D0445EA1045B5FBF2F402FB145580B2DD
:1010300040EA0545B5FBF2F002FB105240EA0440DD
:1010400070BD000062B38B0708D0521E11F8013B3F
:1010500000F8013B00F024808B07F6D1830740F0B5
:10106000208000BF103A07D330B4B1E83810103AEE
:10107000A0E83810F9D230BC530724BFB1E80810FB
:10108000A0E8081044BF51F8043B40F8043BD207E5
:1010900024BF31F8022B20F8022B44BF0B780370D9
:1010A0007047121F17D35B0009D151F8043B121F80
:1010B00020F8023B1B0C20F8023BF6D20BE051F863
:1010C000043B121F00F8013B1B0A20F8023B1B0CDB
:1010D00000F8013BF3D238BF121D521E24BF11F895
:1010E000013B00F8013BF8D8704730B4436803F087
:1010F000004201211B031B0B436004BF0368002B4C
:1011000008D10DE00368DD0F45EA440444605B004C
:101110000360491E4468E302F4D523031B0B4360BC
:1011200043681A434260084630BC70474FF4001CC5
:101130001CEB410F94BF1CEB430F09E041EA030C89
:1011400050EA4C0C52EA0C0C03D2994208BF904270
:10115000704714BF8B428242704700004FF4001C5E
:101160001CEB410F94BF1CEB430F09E041EA030C59
:1011700050EA4C0C52EA0C0C03D28B4208BF82425C
:10118000704714BF994290427047000070B5044602
:101190000D466068C0F30A5040F2FF71884207D1E3
:1011A0006068000304BF2068002817D0022070BDCB
:1011B00020B92046FFF799FF012867DA012D0FDBE0
:1011C00040F2FF71091A8D420AD36068002847BFB8
:1011D00000202F4900202F49C4E90001012070BDE3
:1011E0004142A942616806DA6FF31E51401941EA93
:1011F0000050606041E0401E63680122451962F3BF
:101200001F5305F1350001F000416360352803D319
:1012100061600020206070BD002215F11F0F04DA0C
:1012200022682360002020356060684213D0521E7F
:1012300025689241C0F12003D2439D4045EAD27215
:1012400025686668C54006FA03F32B43236063688C
:1012500023FA00F06060606808436060B2F1004FFC
:1012600003D80DD12078C0070AD52068401C206023
:10127000206828B96068401C60604FF0FF3070BD86
:101280006068884204BF20680028F6D1002070BD45
:101290000000F0FF0000F07FF446400D40EAC1205E
:1012A000490006D200F014F8004248BF6FF0004039
:1012B000604700F00DF84FF0004188428CBF0846AF
:1012C00040426047400D40EAC120490080F00D8057
:1012D00040F00040490DA1F58061491C05D4D1F1D1
:1012E0001F0154BFC840C01770474FF0000070473F
:1012F000010040F10980F446404200F005F851F049
:1013000000416047010000BF09D0B0FA80F1884079
:10131000C91CC1F58461090501EBD0214005704766
:1013200070B44FF0004591EA030F44BF6B4000F0EA
:10133000B5BA00BF841A71EB030604D26E40001BDD
:10134000B141121973414FF4001C1CEB410F34BF23
:101350007CEB430684E00C0DA4EB1356362E7DDCAB
:10136000012E43DC45EAC32343EA525312BFD202A3
:1013700092025B08240545EAC12141EA5051D2EBB3
:10138000C020994125D407D1B0FA80F610FA06F1B1
:1013900064D00020203608E0B1FA81F6B140C6F1F1
:1013A000200220FA02F21143B0404FEAF474B4EB89
:1013B000465434F001064FEA74040AD8D6F50016F4
:1013C000760D04F00044F04061FA06F25040F1401E
:1013D0004840C00A40EA415021F0004128BF5FEA7E
:1013E000500550F1000044EBD12137E045EAC3231A
:1013F000DB0A45EAC121C90AB6F120050EDD42EA41
:101400000242120CC5F1200603FA06F6EB4042EA4E
:1014100006056D42984161F100010DE062FA06F5A2
:10142000F240554063FA06FC82EA0C02F3405A404F
:101430006D42904161EB030111F4801F05D1641EE0
:10144000620502D06D004041494121F480114308FA
:1014500075F1004350F1000041EB045170BC70473E
:101460001CEB410F15D223F0004352EA43060BD088
:101470004FEA4C0CBCEB410F04D80C0D661E342E09
:10148000B7DDEBE7801A994150EA410608BF002119
:10149000E4E708BF1CEB430F28BF6FF00001DDE756
:1014A000B0B581EA030C0CF0004C40F2FF7515EA70
:1014B00011541DBF15EA1357AC42AF4239E0E4198D
:1014C00023EA455343F48013C90241F0004141EA45
:1014D000505EC7021100A7FB020200284FF0000077
:1014E000EEFB01204FF00001E3FB072118BF42F0A3
:1014F0000102401800214941E3FB0E01A4F580647C
:101500000F0302D252004041494154F101046CDD05
:10151000470872F1004250F1000051EB0451A1F56F
:1015200080115CBF41EA0C01B0BD4CEA05510020BE
:10153000B0BD05EA1357AC4214BFAF4241E050EAD8
:10154000410E1CBF52EA430E02E061460020B0BDCE
:1015500024423C441BD15FEA070EF6D0090302BFC8
:1015600001460020AEF1140EB1FA81F7AEEB07048C
:1015700001FA07FE0C37C7F1200100FA07F7C8404F
:101580004EEA000E23EA455343F48013A2E733F0FA
:101590000043B3FA83F704BFB2FA82FE77440B3FED
:1015A000E41BB7F1200E2FBF02FA0EF3BB40C7F1C8
:1015B000200E22FA0EFE38BF43EA0E03BA40641C26
:1015C00082E750EA410E14BF52EA430E6FF0000169
:1015D0004FF4001717EB430F8ABF194617EB410F63
:1015E000B5E74CEA05510020B0BDD4F10104B4F1D7
:1015F00020070FDAC4F12007520828BF42F0010289
:1016000010FA07F501FA07F7E1BF2A43E040384333
:10161000E1400FE0352C98DCC7F1200452EA40028B
:1016200020FA07F218BF42F0010231FA07F0A14098
:101630000A43002172F1004250F1000051EB0C010D
:10164000B0BD0000F0B540F2FF7581EA030C0CF06C
:10165000004C15EA11541DBF15EA1357AC42AF42B6
:10166000E5E0BC41C1F31301C3F31303801A9941B0
:1016700043F4801304D2641E40004941801859414C
:10168000C90241EA5051B1FBF3F603FB1611A2FB6C
:101690000675D7EBC020A94102D2761E80185941A9
:1016A000C90241EA5051B1FBF3FE03FB1E11A2FB3C
:1016B0000E75D7EBC020A94103D2AEF1010E801800
:1016C0005941890241EA9051760546EA8E2EB1FBD6
:1016D000F3F603FB1611A2FB0675D7EB8020A94198
:1016E00002D2761E80185941C90241EA50514EEA91
:1016F000060EB1FBF3F603FB1611A2FB0675D7EB42
:10170000C020A94102D2761E80185941C90241EA7F
:101710005051B1FBF3F703FB1711A2FB0735D3EBD5
:10172000C020A94167F100070CBF004247F0010744
:1017300066F3D5274FEA1E31B80814F5806412DD30
:10174000BD0775F1004250EB0E5051EB045111F5FD
:10175000801F5CBF41EA0C01F0BD4CF07F6141F09D
:10176000E0410020F0BDBD076D0840EA0E5041F495
:101770008011D4F10104B4F120060ADAC4F1200684
:101780000200E04001FA06F3E1401843B24015437D
:101790000EE0342C13DCC6F1200445EA40056D0848
:1017A00020FA06F2154321FA06F0A1400D4300216C
:1017B00075F1004250F1000051EB0C01F0BD00202A
:1017C0005FEA0C01F0BDCFB992185B41B3FA83F721
:1017D00004BFB2FA82F6BF190B3FB7F120062FBF44
:1017E00002FA06F3BB40C7F1200622FA06F638BF1C
:1017F0003343BA401CB1E419641E33E77F4231F031
:101800000041B1FA81F404BFB0FA80F6A4190B3C90
:10181000B4F120062FBF00FA06F1A140C4F1200662
:1018200020FA06F638BF3143A0403C1B1AE7AC4211
:101830001ABF05EA1357AF4212E050EA41061CBF37
:1018400052EA4306BFE750EA4107304661461CBFF3
:1018500041EA0551F0BD52EA430C08BFC143F0BD57
:1018600000204FF4001616EB410F98BF16EB430F04
:1018700008BF16EB410F24BFC14305E016EB430F31
:101880000CBF61464CEA0551F0BD91FBF2F303FB3E
:101890001211C0E90031704770470000841A71EBE3
:1018A000030603D2001BB141121973414FF4001C0F
:1018B0001CEB410F34BF7CEB430443E00C0DA4EB65
:1018C0001356352E50DC45EAC323DB0A45EAC12115
:1018D000C912B6F120050DDD63FA05F6EB4086EA84
:1018E0000305124218BF45F00105C01851F100016F
:1018F0000CD213E062FA06F5F2405540F3415A402B
:10190000B340F3405A408018594107D349085FEA71
:1019100030005FEA350528BF45F0010501F580116B
:10192000420875F1004250F1000041EB045170BCD7
:101930004FF4001C1CEB410F38BF70470020090D0D
:10194000090570471CEB410F10D252EA43060BD039
:10195000BCEB410F05D80C0DAB43661E342EB5DD34
:1019600002E0AB438018594170BC704770BC7047AF
:1019700010B588B00121022000F068FA4FF44060F1
:10198000019002208DF8080003208DF80900012045
:101990008DF80A0000208DF80B0001A9DFF8C44380
:1019A000204600F0A3FA04220A21204600F0DEFAC5
:1019B00004220B21204600F0D9FA01214FF48000C7
:1019C00000F056FADFF8A043204600F0E3FA0020CA
:1019D000ADF8100001214BF6FF70ADF81200502059
:1019E000ADF814004FF48060ADF816004FF480405D
:1019F000ADF81800DFF874030390204600F04AFBAE
:101A000003A9204600F0E5FA0121DFF8640300F0A5
:101A10004BFB21208DF8000000208DF801008DF88F
:101A2000020001208DF8030000A800F05FFB0122F6
:101A30004FF40071204600F046FB002008B010BDB6
:101A4000401E052800D9704770B5DFE800F0030D8F
:101A500094A9DDE1C74CD4F818026521C1800422A5
:101A6000002181800421C8E0C34DC44E95F90000D7
:101A700000EB002106EBC1046620A0800020E0807E
:101A800000F06AFBBE480068411E95F9000000EBBB
:101A9000002206EBC200001D00F062FB95F9001069
:101AA00001EB0122D100022288511021B5480180AA
:101AB00002214180B449096801294FDB11F0030379
:101AC00000F0108034F8025B20F81250521C00EB3A
:101AD000420535F8025C102D04BF20F81250521C4C
:101AE0005B1EEFD1890839D034F8023B20F8123060
:101AF000521C00EB420333F8023C102B04BF20F8C9
:101B00001230521C34F8023B20F81230521C00EB09
:101B1000420333F8023C102B04BF20F81230521C51
:101B200034F8023B20F81230521C00EB420333F829
:101B3000023C102B04BF20F81230521C34F8023B38
:101B400020F81230521C00EB420333F8023C102BF9
:101B500004BF20F81230521C491EC5D1102120F8B4
:101B6000121000EB420103224A8040F2DC51BDE832
:101B7000704000F0BFBB7F498448D1F814120422A2
:101B80000B7A00F8013B4B7A00F8013B8B7A00F8A6
:101B9000013BCB7A00F8013B091D521EF0D170BD0C
:101BA000744CD4F818026821C18010218180002172
:101BB000DFF8D801D4F8182210F8013B8A18491C24
:101BC0001372D4F8182210F8013B8A18491C1372BA
:101BD000D4F8182210F8013B8A18491C1372D4F863
:101BE000182210F8013B8A18491C13721029E1DBF6
:101BF000D4F8180281880A1D1146001D00F0C0FBB0
:101C0000D4F81812086070BDBDE8704000F033BC15
:101C1000BDE8704000F043BC70BDF0B5524D81B0DE
:101C2000284600F058FA044624F48070503856D004
:101C30004FF48061401A52D05549401A19D04238A9
:101C400079D040F2BE31401A13D0423873D0514996
:101C5000401A1CD0801E31D040F2FE31401A16D0FE
:101C6000801E2BD0214601B0BDE8F0403CA000F022
:101C700023BD4949284600F035FA3E48002101704D
:101C800001B02146BDE8F04035A000F015BD394E49
:101C900096F80C1101207070284600F00FFA3F49A9
:101CA000284600F01FFA288840F0010028802146CD
:101CB00001B0BDE8F0402AA000F0FEBC2D4E7078C7
:101CC000411C7170801990F80C11284600F0F6F94B
:101CD000214601B0BDE8F04021A000F0EDBC28880D
:101CE000244E40F0010028803778781C3070284658
:101CF00000F0E6F9B91908712846294900F0F2F90F
:101D00002849284600F0EEF9D6F814028188091D0A
:101D10000A46001D00F034FBD6F814120A6882420D
:101D200016D1C888FFF78CFE214601B0BDE8F0400F
:101D30000BA000F0C1BC0F4E3778781C30702846DD
:101D400000F0BEF9B91908712846154900F0CAF922
:101D5000214601B0BDE8F04001A000F0ADBC00009C
:101D6000256400000004024000580040A0860100E5
:101D700000540040000400200E27002078060020B8
:101D8000042700208816002000270020EC260020D1
:101D9000B2FB01003EFC0300020000100004001032
:101DA0004000001010000010474908607047000014
:101DB00010B444494A6802F00C020C2A1ED8DFE82D
:101DC00002F01D1D1D1D071D1D1D091D1D1D0B00E4
:101DD0003E4A1CE03E4A1AE04A684B683D4CC2F35A
:101DE0008342C3F38153125D4C685B1CE40354BF10
:101DF000364C374C6243B2FBF3F208E00A68520BF0
:101E000002F007020123521C03FA02F2D20302601D
:101E10004B68304A0468C3F303139B181B7B24FAF6
:101E200003F343604B684468C3F302239B181B7B96
:101E300024FA03F3836049684368C1F3C221891817
:101E4000097B23FA01F1C16010BC7047224A0029C6
:101E5000116814BF084321EA0000106070471F4A50
:101E60000029116814BF084321EA00001060704780
:101E70001B4A0029116814BF084321EA00001060C2
:101E80007047184A0029116814BF084321EA00006E
:101E900010607047144A0029116814BF084321EAF2
:101EA00000001060704742090549012A0CBF09680B
:101EB000496B00F01F0021FA00F000F001007047AC
:101EC0000038024004380240000047420024F40079
:101ED00000127A005C0600201C38024020380240C4
:101EE000243802401438024018380240F0B400226E
:101EF000002301240D6894402540A54228D10325E4
:101F00009D400668ED432E40066006680F799F40AD
:101F10003E4306600E79012E18BF022E10D186684E
:101F20002E40866086684F799F403E438660868853
:101F300026EA0404848084888E7996403443848021
:101F4000C4682C40C460C468CD799D402C43C460F3
:101F5000521C9B1C102ACCD3F0BC704741F4803239
:101F6000C261C161C261C169C0697047CB0800EB41
:101F7000830001F007018900036A4FF00F0C0CFA8F
:101F800001FC23EA0C03036202FA01F1036A19431C
:101F90000162704700B53C4981B088420CD10121F3
:101FA0004FF40010FFF776FF01B05DF804EB00215D
:101FB0004FF40010FFF76EBF01214FF48000FFF7D0
:101FC00069FF01B05DF804EB00214FF48000FFF7DA
:101FD00061BF70B5044684B0A6880D4600A8FFF71F
:101FE000E7FE029929484FF6C072B1FBF0F032408B
:101FF0000243A2804FF6FE7322881A402280244BAF
:102000002A689A4208D25200B1FBF2F18AB2042A3D
:10201000B8BF042189B220E0EB884BF6FF76B342CB
:1020200004D102EB4202B1FBF2F106E019235A435C
:10203000B1FBF2F141F4804189B20A0504BF41F0DD
:10204000010189B280B24FF49672504341F40041CD
:102050004FF47A7289B290FBF2F0401C2084A18385
:102060004FF6F531208840F001002080208808409C
:10207000A98808436989084320802989A8890843D9
:10208000208104B070BD00000054004040420F00A9
:10209000A18601000029018812BF41F001014FF61D
:1020A000FE721140018070470029018812BF41F47F
:1020B00080614FF6FF321140018070470182704706
:1020C000008AC0B27047002A828814BF114322EAF6
:1020D000010181807047818A008B41EA0040000243
:1020E000000A7047C94381827047000070B40378CA
:1020F000C4781A460121F4B1134B1B68447803F4E9
:10210000E063C3F5E0631B0AC3F10405AC408578C6
:102110000F2626FA03F32B4023430C4C1B011355C7
:1021200000780B4B420900F01F0001FA00F043F861
:10213000220070BC70475009064A03F01F03994003
:1021400042F8201070BC70470CED00E000E400E0A5
:1021500000E100E080E100E01148012101607047EA
:10216000D1B111F003020F4B05D0521E50F804CB31
:10217000C3F800C0F9D1890800F00E8050F8042B94
:102180001A60491E50F8042B1A6050F8042B1A608C
:1021900050F8042B1A60F1D1024800687047000023
:1021A000083002400030024010B586B001214FF4E3
:1021B0008050FFF754FE00F034F8554C01212046C2
:1021C00000F0CBFA4FF44040ADF8000000A94FF406
:1021D0008270ADF802004FF40060ADF804000020FA
:1021E000ADF806000120ADF808004FF40070ADF81E
:1021F0000A001020ADF80C000020ADF80E00ADF87C
:102200001000204600F092FA0021204600F0B9FAB2
:1022100001220221204600F0C0FA00F03DF806B08D
:1022200010BD30B583B001210320FFF70FFE4FF43E
:10223000C050009002208DF8040003208DF80500A6
:1022400000208DF8060001208DF8070000A9314C10
:102250002046FFF74BFE0820009000A92E4D28468F
:10226000FFF744FE05220B212046FFF77FFE0522E3
:102270000C212046FFF77AFE052203212846FFF7AE
:1022800075FE4FF4C0512046FFF768FE082128462E
:10229000FFF764FE03B030BD10B58CB001214FF0E4
:1022A0008070FFF7D3FD1D4C204600F085FA1C48D6
:1022B00000900122002001900221102002900020B5
:1022C00003900490802005904FF4807006904FF4A6
:1022D00080600790002008904FF400500990002083
:1022E0000A900B4800F059FA00A9204600F0A7FA1E
:1022F0000CB010BD094A13684FF6FE7C0CEA0303CC
:102300001360D0605160106840F0010010607047A9
:1023100000300140000002400004024030600240F2
:102320000C30014030B5364C40F60800206181B0D9
:1023300040F20440606140F20220A06100F066F8C3
:1023400000F0C1F8FFF730FFFFF712FB00F0ACFA26
:102350005FF0000514F8011B0122284600F034FB51
:102360006D1C102DF6DB00F0B3F800F067F800BF2D
:1023700000F07EFBFCE72348016864310160704790
:1023800030B48A4238BF002037D34FF0FF3389B3CF
:1023900011F003041C4A09D010F8015B5D40EDB256
:1023A00052F8255085EA1323641EF5D1890821D0FF
:1023B00010F8014B5C40E4B252F8244084EA132345
:1023C00010F8014B5C40E4B252F8244084EA132335
:1023D00010F8014B5C40E4B252F8244084EA132325
:1023E00010F8014B5C40E4B252F8244084EA132315
:1023F000491EDDD14FF0FF30584030BC704700001F
:10240000EC260020082700200000002000B585B041
:1024100000A8FFF7CDFC01986421B0FBF1F0401E4D
:10242000B0F1807F08D29B494860F02081F8130DFD
:10243000002088600720086005B000BD00B583B0AB
:1024400001210120FFF714FD00A800F0E5FB4FF487
:102450007A60ADF8040000A900200090ADF80600F5
:102460004FF0804000F0AEFB20214FF0804000F0A4
:10247000F0FB03B000BD00B581B001221C214FF07C
:10248000804000F0DBFB84484FF08051016001B0D8
:102490005DF804EB01214FF0804000F0C5BB00B5B2
:1024A00081B000221C214FF0804000F0C7FB7A4829
:1024B0004FF08051016001B05DF804EB00214FF056
:1024C000804000F0B1BB01214FF48050FFF7BEBC4B
:1024D00010B594B001214FF08070FFF7B7FC6F4842
:1024E0006F4C039003A96F480490002005901020C2
:1024F000069000200790802008904FF4807009908B
:102500004FF480600A9020200B904FF400500C9004
:1025100000200D90204600F092F90121204600F0A5
:10252000A9F90120FFF740FC01210720FFF78EFCED
:10253000FF20009000A900208DF8070003208DF8EF
:1025400004005948FFF7D2FC0320009000A9574827
:10255000FFF7CCFC3F20009000A95548FFF7C6FCD0
:102560002120FFF7A0FC0028FAD001214FF40070D1
:10257000FFF775FC4FF48030029002A800F092FB48
:1025800000200E9001208DF83C008DF83D000020C9
:102590001090129010208DF84C000EA9454C20464A
:1025A00000F060FB0121204600F00EFC0023012218
:1025B0000021204600F08EFB00230222012120464C
:1025C00000F088FB002303220221204600F082FB5A
:1025D000002304220321204600F07CFB0522002377
:1025E0001146204600F076FB0622002311462046C5
:1025F00000F070FB072200231146204600F06AFB22
:10260000082200231146204600F064FB0922002323
:102610001146204600F05EFB0A22002311462046A8
:1026200000F058FB0B2200231146204600F052FB1D
:102630000C2200231146204600F04CFB0D22002303
:102640001146204600F046FB0E220023114620468C
:1026500000F040FB0F2200231146204600F03AFB19
:10266000002310221221204600F034FB01212046D5
:1026700000F0A1FB0121204600F01CFB4021204678
:1026800000F0ABFB0028F9D0204600F08FFB14B01F
:1026900010BD000010E000E000E100E0582401401F
:1026A000086002408C260020000002400004024026
:1026B00000080240002401400EB400B582B003A916
:1026C0000091024600AB0121034878440A30FDF72F
:1026D00011FD06BC5DF810FB630C000000B511494C
:1026E00081B088420CD101214FF48050FFF7C9FB23
:1026F00001B05DF804EB00214FF48050FFF7C1BB3F
:10270000094988420CD101214FF48040FFF7C2FBF8
:1027100001B05DF804EB00214FF48040FFF7BABB35
:1027200001B000BD003001400038004002880B8835
:1027300002F441521A434B881A438B881A43CB88C0
:102740001A430B891A434B891A438B891A43CB8945
:102750001A430280098A018270470029018812BF4A
:1027600041F040014FF6BF721140018070474FF6B3
:10277000FF629142018814BF41F4807111400180D1
:1027800070470029818812BF41F004014FF6FB72A7
:1027900011408180704781817047002A828814BF70
:1027A000114322EA0101818070470089002208421A
:1027B00018BF01221046704701684FF6FE721140A3
:1027C00001600021016041608160C1602E49884242
:1027D00004D12E48016841F00F012EE02C498842B7
:1027E00004D12A48016841F0F00126E029498842D5
:1027F00004D12648016841F470611EE026498842F0
:1028000004D12248016841F4704116E0234988420E
:1028100004D11E48016841F470210EE0204988422D
:1028200004D11A48016841F4700106E01D4988424C
:1028300004D11648016841F0706101607047026878
:102840008B686FF30E121A430B6A1A430B691A4313
:102850004B691A438B691A43CB691A434B6A1A4373
:102860008B6A1A430260CA6842600A6882604968DB
:10287000C16070470029016812BF41F001014FF6A5
:10288000FE7211400160704708600240046002401F
:102890001C600240306002404460024058600240C8
:1028A0006C60024080600240F0B587B000240FF2F7
:1028B00060150FF27C16534F56F8040B0121FFF7F9
:1028C000C5FA2888009000A901208DF80400002096
:1028D0008DF8060001208DF8070003208DF8050013
:1028E0003868FFF703FB29883868FFF737FB57F88C
:1028F000040B35F8021B0183641C102CDCDB00F098
:1029000038F801214FF48040FFF7B2FA3E4C2046E0
:10291000FFF7E4FE0020ADF8080002A94FF4827032
:10292000ADF80A004FF40060ADF80C000020ADF8DF
:102930000E00ADF810004FF40070ADF8120010203A
:10294000ADF814000020ADF81600ADF818002046D0
:10295000FFF7ECFE00212046FFF713FF4FF48071D4
:102960002046FFF704FF01212046FFF7F6FE07B0DF
:10297000F0BD10B582B001210220FFF767FA4FF4D5
:102980002040009002208DF8040003208DF80500FF
:1029900000208DF8060001208DF8070000A91B4CCF
:1029A0002046FFF7A3FA05220D212046FFF7DEFAA5
:1029B00005220F212046FFF7D9FA4FF42041204687
:1029C000FFF7CCFA02B010BDF0B5C5B20FF240006F
:1029D0000C4F0D4C81B030F8156057F82500468338
:1029E00041EA020040F428512046FFF7D4FE80213E
:1029F0002046FFF7DAFE0028F9D157F825000683B4
:102A000001B0F0BD1C060020003800400004024068
:102A100040008000000100020004000800100020B7
:102A200000400080100020004000800000010002F3
:102A30000400000004000000040000000400000086
:102A40000400000004000000040000000400000076
:102A5000040000000400000002000000020000006A
:102A6000020000000200000002000000020000005E
:102A700070B54D480178E02940F095804B494C4EA7
:102A800091F9002082F001030B700021017002EB2C
:102A90000220C500AC190120A08046480188E180D1
:102AA000491C0180FFF758FB43480068411E201D68
:102AB000FFF756FBA8511021404801800222022155
:102AC00041803F49096801295EDB11F0030312D000
:102AD00034F8025B12B220F81250521C12B21546A2
:102AE00000EB450636F8026C102E04BF20F8156086
:102AF000521C5B1EECD1890800F0468034F8023B82
:102B000012B220F81230521C12B2134600EB4305E9
:102B100035F8025C102D04BF20F81350521C34F815
:102B2000023B12B220F81230521C12B2134600EBD4
:102B3000430535F8025C102D04BF20F81350521CD9
:102B400034F8023B12B220F81230521C12B2134673
:102B500000EB430535F8025C102D04BF20F813503C
:102B6000521C34F8023B12B220F81230521C12B23E
:102B7000134600EB430535F8025C102D04BF20F826
:102B80001350521C491EB9D112B2102120F8121054
:102B9000511C09B2032220F8112040F2DC51BDE89B
:102BA0007040FFF7A7BB70BD882600200E270020CD
:102BB000780600200C27002004270020881600201B
:102BC000002700200288B0F1804F1FBF0E4B9842B3
:102BD0000E4B984204D14FF68F731A404B881A431C
:102BE0000B4B98421CBF0B4B984204D04FF6FF434F
:102BF0001A40CB881A4302808A8882850988018519
:102C0000012181827047000000040040000800405C
:102C100000100040001400404FF6FF718180002139
:102C20000180C180418070470029018812BF41F0B6
:102C300001014FF6FE72114001807047002A82891F
:102C400014BF114322EA010181817047C943018207
:102C5000704782884FF68F731A40828082881143B2
:102C6000818070474268184B1A400B7942EA032270
:102C70000B681A434260154B82681A400B691A436D
:102C8000CB681A438B681A434B7942EA430282604D
:102C9000026B097D491E22F0F872C9B242EA015165
:102CA000016370470A490A68006822F44032104301
:102CB000086070470029816812BF41F0010149088E
:102CC0004900816070470000FFFEFFFCFDF7FFC078
:102CD0000427014070B4072514290BDBA1F114046B
:102CE00004EB4404C668A54026EA0505A3402B432F
:102CF000C36016E00A290BDBA1F10A0404EB4404CB
:102D00000669A54026EA0505A3402B43036108E0B8
:102D100001EB41044669A54026EA0505A3402B4383
:102D200043611F23072A0BDA521E02EB8202046C56
:102D3000934024EA030391401943016470BC704737
:102D40000D2A0BDAD21F02EB8202C46B934024EAF5
:102D5000030391401943C16370BC7047132A0BDA17
:102D60000D3A02EB8202846B934024EA0303914004
:102D70001943816370BC7047192A0BDA133A02EBCE
:102D80008202446B934024EA030391401943416358
:102D900070BC7047193A02EB8202046B934024EA3C
:102DA000030391401943016370BC7047816841F08F
:102DB0008041816070470029816814BF41F48071AF
:102DC00021F48071816070470029816814BF41F44B
:102DD000007121F400718160704700680022084290
:102DE00018BF0122104670472DE9F0474D4C20785E
:102DF00082B04FEA500900F0010000901C214FF012
:102E00008040FFF723FF0020474E365606EB06278B
:102E1000464E06EBC70604F1240104F14402231DCB
:102E2000B144277827B90F8837811788B772F072B5
:102E300092F900C00FF21C15B1F90070E64635F9A1
:102E40001EE0B3F900502D01A5F50048A8EB0705D9
:102E50002DB2002D51BF4FF000084FF008086D4211
:102E60002DB2754504DBA5EB0E0548F004082DB224
:102E7000B5EB6E0FA4BF48F00208A5EB6E052DB2AE
:102E8000B5EBAE0FA8BF48F001084FEAEE055FEAC8
:102E9000487A44BF75442DB25FEA887A44BF05EB97
:102EA0006E052DB25FEAC87A44BF05EBAE052DB2C0
:102EB0005FEA087E4CBF7F1BEF190FF2780535F8EB
:102EC000185065444FFA85FC07F30F07BCF1000F5B
:102ED00048BF4FF0000C04D4BCF1590FA8BF4FF00D
:102EE000580C0F80A2F800C0009F002F1DBF99F85A
:102EF0000C7047EA081789F80C7089F80C80401CA0
:102F000080369B1C921C891C09F18009102888DBE3
:102F10000748FFF74BFF2078401C207002B0BDE847
:102F2000F0870000882600200E2700207806002069
:102F300000240140FFFFFFFFFFFFFFFF020004002E
:102F400006000800FFFFFFFFFFFFFFFF0200040075
:102F5000060008000700080009000A000B000C002A
:102F60000D000E00100011001300150017001900CD
:102F70001C001F002200250029002D003200370010
:102F80003C00420049005000580061006B00760090
:102F900082008F009D00AD00BE00D100E600FD0064
:102FA00017013301510173019801C101EE012002A3
:102FB00056029202D4021C036C03C30324048E0441
:102FC000020583051006AB0656071208E008C30980
:102FD000BD0AD00BFF0C4C0EBA0F4C110713EE14A8
:102FE00006175419DC1BA51EB6211525CA28DF2C8F
:102FF0005B314B36B93BB24144487E4F71572F602D
:10300000CE696274FF7F00003A483B4A82B0016893
:1030100041F480710160816811408160374A016824
:1030200011400160016821F480210160816821F470
:103030007D0181600021C16001910091016841F42E
:1030400080310160016801F4003100910199491C4F
:103050000191009919B90199B1F5A06FF2D10168F8
:10306000490C01F0010100910099012940D1416A08
:1030700041F0805141624FF4006221490A604A6880
:10308000D206FCD4D0F8001441F00401C0F80014BA
:10309000D0F8001441F00101C0F80014D0F8001479
:1030A00041F00201C0F80014816841F080018160A4
:1030B0008168816081688160816821F47D0181601F
:1030C000816841F45D018160016841F080710160B7
:1030D00001688901FCD5816889088900816081685F
:1030E00041F003018160816801F00C010C29FAD1E3
:1030F00002B07047003802400CC0FF88FEFFFEEEB1
:1031000000700040816807E0026811685368891800
:103110005B18C36008320260C2689142F4D04A1C56
:103120008260087870472DE9FF4D00F10801009199
:1031300000270168009A490802EBC1010191B846D5
:103140000021029103910168490800EBC101406828
:1031500000F0010501F10804400804EBC00631E06D
:1031600000A8FFF7CFFF4FFA80FA0AE00098016845
:1031700008180099029049680818039000980830D0
:103180000090029803998842F0D0401C029010F8F9
:1031900001BD47450CD1B44208BF00F01DF82768B7
:1031A00005B14F44606800EB070808344745F2D08A
:1031B00007F801BBBAF1000F0AD51AF1010AE8D1EC
:1031C0004745CDD1B442CBD1304604B0BDE8F08DF7
:1031D000BAF1010AD5D5F3E7012000F001B80000EB
:1031E00080B5C046C046024A11001820ABBEFBE7BE
:1031F0002600020038B40020104B1B68DB010ED4FF
:1032000032BC70474D782D0225438C7824042C4322
:10321000CD782D062543091D1D60121F001D002AB3
:10322000EED0E0231B061C68002CFAD00C78042A90
:10323000E8D21C70491C401C521EF0E7FCED00E077
:1032400010B5044682B014F1010F0AD08DF80000C9
:10325000012200A9012000F007F8012801D1204631
:1032600016BD4FF0FF3016BD80B5002802D400F027
:1032700003F802BD002002BD80B5002901D1002065
:1032800002BD012801D0022802D1FFF7B3FF02BD21
:1032900000F001F802BD10B584B013000090019158
:1032A00002930122040069460520ABBE181A2100D2
:1032B000C046C04604B010BD10B507497944183166
:1032C000064C7C44163404E00A68081D51188847EF
:1032D0000146A142F8D110BD0800000030000000F6
:1032E000ABDBFFFF98200000780600200000000004
:1032F00037FEFFFF0200000002000000480100004E
:1033000072040000000000207806000000F00BF8B6
:10331000002801D0FFF7D0FF0020C046C046FFF7CD
:1033200001F800F002F80120704700F001B8000039
:1033300007463846FFF754FFFBE738B504460D460D
:103340002846FFF77DFFA84218BF0024204632BD63
:1033500001488047014800470930000861330008F0
:10336000C046C046C046C046FFF7D0FFFFF7FEBFCD
:10337000FFF7FEBFFFF7FEBFFFF7FEBFFFF7FEBF81
:10338000FFF7FEBFFFF7FEBFFFF7FEBFFEF7F3BF7D
:10339000FFF7FEBFFFF7FEBFFFF7FEBFFFF7FEBF61
:1033A000FFF7FEBFFFF7FEBFFFF7FEBFFFF7FEBF51
:1033B000FFF7FEBFFFF7FEBFFFF7FEBFFFF7FEBF41
:1033C000FFF7FEBFFFF7FEBFFFF7FEBFFFF7FEBF31
:1033D000FFF7FEBFFFF7FEBFFFF7FEBFFFF7FEBF21
:1033E000FFF7FEBFFFF7FEBFFFF7FEBFFFF7FEBF11
:1033F000FFF7FEBFFFF7FEBFFFF7FEBFFFF7FEBF01
:10340000FFF7F2BCFFF7FEBFFFF7FEBFFFF7FEBFFF
:10341000FFF7FEBFFEF701BCFFF7FEBFFFF7FEBFE1
:10342000FFF7FEBFFFF7FEBFFFF7FEBFFFF7FEBFD0
:10343000FFF7FEBFFFF7FEBFFFF7FEBFFFF7FEBFC0
:10344000FFF7FEBFFC007E963007772C610EEEBAC8
:1034500051099919C46D078FF46A7035A563E9A302
:1034600095649E3288DB0EA4B8DC791EE9D5E0882D
:10347000D9D2972B4CB609BD7CB17E072DB8E79108
:103480001DBF906410B71DF220B06A4871B9F3DE19
:1034900041BE847DD4DA1AEBE4DD6D51B5D4F4C7B6
:1034A00085D38356986C13C0A86B647AF962FDECDF
:1034B000C9658A4F5C0114D96C0663633D0FFAF548
:1034C0000D088DC8206E7E3B5E10694CE44160D5CE
:1034D000727167A2D1E4033C47D4044BFD850DD241
:1034E0006BB50AA5FAA8B5356C98B242D6C9BBDB54
:1034F00040F9BCACE36CD832755CDF45CF0DD6DC4F
:10350000593DD1ABAC30D9263A00DE518051D7C8F5
:103510001661D0BFB5F4B42123C4B3569995BACF80
:103520000FA5BDB89EB802280888055FB2D90CC6A1
:1035300024E90BB1877C6F2F114C6858AB1D61C11A
:103540003D2D66B690417EDC760671DB01BC20D253
:10355000982A10D5EF8985B1711FB5B606A5E4BFCD
:103560009F33D4B8E8A2C9077834F9000F8EA809B0
:103570009618980EE1BB0D6A7F2D3D6D08976C641F
:1035800091015C63E6F4516B6B62616C1CD8306531
:10359000854E0062F2ED95066C7BA5011BC1F40817
:1035A0008257C40FF5C6D9B06550E9B712EAB8BE64
:1035B0008B7C88B9FCDF1DDD62492DDA15F37CD3E5
:1035C0008C654CD4FB587E61B24DCE51B53A740037
:1035D000BCA3E230BBD441A5DF4AD795D83D6DC42A
:1035E000D1A4FBF4D6D36AE96943FCD96E3446888A
:1035F00067ADD0B860DA732D0444E51D03335F4C2A
:103600000AAAC97C0DDD3C710550AA4102271010A1
:103610000BBE86200CC925B56857B3856F2009D429
:1036200066B99FE461CE0EF9DE5E98C9D929229869
:10363000D0B0B4A8D7C7173DB359810DB42E3B5CA9
:10364000BDB7AD6CBAC07E2083B8EDB6B3BF9A0CDF
:10365000E2B6039AD2B1743947D5EAAF77D29D1555
:1036600026DB048316DC73120B63E3843B64943E15
:103670006A6D0DA85A6A7A0BCF0EE49DFF09932755
:10368000AE000AB19E077D44930FF0D2A30887686D
:10369000F2011EFEC206695D5762F7CB6765807155
:1036A000366C19E7066B6E761BD4FEE02BD3895A75
:1036B0007ADA10CC4ADD676FDFB9F9F9EFBE8E43D5
:1036C000BEB717D58EB07E60E8A3D6D67E93D1A1C3
:1036D000C4C2D83852F2DF4FF167BBD16757BCA6DE
:1036E000DD06B53F4B36B248DA2B0DD84C1B0AAF7E
:1036F000F64A0336607A0441C3EF60DF55DF67A8FE
:10370000EF8E6E3179BE69468CB361CB1A8366BC8D
:10371000A0D26F2536E2685295770CCC03470BBBDD
:10372000B91602222F260555BE3BBAC5280BBDB2DD
:10373000925AB42B046AB35CA7FFD7C231CFD0B57D
:103740008B9ED92C1DAE7EDE5BB0C2649B26F263DD
:10375000EC9CA36A750A936D02A906099C3F360E7C
:10376000EB8567077213570005824ABF95147AB834
:10377000E2AE2BB17B381BB60C9B8ED2920DBED520
:10378000E5B7EFDC7C21DFDB0BD4D2D38642E2D479
:10379000F1F8B3DD686E83DA1FCD16BE815B26B902
:1037A000F6E177B06F7747B718E65A0888706A0F66
:1037B000FFCA3B06665C0B0111FF9E658F69AE6216
:1037C000F8D3FF6B61457ECF6C1678E20AA0EED28B
:1037D0000DD75483044EC2B30339612667A7F71689
:1037E00060D04D476949DB776E3E4A6AD1AEDC5AFC
:1037F000D6D9660BDF40F03BD83753AEBCA9C59E87
:10380000BBDE7FCFB247E9FFB5301CF2BDBD8AC237
:10381000BACA3093B353A6A3B4240536D0BA9306DC
:10382000D7CD2957DE54BF67D9232E7A66B3B84A5D
:1038300061C4021B685D942B6F2A37BE0BB4A18E46
:103840000CC31BDF055A038DEF022D81008100811F
:10385000008100E80050040400200C05002000084E
:103860000240000802400008024000080240000830
:103870000240000802400008024000080240000820
:10388000024000080240000402400004024000041C
:10389000024000040240000402400004024003040D
:1038A00006080C10182030F9000B01020304010275
:0838B0000304060708090000EB
:04000005080033615B
:00000001FF
