:020000040800F2
:10000000202D0020111700082D17000831170008B7
:1000100035170008391700083D17000800000000D8
:100020000000000000000000000000004117000870
:10003000451700080000000049170008B105000836
:100040005117000855170008591700085D170008D8
:100050006117000865170008691700086D17000888
:100060007117000875170008791700087D17000838
:100070008117000885170008891700088D170008E8
:100080009117000895170008991700089D17000898
:10009000A1170008A5170008A9170008AD17000848
:1000A000B1170008B5170008B9170008BD170008F8
:1000B000C1030008C5170008C9170008CD170008BC
:1000C000D1170008D5170008D9170008DD17000858
:1000D000E1170008E5170008E9170008ED17000808
:1000E000F1170008F5170008F9170008FD170008B8
:1000F000011800082DE9F04F81B000F05EFBDFF839
:10010000444541F22C0040F60801015141F2300013
:1001100040F20441015141F2340040F20221015108
:1001200000F03EFC04F5805600250836012236F822
:10013000021B284600F0C4FC6D1C102DF6DB00F0FD
:1001400037FB00F0F5FADFF800550120A5F80804A8
:100150000920A5F80A0400F007FD05F58160B5F84F
:10016000081400F005FDC5F804040022A5F80024D9
:10017000042110222A8005F204400122A5F800245F
:1001800002226A80A5F80024B5F8002430F8023B6A
:1001900025F81230491EB5F80024521CA5F8002499
:1001A00030F8023C102B07D192B225F81230B5F886
:1001B0000024521CA5F800240129E5DA1021B5F825
:1001C0000004DFF88864DFF888B4DFF8888425F855
:1001D00010100321B5F80004401CA5F8000441F2FA
:1001E000280980B225F81010B5F80004401CA5F8C5
:1001F000000404F10800009009E000BFB8F8040012
:10020000102814D10A20C5F8700600F0BDFAD5F800
:1002100070060A2804D00B2809D06F28F7D1FEE712
:1002200000F0CAFCC5F8700600F09AFAEFE7B8F8DB
:100230000000C007E2D495F80C06E028F7D195F944
:100240000D0680F0010185F80D16002185F80C16C9
:10025000218000EB00214FEAC10A0AEB0B0749F8A5
:1002600004700B20B8806068F880401C606000F06B
:100270007BFC41F234000059411E381D00F078FC2F
:100280004AF80B001022B4F9000004EB4001401CB6
:100290000A812080022200B204EB4001401C0A8146
:1002A00041F2300120800A5959F80400012A67DB25
:1002B00012F0030100F01880B4F9003030F802EBBE
:1002C00004EB43075B1CA7F808E023801BB204EB98
:1002D0004307B7F806E0BEF1100F03D1A7F808E016
:1002E0005B1C2380491EE7D1910849D0B4F9002056
:1002F00030F8027B04EB4203521C1F81228012B2B1
:1003000004EB4203DF88102F02D11F81521C228090
:10031000B4F9002030F8027B04EB4203521C1F8129
:10032000228012B204EB4203DF88102F02D11F811A
:10033000521C2280B4F9002030F8027B04EB420307
:10034000521C1F81228012B204EB4203DF88102F5F
:1003500002D11F81521C2280B4F9002030F8027BA8
:1003600004EB4203521C1F81228012B204EB4203B1
:10037000DF88102F02D11F81521C2280491EB5D167
:1003800049F804001022B4F9000004EB4001401CBD
:100390000A812080032200B204EB4001401C0A8144
:1003A00020804FF6FE713068084030600098F060A1
:1003B00040F2DC507060306840F00100306026E7A9
:1003C0002DE9F047DFF8808298F80C0682B04508E6
:1003D00000F0010000901C214FF0804000F004FD6F
:1003E00098F90D4604EB0427994C04EBC70900204B
:1003F00008F2106108F2306208F2506305EB09055B
:1004000098F80C763FB90F88A9F80870178889F812
:100410000A7089F80B001C88B4F5805F54DB6F20EC
:10042000C8F870060120A8F808046F20A8F80A048C
:1004300000F09AFB08F58160B8F8081400F098FB0A
:10044000C8F804040022A8F8002404211022A8F807
:10045000002008F204400122A8F800245FF0020204
:10046000A8F80220A8F80024B8F8002430F8023BCD
:1004700028F81230491EB8F80024521CA8F80024AD
:1004800030F8023C102B07D192B228F81230B8F89D
:100490000024521CA8F800240129E5DA1021B8F83C
:1004A000000428F810100321B8F80004401CA8F834
:1004B000000480B228F8101002B0B8F80004401C04
:1004C000A8F80004BDE8F08792F900C00FF2AC165E
:1004D000B1F90070E64636F91EE02401A4F50044A7
:1004E000E61B36B2002E51BF00240824764236B2F5
:1004F000764504DBA6EB0E0644F0040436B2B6EBF8
:100500006E0FA4BF44F00204A6EB6E0636B2B6EB43
:10051000AE0FA8BF44F001044FEAEE065FEA447A4A
:1005200044BF764436B25FEA847A44BF06EB6E0677
:1005300036B25FEAC47A44BF06EBAE0636B25FEA73
:10054000047E4CBFBF1BF7190FF2101636F814606B
:1005500066444FFA86FC07F30F07BCF1000F48BF53
:100560004FF0000C04D4BCF1590FA8BF4FF0580C49
:100570000F80A2F800C0009F002F1DBF2F7B47EA0D
:1005800004172F732C73401C80359B1C921C891CF4
:1005900009F180091028FFF633AF2F4800F0DCFC8A
:1005A00002B098F80C06401C88F80C06BDE8F087ED
:1005B000264801684FF6FE72114001602249C16071
:1005C000B1F800144160016841F001010160704719
:1005D0001D4A0023A2F80034102313800123A2F83F
:1005E00000340223538014E030F802CB22F813C009
:1005F000491EB2F800345B1CA2F8003430F802CC7B
:10060000BCF1100F07D19BB222F813C0B2F800342E
:100610005B1CA2F80034B2F800340129E4DA10209F
:1006200022F813000321B2F80004401CA2F80004D1
:1006300080B222F81010B2F80004401CA2F80004A6
:100640007047000000000020381000203060024099
:10065000081700200830014000240140FFFFFFFF81
:10066000FFFFFFFF0200040006000800FFFFFFFF7E
:10067000FFFFFFFF0200040006000800070008005B
:1006800009000A000B000C000D000E001000110004
:1006900013001500170019001C001F002200250080
:1006A00029002D00320037003C0042004900500074
:1006B000580061006B00760082008F009D00AD0045
:1006C000BE00D100E600FD001701330151017301A6
:1006D0009801C101EE01200256029202D4021C03CD
:1006E0006C03C30324048E04020583051006AB06C5
:1006F00056071208E008C309BD0AD00BFF0C4C0EC8
:10070000BA0F4C110713EE1406175419DC1BA51E63
:10071000B6211525CA28DF2C5B314B36B93BB241D7
:1007200044487E4F71572F60CE696274FF7F00008E
:1007300000B583B00121012000F090FC00A800F07A
:1007400039FB4FF40060ADF8040000A900200090D0
:10075000ADF806004FF0804000F002FB03B000BD92
:1007600000B581B001221C214FF0804000F034FB25
:1007700083484FF08051016001B05DF804EB012126
:100780004FF0804000F01EBB00B581B000221C215C
:100790004FF0804000F020FB79484FF0805101601D
:1007A00001B05DF804EB00214FF0804000F00ABB7F
:1007B00001214FF4805000F03FBC10B594B00121EE
:1007C0004FF0807000F038FC6E486F4C039003A926
:1007D0006E4804900020059010200690002007909D
:1007E000802008904FF4807009904FF480600A9048
:1007F00020200B904FF400500C9000200D902046CC
:1008000000F0ADFC0121204600F0C4FC012000F006
:10081000C1FB0121072000F00FFCEF20009000A990
:1008200000208DF8070003208DF80400584800F0E0
:10083000CBFC41F20300009000A9564800F0C4FC34
:100840003F20009000A9544800F0BEFC212000F099
:1008500020FC0028FAD001214FF4007000F0F5FBD5
:100860004FF48030029002A800F0F2FA00200E90BF
:1008700001208DF83C008DF83D0000201090129072
:1008800010208DF84C000EA9444C204600F0C0FA10
:100890000121204600F06EFB0023012200212046AA
:1008A00000F0EEFA002302220121204600F0E8FACF
:1008B000002303220221204600F0E2FA0023042252
:1008C0000321204600F0DCFA0522002311462046D1
:1008D00000F0D6FA062200231146204600F0D0FA96
:1008E000072200231146204600F0CAFA08220023FE
:1008F0001146204600F0C4FA092200231146204682
:1009000000F0BEFA0A2200231146204600F0B8FA91
:100910000B2200231146204600F0B2FA0C220023DD
:100920001146204600F0ACFA0D2200231146204665
:1009300000F0A6FA0E2200231146204600F0A0FA8D
:100940000F2200231146204600F09AFA00231022BD
:100950001221204600F094FA0121204600F001FB0C
:100960000121204600F07CFA4021204600F00BFBDC
:100970000028F9D0204600F0EFFA14B010BD0000B6
:1009800000E100E058240140086002408816002081
:100990000000024000040240000802400024014020
:1009A000F0B587B000240FF260150FF27C16534F9C
:1009B00056F8040B012100F03FFB2888009000A9A5
:1009C00001208DF8040000208DF8060001208DF82C
:1009D000070003208DF80500386800F0F5FB298832
:1009E000386800F029FC57F8040B35F8021B018326
:1009F000641C102CDCDB00F038F801214FF480403F
:100A000000F02CFB3E4C204600F032FC0020ADF8FC
:100A1000080002A94FF48270ADF80A004FF400609C
:100A2000ADF80C000020ADF80E00ADF810004FF44A
:100A30000070ADF812001020ADF814000020ADF8E1
:100A40001600ADF81800204600F03AFC00212046C0
:100A500000F061FC4FF48071204600F052FC01214F
:100A6000204600F044FC07B0F0BD10B582B0012173
:100A7000022000F0E1FA4FF42040009002208DF8AF
:100A8000040003208DF8050000208DF806000120E9
:100A90008DF8070000A91B4C204600F095FB0522AD
:100AA0000D21204600F0D0FB05220F21204600F04A
:100AB000CBFB4FF42041204600F0BEFB02B010BD3E
:100AC000F0B5C5B20FF240000C4F0D4C81B030F8BC
:100AD000156057F82500468341EA020040F428518A
:100AE000204600F022FC8021204600F028FC00284F
:100AF000F9D157F82500068301B0F0BDAC160020EF
:100B00000038004000040240400080000001000264
:100B100000040008001000200040008010002000A9
:100B200040008000000100020400000004000000FA
:100B300004000000040000000400000004000000A5
:100B40000400000004000000040000000400000095
:100B5000020000000200000002000000020000008D
:100B600002000000020000001148012101607047EE
:100B7000D1B111F003020F4B05D0521E50F804CB37
:100B8000C3F800C0F9D1890800F00E8050F8042B9A
:100B90001A60491E50F8042B1A6050F8042B1A6092
:100BA00050F8042B1A60F1D1024800687047000029
:100BB000083002400030024070B586B000A8002125
:100BC0000160382000F0C2FB5E4C206840F001005C
:100BD000206001A800F0E2F919E000BF5A480421A2
:100BE000B5F9082020F8022BB5F90A2020F8022BCD
:100BF000B5F90C2020F8022BB5F90E2020F8022BB5
:100C00000835491EECD1206840F0010020606421C5
:100C10000298B0FBF1F0401EB0F1807F07D2606017
:100C2000F02084F8130D0020A06007202060002130
:100C3000009100AB454D4649464A28460E88F607C6
:100C4000FCD5BDF800605E808E88ADF80060009E27
:100C50009642F3D10A88D207FCD5BDF80020ADF842
:100C600002208A88ADF80020009AB2F1101F03D14B
:100C70000022ADF8002007E005F50272904207D28D
:100C8000BDF8002020F8022B009A334B9A42E1D1A4
:100C9000FFF76AFF2879C1B2281DFFF769FF2968AD
:100CA0008842C4D1206800F001002060E88809383B
:100CB0000528A8D8DFE800F005161B0304218DE7FE
:100CC000A1E7264D0120A8800920E880FFF74CFF0E
:100CD000A988281DFFF74CFF286004212846FFF74C
:100CE00077FC90E71D4D0120A8800A20EDE7102039
:100CF00000F02CFB0B2006B070BD184D12490920E6
:100D0000A88004220E20E8804FEA050031F8023B5B
:100D1000038131F8023B438131F8023B838131F892
:100D2000023BC3810830521EF0D1FFF71DFFA98896
:100D3000281DFFF71DFF286014212846FFF748FCF7
:100D400061E7000010E000E00810002018270020F4
:100D50000830014002001000030010003C14002085
:100D60000288B0F1804F1FBF0E4B98420E4B984245
:100D700004D14FF68F731A404B881A430B4B98429D
:100D80001CBF0B4B984204D04FF6FF431A40CB8850
:100D90001A4302808A88828509880185012181821F
:100DA00070470000000400400008004000100040B0
:100DB000001400404FF6FF71818000210180C18046
:100DC000418070470029018812BF41F001014FF6B0
:100DD000FE72114001807047002A828914BF1143BE
:100DE00022EA010181817047C9430182704750F8AE
:100DF000041B61B150F8042BD30744BFA9F10103D0
:100E00009A18002342F8043B091FFAD1EFE7704714
:100E10004268184B1A400B7942EA03220B681A43C6
:100E20004260154B82681A400B691A43CB681A431B
:100E30008B681A434B7942EA43028260026B097D58
:100E4000491E22F0F872C9B242EA015101637047AB
:100E50000A490A68006822F440321043086070476B
:100E60000029816812BF41F00101490849008160F1
:100E700070470000FFFEFFFCFDF7FFC004270140A4
:100E800070B4072514290BDBA1F1140404EB44040E
:100E9000C668A54026EA0505A3402B43C36016E0BB
:100EA0000A290BDBA1F10A0404EB44040669A540FE
:100EB00026EA0505A3402B43036108E001EB41044A
:100EC0004669A54026EA0505A3402B4343611F233D
:100ED000072A0BDA521E02EB8202046C934024EACA
:100EE000030391401943016470BC70470D2A0BDA6B
:100EF000D21F02EB8202C46B934024EA03039140A9
:100F00001943C16370BC7047132A0BDA0D3A02EB28
:100F10008202846B934024EA030391401943816366
:100F200070BC7047192A0BDA133A02EB8202446B49
:100F3000934024EA030391401943416370BC704716
:100F4000193A02EB8202046B934024EA03039140B6
:100F50001943016370BC7047816841F08041816032
:100F600070470029816814BF41F4807121F48071B9
:100F7000816070470029816814BF41F4007121F439
:100F800000718160704700680022084218BF01228A
:100F900010467047474908607047000010B4444944
:100FA0004A6802F00C020C2A1ED8DFE802F01D1D70
:100FB0001D1D071D1D1D091D1D1D0B003E4A1CE0AA
:100FC0003E4A1AE04A684B683D4CC2F38342C3F381
:100FD0008153125D4C685B1CE40354BF364C374CA4
:100FE0006243B2FBF3F208E00A68520B02F0070218
:100FF0000123521C03FA02F2D20302604B68304A0A
:101000000468C3F303139B181B7B24FA03F34360A8
:101010004B684468C3F302239B181B7B24FA03F339
:10102000836049684368C1F3C2218918097B23FAA8
:1010300001F1C16010BC7047224A0029116814BF39
:10104000084321EA0000106070471F4A0029116818
:1010500014BF084321EA0000106070471B4A0029B2
:10106000116814BF084321EA000010607047184A55
:101070000029116814BF084321EA0000106070477E
:10108000144A0029116814BF084321EA00001060C7
:10109000704742090549012A0CBF0968496B00F0F5
:1010A0001F0021FA00F000F00100704700380240F4
:1010B00004380240000047420024F40000127A0085
:1010C000EC1600201C380240203802402438024030
:1010D000143802401838024001684FF6FE72114081
:1010E00001600021016041608160C1602E49884239
:1010F00004D12E48016841F00F012EE02C498842AE
:1011000004D12A48016841F0F00126E029498842CB
:1011100004D12648016841F470611EE026498842E6
:1011200004D12248016841F4704116E02349884205
:1011300004D11E48016841F470210EE02049884224
:1011400004D11A48016841F4700106E01D49884243
:1011500004D11648016841F070610160704702686F
:101160008B686FF30E121A430B6A1A430B691A430A
:101170004B691A438B691A43CB691A434B6A1A436A
:101180008B6A1A430260CA6842600A6882604968D2
:10119000C16070470029016812BF41F001014FF69C
:1011A000FE72114001607047086002400460024016
:1011B0001C600240306002404460024058600240BF
:1011C0006C60024080600240F0B4002200230124E1
:1011D0000D6894402540A54228D103259D4006680E
:1011E000ED432E40066006680F799F403E4306603F
:1011F0000E79012E18BF022E10D186682E4086600F
:1012000086684F799F403E438660868826EA0404BC
:10121000848084888E79964034438480C4682C40CE
:10122000C460C468CD799D402C43C460521C9B1C93
:10123000102ACCD3F0BC704741F48032C261C16146
:10124000C261C169C0697047CB0800EB830001F03F
:1012500007018900036A4FF00F0C0CFA01FC23EA26
:101260000C03036202FA01F1036A19430162704739
:1012700000B5114981B088420CD101214FF4805052
:10128000FFF7F5FE01B05DF804EB00214FF480504C
:10129000FFF7EDBE094988420CD101214FF480408F
:1012A000FFF7EEFE01B05DF804EB00214FF4804043
:1012B000FFF7E6BE01B000BD00300140003800403D
:1012C00002880B8802F441521A434B881A438B88D8
:1012D0001A43CB881A430B891A434B891A438B89CB
:1012E0001A43CB891A430280098A01827047002978
:1012F000018812BF41F040014FF6BF7211400180DA
:1013000070474FF6FF629142018814BF41F480712B
:101310001140018070470029818812BF41F004010B
:101320004FF6FB7211408180704781817047002A1F
:10133000828814BF114322EA01018180704700892D
:101340000022084218BF01221046704710B504461B
:1013500086B001214FF48050FFF777FE00F02DF8A2
:101360000020ADF80000ADF80C404FF48270ADF8ED
:1013700002004FF40060ADF804000020ADF8060054
:101380000120ADF808004FF40070ADF80A0000200D
:10139000ADF80E00ADF8100000A93C4C2046FFF758
:1013A0008FFF00212046FFF7B6FF00F041F8012132
:1013B0002046FFF79CFF06B010BD30B583B0012179
:1013C0000320FFF739FE4FF4C050009002208DF843
:1013D000040003208DF8050000208DF80600012090
:1013E0008DF8070000A92A4C2046FFF7EDFE0820E3
:1013F000009000A9274D2846FFF7E6FE05220B21A5
:101400002046FFF721FF05220C212046FFF71CFF95
:10141000052203212846FFF717FF4FF4C05120464D
:10142000FFF70AFF08212846FFF706FF03B030BD8B
:1014300010B58CB001214FF08070FFF7FDFD164C08
:101440002046FFF749FE1548009001220020019038
:10145000022110200290002003900490802005902B
:101460004FF4807006904FF4806007900020089041
:101470004FF40050099000200A900448FFF757FFEE
:1014800000A92046FFF76BFE0CB010BD00300140F4
:101490000000024000040240306002400C30014075
:1014A0003A483B4A82B0016841F48071016081682A
:1014B00011408160374A016811400160016821F4E0
:1014C00080210160816821F47D0181600021C1607B
:1014D00001910091016841F480310160016801F4DB
:1014E000003100910199491C0191009919B90199A4
:1014F000B1F5A06FF2D10168490C01F00101009132
:101500000099012940D1416A41F0805141624FF474
:10151000006221490A604A68D206FCD4D0F800145F
:1015200041F00401C0F80014D0F8001441F00101AA
:10153000C0F80014D0F8001441F00201C0F8001403
:10154000816841F08001816081688160816881608B
:10155000816821F47D018160816841F45D018160D1
:10156000016841F08071016001688901FCD58168E2
:10157000890889008160816841F003018160816888
:1015800001F00C010C29FAD102B07047003802407A
:101590000CC0FF88FEFFFEEE00700040816807E08F
:1015A00002681168536889185B18C36008320260CA
:1015B000C2689142F4D04A1C8260087870472DE9D5
:1015C000FF4D00F10801009100270168009A4908C9
:1015D00002EBC1010191B84600210291039101681B
:1015E000490800EBC101406800F0010501F1080461
:1015F000400804EBC00631E000A8FFF7CFFF4FFA28
:1016000080FA0AE000980168081800990290496879
:1016100008180390009808300090029803998842B7
:10162000F0D0401C029010F801BD47450CD1B442E7
:1016300008BF00F01DF8276805B14F44606800EB53
:10164000070808344745F2D007F801BBBAF1000F8C
:101650000AD51AF1010AE8D14745CDD1B442CBD120
:10166000304604B0BDE8F08DBAF1010AD5D5F3E7F4
:10167000012000F001B8000080B5C046C046024A13
:1016800011001820ABBEFBE72600020010B5074989
:1016900079441831064C7C44163404E00A68081D6D
:1016A000511888470146A142F8D110BD080000003A
:1016B000300000003BF7FFFF181200000817002061
:1016C00000000000FBFEFFFF02000000020000001F
:1016D00034010000DA0000000000002008170000BC
:1016E00000F00BF8002801D0FFF7D0FF0020C04623
:1016F000C046FEF7FFFC00F002F80120704700F042
:1017000001B8000007463846FFF7B6FFFBE70000C8
:101710000148804701480047A1140008211700082C
:10172000C046C046C046C046FFF7DAFFFFF7FEBF1F
:10173000FFF7FEBFFFF7FEBFFFF7FEBFFFF7FEBFDD
:10174000FFF7FEBFFFF7FEBFFFF7FEBFFEF730BF9C
:10175000FFF7FEBFFFF7FEBFFFF7FEBFFFF7FEBFBD
:10176000FFF7FEBFFFF7FEBFFFF7FEBFFFF7FEBFAD
:10177000FFF7FEBFFFF7FEBFFFF7FEBFFFF7FEBF9D
:10178000FFF7FEBFFFF7FEBFFFF7FEBFFFF7FEBF8D
:10179000FFF7FEBFFFF7FEBFFFF7FEBFFFF7FEBF7D
:1017A000FFF7FEBFFFF7FEBFFFF7FEBFFFF7FEBF6D
:1017B000FFF7FEBFFFF7FEBFFFF7FEBFFFF7FEBF5D
:1017C000FEF7FEBDFFF7FEBFFFF7FEBFFFF7FEBF50
:1017D000FFF7FEBFFFF7FEBFFFF7FEBFFFF7FEBF3D
:1017E000FFF7FEBFFFF7FEBFFFF7FEBFFFF7FEBF2D
:1017F000FFF7FEBFFFF7FEBFFFF7FEBFFFF7FEBF1D
:10180000FFF7FEBF8100810081008100810081001F
:1018100081008100810081008100810081008100C0
:1018200081008100810081008100810081008100B0
:1018300081008100810081008100810081008100A0
:1018400081008100D8000010FD001A100010001067
:101850000010001000100010001000100010001008
:1018600000100010001081008100810081008100C3
:101870008100810081008100810081008100810060
:10188000F200000AFC00470802400008024000087D
:101890000240000802400008024000080240000820
:1018A0000240000802400008024000080240000414
:1018B0000240000402400004024000040240000410
:1018C000024000040240030406080C10182030F9FE
:1018D000000B0102030401020304060708090000CB
:0400000508001721B7
:00000001FF
