S018000073746D33326632303770726F6A6563742E737265635D
S31508000000A0B2002035140008511400085514000841
S31508000010591400085D140008611400080000000067
S315080000200000000000000000000000006514000841
S3150800003069140008000000006D140008010E00088D
S3150800004075140008791400087D1400088114000846
S3150800005085140008891400088D14000891140008F6
S3150800006095140008991400089D140008D106000884
S31508000070A5140008A9140008AD140008B114000856
S31508000080B5140008B9140008BD140008C114000806
S31508000090C5140008C9140008CD140008D1140008B6
S315080000A0D5140008D9140008DD140008E114000866
S315080000B0E5140008E9140008ED140008F114000816
S315080000C0F5140008F9140008FD14000801150008C5
S315080000D005150008091500080D1500081115000872
S315080000E015150008191500081D1500082115000822
S315080000F025150008291500082D15000831150008D2
S3150800010035150008391500083D1500084115000881
S3150800011045150008491500084D1500085115000831
S3150800012055150008591500085D15000861150008E1
S3150800013065150008691500086D1500087115000891
S3150800014075150008791500087D1500088115000841
S3150800015085150008891500088D15000891150008F1
S3150800016095150008991500089D150008A1150008A1
S31508000170A5150008A9150008AD150008B115000851
S31508000180B515000880B57048006850F001006E4942
S3150800019008606E48002101606B4800686C49084099
S315080001A0694908606B486C4901606748006830F423
S315080001B08020654908606948002101606848006830
S315080001C050F001006649086000F068F800F005F88C
S315080001D064485FF00061016001BD82B000200190B3
S315080001E0002000905848006850F48030564908604E
S315080001F05548006810F4003000900198401C0190A2
S315080002000098002803D10198B0F5A06FF0D14E48A8
S315080002100068800302D50120009001E000200090CC
S315080002200098012838D14948484909680160474873
S31508000230006850F40040454908604448006850F496
S31508000240A050424908604148006850F480003F4980
S3150800025008604048444901603B48006850F0807097
S3150800026039490860384800688001FBD53F4840F2A4
S3150800027003710160354800688008800033490860CA
S315080002803248006850F00200304908602F4800687C
S3150800029010F00C000828F9D102B0704780B5344830
S315080002A07821016033483449016034485FF0CC3125
S315080002B001603348334901603348344901603448A2
S315080002C00021016033484FF48051016032483349B8
S315080002D0016033485FF0CC31016032483249016031
S315080002E03248334901603348002101603248002111
S315080002F00160324832490160324833490160334867
S3150800030033490160334834490160344800210160AB
S31508000310334800210160334829490160324833498E
S315080003200160334833490160334834490160344831
S315080003300021016033480021016033480121016032
S3150800034000F064F801BD0000003802400838024099
S31508000350FFFFF6FE04380240103000240C38024035
S315080003604438024008ED00E0193C4005003C0240D4
S3150800037030380240200C0240CC00CCCC240C024081
S31508000380000C02400AAAAAAA080C02400F3FFFFF67
S31508000390040C02400C0C024020100240CC0000C0A5
S315080003A024100240001002400A80AAAA081002403F
S315080003B00FC0FFFF041002400C1002402014024038
S315080003C0CCCCCC00241402400000CCCC0014024053
S315080003D0AA0A00AA08140240FF0F00FF04140240EC
S315080003E00C1402402018024024180240C00C0C00CD
S315080003F000180240AA0A280208180240FF0F3C0308
S31508000400041802400C1802403838024000B597B06C
S3150800041002200090002001900620029002200390FE
S3150800042000200490002005900020069000200790E8
S31508000430002008900420099010200A9000200B90B4
S3150800044000200C9000200D9000200E9000200F90A8
S315080004504FF4805010900020119000201290002038
S31508000460139000A8149000A8159007A800F0A2F809
S315080004700121002000F00EF90220009000200190D2
S315080004800620029002200390002004900020059088
S31508000490002006900220079000200890042009906A
S315080004A010200A9000200B9000200C9000200D9040
S315080004B000200E9000200F904FF4805010900020DE
S315080004C01190002012900020139000A8149000A804
S315080004D0159007A800F06EF80121022000F0DAF85E
S315080004E00020009000200190032002900120039034
S315080004F00020049000200590002006900420079014
S31508000500002008900420099010200A9000200B90E3
S3150800051000200C9000200D9000200E9000200F90D7
S315080005204FF4805010900020119000201290002067
S31508000530139000A8149000A8159007A800F03AF8A0
S315080005400121042000F0A6F8002000900020019068
S3150800055004200290012003900020049000200590BA
S315080005600020069006200790002008900420099095
S3150800057010200A9000200B9000200C9000200D906F
S3150800058000200E9000200F904FF48050109000200D
S315080005901190002012900020139000A8149000A833
S315080005A0159007A800F006F80121062000F072F859
S315080005B017B000BD416882681143C26811430269D9
S315080005C011434269114382691143C2691143026AA0
S315080005D01143426A1143826A1143C26A1143026B8C
S315080005E0114302689200B2F1C0421160816808297D
S315080005F00BD101688900B1F1C041096851F0400189
S3150800060002689200B2F1C0421160416B0968426B00
S31508000610526851EA0211426B926851EA0221426B12
S31508000620D26851EA0241426B126951EA0251426BA1
S31508000630526951EA0261426B92691143026892005B
S31508000640B2F1C0425160C16AB1F5804F1AD1816BCF
S315080006500968826B526851EA0211826B926851EA04
S315080006600221826B126951EA0251826B526951EA80
S315080006700261826B926911430268DFF84C3043F8D5
S31508000680221006E00168DFF840207FF0704342F848
S3150800069021307047C9B200290AD08200B2F1C0429F
S315080006A0126852F001028300B3F1C0431A600AE0EF
S315080006B08200B2F1C0421268DFF810301A40830097
S315080006C0B3F1C0431A607047040100A0FEFF0F0093
S315080006D02DE9F84FDFF878B31421DFF8780300F036
S315080006E0C0FADFF87413DFF86C0300F0CCFADFF811
S315080006F0640300F0ABFA80460020060040F2DC50A6
S31508000700864280F2A281DFF84803DFF8441309889D
S31508000710418040F6B830DFF8441300FB081030F883
S315080007201600CB490880CE480068CE49884214D1C5
S31508000730DBF80000CB49884240F08581C848CA49A1
S315080007400160CA48006840F60801C94A01FB002052
S315080007508246C8480021016075E1C1480068C2495F
S31508000760884240F07081DBF80000BF49884240F0BB
S31508000770528100F0D1FAC0480068411EBB480068A3
S3150800078040F60802BA4B02FB0030001D00F0C8FA1A
S3150800079000900098B549096840F60802B44B02FB78
S315080007A001310968884240F00F81B048006840F678
S315080007B00801AF4A01FB00208088662803D1AF48AC
S315080007C00021416100E1A948006840F60801A84AED
S315080007D001FB00208088012840F0F68000200600F2
S315080007E0102E80F2DE801420A54900FB0610006852
S315080007F080461420A24900FB061040688146142052
S315080008009F4900FB06104068401C14219C4A01FBC6
S3150800081006214860702040219A4A01FB082151F8B8
S31508000820261000FB0910001D040080208F49096866
S3150800083040F608028E4B02FB013100FB06100C3015
S315080008400500002007001C2F05DA286820602D1DEA
S31508000850241D7F1CF7E7B9F1000F4AD140208949CA
S3150800086000FB081050F826008021804A126840F6DE
S315080008700803DFF8FCC103FB02C201FB0621098954
S31508000880018040207F4900FB081050F8260080218F
S31508000890764A126840F60803DFF8D4C103FB02C2A1
S315080008A001FB0621897A81704020764900FB0810F1
S315080008B050F82600C67000F0A9FA4022714B02FBD8
S315080008C0083252F8262002F6C4721060516074236A
S315080008D0742240206B4900FB081050F826105FF080
S315080008E0FF3000F0A0FA1421654A01FB06210861D1
S315080008F055E0B9F1230F38D17823782270204021AA
S31508000900DFF880C101FB08C151F8261000FB091069
S31508000910011D1420DFF868C100FB06C0006900F05D
S3150800092082FA4021574A01FB082151F826105FF048
S31508000930FF325040C1F8CC0F1420514900FB061075
S31508000940006890F0010014214D4A01FB0621086059
S3150800095014204B4900FB0610002141601420484929
S3150800096000FB06100121C16019E070237022702077
S315080009704021DFF810C101FB08C151F8261000FB21
S315080009800910011D1420DFF8F8C000FB06C0006935
S3150800099000F049FA14213A4A01FB06210861761C3F
S315080009A01EE7B9F1230F0FD100200600102E0BDA2F
S315080009B0354800781421324A01FB0621C9680843E4
S315080009C031490870761CF1E72848006840F60801A6
S315080009D0274A01FB0020C0882C4908802B4800883C
S315080009E02A494988491C884204D02948C06B401CBA
S315080009F02749C86325482549098841800020CBF83E
S31508000A0000001748174901601848006890F001006F
S31508000A101649086017E0DBF80000B0F1101F03D193
S31508000A200B48002101800EE012480068411C114A5B
S31508000A30116018490968884205DA05480088AAF845
S31508000A4000001AF1020A761C58E6BDE8F18F00BFCD
S31508000A50943200201060024028A0001004040020F0
S31508000A60000400200200100003001000903200204D
S31508000A70741B00208C320020803200205032002067
S31508000A80543000209431002098320020883200200B
S31508000A90842B00207C320020016849084900016047
S31508000AA00021016000214160002181600021C160B0
S31508000AB00021016121214161DFF8F011884204D14A
S31508000AC0DFF8EC113D220A6086E0DFF8E81188427B
S31508000AD005D1DFF8DC114FF474620A607CE0DFF8B8
S31508000AE0D811884205D1DFF8C8115FF474120A607C
S31508000AF072E0DFF8C811884205D1DFF8B4115FF05B
S31508000B0074620A6068E0DFF8B811884205D1DFF838
S31508000B10B411DFF8B4210A605EE0DFF8B01188424C
S31508000B2005D1DFF8A011DFF8A8210A6054E0DFF844
S31508000B30A411884205D1DFF88C11DFF89C210A60E0
S31508000B404AE0DFF89811884205D1DFF878115FF09E
S31508000B503D520A6040E0DFF88811884204D1DFF888
S31508000B6084113D220A6037E0DFF87C11884205D1FE
S31508000B70DFF870114FF474620A602DE0DFF86C112B
S31508000B80884205D1DFF85C115FF474120A6023E02D
S31508000B905749884204D153495FF074620A601BE0E2
S31508000BA05449884203D15449474A0A6014E05349D4
S31508000BB0884203D15049464A0A600DE050498842A6
S31508000BC003D14D49444A0A6006E04E49884203D19A
S31508000BD049495FF03D520A60704710B40022036825
S31508000BE01A00494B1A400B68CC6823434C692343C7
S31508000BF08C692343CC6923430C6A23434C6A2343F9
S31508000C008C6A23434C6B23438C6B23431A43026041
S31508000C1043691A00D208D200CB6A0C6B23431A43E5
S31508000C2042610B6943604B6883608B68C36010BC84
S31508000C307047C9B2002904D0026852F00102026066
S31508000C4003E0026852085200026070470100002063
S31508000C500A68120302D50122100001E000221000E2
S31508000C6070471F4B984202D2284B1A0001E0284BC6
S31508000C701A008B0003D5274B0B40D36002E0254BA7
S31508000C800B4093607047164B984202D21F4B1A00CE
S31508000C9001E01F4B1A008B0003D51E4B0B40D36097
S31508000CA002E01C4B0B409360704700001060024046
S31508000CB008600240286002404060024058600240D6
S31508000CC0706002400C6002403D00002088600240CF
S31508000CD0400F0020A060024000003D20B86002409E
S31508000CE010640240086402402864024040640240DE
S31508000CF058640240706402400C64024088640240F2
S31508000D00A0640240B86402403F801CF000600240C4
S31508000D10006402407D0F7D0F0A480121016070477B
S31508000D2010B402000023002003008B4205D252F8BB
S31508000D302300054C20605B1CF7E70348006810BCDD
S31508000D4070470000083002400030024038B500F015
S31508000D50BFF900F08DF85FF0D0443F4D00200A2817
S31508000D6006DA00212180A41C2880AD1C401CF6E769
S31508000D703A48FFF791FE01215FF4800000F0D4F9AC
S31508000D8037480021016036483349416034485FF0EE
S31508000D90D041816032488021C16031480A21016111
S31508000DA02F484FF4007141612D484FF480618161ED
S31508000DB02B484FF40061C16129484FF40051016284
S31508000DC027480021416226480121016324485FF42F
S31508000DD00031816222480021C16221480021416315
S31508000DE01F48002181631E491C48FFF7F6FE0121B2
S31508000DF01A48FFF71EFF02211A4800F013FAFAE70D
S31508000E001948006864301849086070471CB500AC7A
S31508000E1000A9002000F038FA01A9002000F05DFAC8
S31508000E20D4E900011CBD70B40400934201D200202D
S31508000E300FE00D001000421E002809D028786040F7
S31508000E40C0B20A4E56F8200090EA14246D1CF1E749
S31508000E50200070BC7047000020000068A0640240B3
S31508000E6014320020002002408432002000000020B6
S31508000E7000B599B00121782000F056F9012101202A
S31508000E8000F061F90C220021A24800F0D0F90C22EA
S31508000E900121A04800F0CBF90C2204219D4800F05E
S31508000EA0C6F90C2205219B4800F0C1F90C2208213D
S31508000EB0984800F0BCF90C220921964800F0B7F9C9
S31508000EC00C220A21934800F0B2F90C220B21914812
S31508000ED000F0ADF90C220C218E4800F0A8F90C227E
S31508000EE00D218C4800F0A3F90C220E21894800F048
S31508000EF09EF90C220F21874800F099F94FF63370B6
S31508000F00009002208DF8040003208DF805000020CB
S31508000F108DF8060000208DF8070000A97D4800F02E
S31508000F2025F90C2200217C4800F081F90C220121C8
S31508000F30794800F07CF90C220721774800F077F908
S31508000F400C220821744800F072F90C220921724813
S31508000F5000F06DF90C220A216F4800F068F90C229E
S31508000F600B216D4800F063F90C220C216A4800F049
S31508000F705EF90C220D21684800F059F90C220E2161
S31508000F80654800F054F90C220F21634800F04FF928
S31508000F904FF68370009000A95F4800F0E7F80C222E
S31508000FA000215E4800F043F90C2201215B4800F05D
S31508000FB03EF90C220221594800F039F90C22032186
S31508000FC0564800F034F90C220421544800F02FF951
S31508000FD00C220521514800F02AF90C220C214F4811
S31508000FE000F025F90C220D214C4800F020F90C22BE
S31508000FF00E214A4800F01BF90C220F21474800F041
S3150800100016F94FF23F00009000A9444800F0AEF8E8
S315080010100C220021424800F00AF90C22012140481E
S3150800102000F005F90C2202213D4800F000F90C22D7
S3150800103003213B4800F0FBF80C220421384800F055
S31508001040F6F80C220521364800F0F1F80C220A21A0
S31508001050334800F0ECF840F23F40009000A93048D1
S3150800106000F084F805200290052003900A200490D9
S315080010700020059000200690002007900020089088
S315080010800420099000200A9004200B9010200C9050
S3150800109000200D9000200E9000200F900020109048
S315080010A0002011904FF480501290002013900020D9
S315080010B014900020159002A8169002A8179009A867
S315080010C0FFF778FA01210420FFF7E4FA19B000BD0A
S315080010D000B583B001214FF4807000F025F8032095
S315080010E0009001208DF8040000208DF806000320EA
S315080010F08DF8050000A90B4800F038F801220121F7
S31508001100084800F088F801220221064800F083F812
S3150800111007BD0000000C0240001002400014024007
S315080011200018024000200240C9B2002905D00D4A25
S31508001130126802430B4B1A6004E00A4A126882439B
S31508001140084B1A607047C9B2002905D0064A1268CA
S315080011500243054B1A6004E0034A12688243024BB5
S315080011601A6070473038024038380240F0B400221E
S315080011700023002400252A00102A4AD2012595407A
S315080011802B000D681D402C009C4240D105680326A3
S315080011901700FFB27F00BE40B543056005680E79AB
S315080011A01700FFB27F00BE40354305600D79012D5B
S315080011B002D00D79022D1AD1856803261700FFB2D1
S315080011C07F00BE40B543856085684E791700FFB23B
S315080011D07F00BE4035438560456801269640B54385
S315080011E0456045688E799640B6B235434560C56810
S315080011F003261700FFB27F00BE40B543C560C56829
S31508001200CE791700FFB27F00BE403543C560521C39
S31508001210B2E7F0BC7047D2B2002A01D0018300E0E1
S3150800122041837047426989B24A4042617047F0B4C7
S3150800123000230024D2B211F00705EDB2AD0012FA70
S3150800124005F52B0089B2CD1010EB850589B2CE10B5
S3150800125010EB8606366A0F2711F0070C5FFA8CFC2E
S315080012605FEA8C0C17FA0CF7BE432E6289B2CD10D2
S3150800127010EB85052D6A1D432C0089B2CD1010EBA5
S3150800128085052C62F0BC704770B504000D00002679
S31508001290DFF898000068DFF89C1008400600300C5C
S315080012A010F03F002870300A10F07F00687016F0C2
S315080012B07F00A870300C10F04000E870002C0BD1AD
S315080012C0287800F03BF82870687800F037F86870DE
S315080012D0A87800F033F8A87070BD70B504000D004A
S315080012E00026DFF84C000068DFF84C1008400600BE
S315080012F0300CE870300A10F01F00687016F03F00D6
S31508001300A870700B10F007002870002C0DD1E87833
S3150800131000F014F8E870687800F010F86870A8789B
S3150800132000F00CF8A8702878287070BD00280040D6
S31508001330042800407F7F7F003FFFFF000021C0B2E6
S3150800134002090A235A43110010F00F004018C0B2D0
S31508001350704710B450F8041B81B102681218001DBA
S3150800136050F8043BDC0744BFA9F10104E31852F81E
S31508001370044B43F8044B091FF9D1EBE710BC70473F
S3150800138010B5074979441831064C7C44163404E0F4
S315080013900A68081D511888470146A142F8D110BDB0
S315080013A02C0000004C00000050F8041B61B150F8F6
S315080013B0042BD30744BFA9F101039A18002342F866
S315080013C0043B091FFAD1EFE770470000DDFFFFFF76
S315080013D0982E0000040400200000000077FFFFFF9D
S315080013E004040000D40100000000002000000000F2
S315080013F000F00BF8002801D0FFF7C2FF0020C04616
S31508001400C046FFF7A3FC00F002F80120704700F081
S3150800141001B800000746384600F002F8FBE700006E
S3150800142080B5C046C046024A11001820ABBEFBE78D
S315080014302600020001488047014800478501000848
S3150800144045140008C046C046C046C046FFF7D0FF50
S31508001450FFF7FEBFFFF7FEBFFFF7FEBFFFF7FEBFB2
S31508001460FFF7FEBFFFF7FEBFFFF7FEBFFFF7FEBFA2
S31508001470FFF7C6BCFFF7FEBFFFF7FEBFFFF7FEBFCD
S31508001480FFF7FEBFFFF7FEBFFFF7FEBFFFF7FEBF82
S31508001490FFF7FEBFFFF7FEBFFFF7FEBFFFF7FEBF72
S315080014A0FFF716B9FFF7FEBFFFF7FEBFFFF7FEBF50
S315080014B0FFF7FEBFFFF7FEBFFFF7FEBFFFF7FEBF52
S315080014C0FFF7FEBFFFF7FEBFFFF7FEBFFFF7FEBF42
S315080014D0FFF7FEBFFFF7FEBFFFF7FEBFFFF7FEBF32
S315080014E0FFF7FEBFFFF7FEBFFFF7FEBFFFF7FEBF22
S315080014F0FFF7FEBFFFF7FEBFFFF7FEBFFFF7FEBF12
S31508001500FFF7FEBFFFF7FEBFFFF7FEBFFFF7FEBF01
S31508001510FFF7FEBFFFF7FEBFFFF7FEBFFFF7FEBFF1
S31508001520FFF7FEBFFFF7FEBFFFF7FEBFFFF7FEBFE1
S31508001530FFF7FEBFFFF7FEBFFFF7FEBFFFF7FEBFD1
S31508001540FFF7FEBFFFF7FEBFFFF7FEBFFFF7FEBFC1
S31508001550FFF7FEBFFFF7FEBFFFF7FEBFFFF7FEBFB1
S31508001560FFF7FEBFFFF7FEBFFFF7FEBFFFF7FEBFA1
S31508001570FFF7FEBFFFF7FEBFFFF7FEBFFFF7FEBF91
S31508001580FFF7FEBFFFF7FEBFFFF7FEBFFFF7FEBF81
S31508001590FFF7FEBFFFF7FEBFFFF7FEBFFFF7FEBF71
S315080015A0FFF7FEBFFFF7FEBFFFF7FEBFFFF7FEBF61
S315080015B0FFF7FEBFFFF7FEBF000000009630077773
S315080015C02C610EEEBA51099919C46D078FF46A7029
S315080015D035A563E9A395649E3288DB0EA4B8DC7949
S315080015E01EE9D5E088D9D2972B4CB609BD7CB17EC9
S315080015F0072DB8E7911DBF906410B71DF220B06A99
S315080016004871B9F3DE41BE847DD4DA1AEBE4DD6DA8
S3150800161051B5D4F4C785D38356986C13C0A86B64A8
S315080016207AF962FDECC9658A4F5C0114D96C0663C8
S31508001630633D0FFAF50D088DC8206E3B5E10694CA8
S31508001640E44160D5727167A2D1E4033C47D4044BE8
S31508001650FD850DD26BB50AA5FAA8B5356C98B242C8
S31508001660D6C9BBDB40F9BCACE36CD832755CDF4548
S31508001670CF0DD6DC593DD1ABAC30D9263A00DE5178
S315080016808051D7C81661D0BFB5F4B42123C4B35668
S315080016909995BACF0FA5BDB89EB802280888055FE8
S315080016A0B2D90CC624E90BB1877C6F2F114C685848
S315080016B0AB1D61C13D2D66B69041DC760671DB0136
S315080016C0BC20D2982A10D5EF8985B1711FB5B60608
S315080016D0A5E4BF9F33D4B8E8A2C9077834F9000F48
S315080016E08EA8099618980EE1BB0D6A7F2D3D6D08E8
S315080016F0976C6491015C63E6F4516B6B62616C1CD8
S31508001700D83065854E0062F2ED95066C7BA5011B07
S31508001710C1F4088257C40FF5C6D9B06550E9B712A7
S31508001720EAB8BE8B7C88B9FCDF1DDD62492DDA1567
S31508001730F37CD38C654CD4FB5861B24DCE51B53A87
S315080017407400BCA3E230BBD441A5DF4AD795D83D87
S315080017506DC4D1A4FBF4D6D36AE96943FCD96E34C7
S31508001760468867ADD0B860DA732D0444E51D0333A7
S315080017705F4C0AAAC97C0DDD3C710550AA410227B7
S3150800178010100BBE86200CC925B56857B3856F2087
S3150800179009D466B99FE461CE0EF9DE5E98C9D929E7
S315080017A02298D0B0B4A8D7C7173DB359810DB42E27
S315080017B03B5CBDB7AD6CBAC02083B8EDB6B3BF9A73
S315080017C00CE2B6039AD2B1743947D5EAAF77D29DFF
S315080017D01526DB048316DC73120B63E3843B6494DF
S315080017E03E6A6D0DA85A6A7A0BCF0EE49DFF0993DF
S315080017F027AE000AB19E077D44930FF0D2A308874F
S3150800180068F2011EFEC206695D5762F7CB676580FE
S3150800181071366C19E7066B6E761BD4FEE02BD389FE
S315080018205A7ADA10CC4ADD676FDFB9F9F9EFBE8E5E
S3150800183043BEB717D58EB060E8A3D6D67E93D1A19E
S31508001840C4C2D83852F2DF4FF167BBD16757BCA67E
S31508001850DD06B53F4B36B248DA2B0DD84C1B0AAF1E
S31508001860F64A0336607A0441C3EF60DF55DF67A89E
S31508001870EF8E6E3179BE69468CB361CB1A8366BC2E
S31508001880A0D26F2536E2685295770CCC03470BBB7E
S31508001890B91602222F260555BE3BBAC5280BBDB27E
S315080018A0925AB42B046AB35CA7FFD7C231CFD0B51E
S315080018B08B9ED92C1DAEDE5BB0C2649B26F263EC10
S315080018C09CA36A750A936D02A906099C3F360EEB1E
S315080018D08567077213570005824ABF95147AB8E2DE
S315080018E0AE2BB17B381BB60C9B8ED2920DBED5E5BE
S315080018F0B7EFDC7C21DFDB0BD4D2D38642E2D4F10E
S31508001900F8B3DD686E83DA1FCD16BE815B26B9F69D
S31508001910E177B06F7747B718E65A0888706A0FFFFD
S31508001920CA3B06665C0B0111FF9E658F69AE62F8BD
S31508001930D3FF6B6145CF6C1678E20AA0EED20DD7BD
S315080019405483044EC2B30339612667A7F71660D0DD
S315080019504D476949DB776E3E4A6AD1AEDC5AD6D91D
S31508001960660BDF40F03BD83753AEBCA9C59EBBDE3D
S315080019707FCFB247E9FFB5301CF2BDBD8AC2BACAED
S315080019803093B353A6A3B4240536D0BA9306D7CD5D
S315080019902957DE54BF67D9232E7A66B3B84A61C47D
S315080019A0021B685D942B6F2A37BE0BB4A18E0CC33D
S311080019B01BDF055A8DEF022D0200100007
S7050800144599
