S018000073746D33326632303770726F6A6563742E737265635D
S3150800000038690120E9BE000825BF000829BF000895
S315080000102DBF000831BF000835BF000800000000EA
S3150800002000000000000000000000000039BF0008C2
S315080000303DBF00080000000041BF0008BF8500085A
S3150800004049BF00084DBF000851BF000855BF00084A
S3150800005059BF00085DBF000861BF000865BF0008FA
S3150800006069BF00086DBF000871BF000899B800088D
S3150800007079BF00087DBF000881BF000885BF00085A
S3150800008089BF00088DBF000891BF000895BF00080A
S3150800009099BF00089DBF0008A1BF0008A5BF0008BA
S315080000A0A9BF0008ADBF0008B1BF0008B5BF00086A
S315080000B0B9BF0008BDBF0008C1BF0008C5BF00081A
S315080000C0C9BF0008CDBF0008D1BF0008D5BF0008CA
S315080000D0D9BF0008DDBF0008E1BF0008E5BF00087A
S315080000E0E9BF0008EDBF0008F1BF0008F5BF00082A
S315080000F0F9BF0008FDBF000801C0000805C00008D8
S3150800010009C000080DC0000811C0000815C0000885
S3150800011019C000081DC0000821C0000825C0000835
S3150800012029C000082DC0000831C0000835C00008E5
S3150800013039C000083DC0000841C0000845C0000895
S3150800014049C000084DC0000851C0000855C0000845
S3150800015059C000085DC0000861C0000865C00008F5
S3150800016069C000086DC0000871C0000875C00008A5
S3150800017079C000087DC0000881C0000885C0000855
S3150800018089C0000800F5E0700268914203D343680D
S315080001909A18914202D380680028F5D17047DFF893
S315080001A02007016899B94FF48031816004224FF421
S315080001B0805141604FF0FF31C16001610421416106
S315080001C0DFF80017C1F8BC21DFF8FC160160012032
S315080001D0704701F1080313F0070305D001F108037E
S315080001E0C3F1080303F007035918D21A8161C260E4
S315080001F042F001034B60511828224A60DFF8C01606
S315080002000969C16170472DE9F84F044601F10800F4
S3150800021010F0070005D001F10800C0F1080000F051
S31508000220070000EB010B02F1080010F0070005D0EB
S3150800023002F10800C0F1080000F007008618A6EBD6
S315080002400B00A0EB030803EB0B0743F00300CBF806
S315080002500400B74228BF01F0EFF93079C00758BF4C
S3150800026001F0EAF9B8F1100F38BF01F0E5F9A06915
S31508000270864207D1E0684044E060A76140F001008B
S3150800028078605AE16069864208D1A0684044A06057
S31508000290676140F001017960C0514EE1706800F075
S315080002A00301012940F0AD80C0084FEAC0092028A3
S315080002B03BD2D6F808A0F5680090AE4208BF01F018
S315080002C0BBF9564508BF01F0B7F970680099C00830
S315080002D0C000B0EBC10F18BF01F0AEF9009804EBEF
S315080002E0C00000F128018A4508D021698A45C0F076
S315080002F08480DAF80C10B14240F07F80554506D16B
S31508000300009A2068012191408843206077E02830D0
S31508000310854205D0206985426FD3A868B0426CD162
S31508000320CAF80C50C5F808A069E0F568D6F818A010
S31508000330B5420CD0B0682169884223D3C168B1425E
S3150800034004BFA968B1421DD1C560A8601CE006F1CA
S315080003501400056835B906F110000568A5B101E075
S315080003600846056805F114010A68002A02BF05F166
S3150800037010010A68002AF3D12169884202D30021B4
S31508000380016001E001F058F9BAF1000F37D0F069C1
S3150800039004EB800000F5987001688E4209D105606B
S315080003A0280014D1F2696068012191408843606091
S315080003B025E02069824508D3DAF81000B04214BF58
S315080003C0CAF81450CAF8105001E001F035F9B5B171
S315080003D02069854211D3C5F818A0316929B181422F
S315080003E026BF29618D6101F027F9706938B1216945
S315080003F0884202D36861856101E001F01DF94E4427
S31508000400C84470684008400070604FEAD80548F054
S315080004100100786048F80780202D21D204EBC5003A
S3150800042000F12806B146B8F1100F38BF01F004F9FB
S31508000430206820FA05F1C90704D40121A940084318
S31508000440206006E0B068216988422CBF814601F029
S31508000450F3F8B760C9F80C70C7F80890FE606CE04E
S315080004605FEA182008BF002123D0B0F5803F28BFD7
S315080004701F211ED2A0F58071090C01F008018840E1
S31508000480A0F58052120C02F004029040A0F58043B9
S315080004901B0CC1F10E0103F00203891AC91A984010
S315080004A001EBD030C11D28FA01F101F0010101EB81
S315080004B04001F96100227A613A6104EB81006268C1
S315080004C022FA01F300F59870DB0706D4012303FA34
S315080004D001F11143616007601CE01F2900680EBF27
S315080004E000214908C1F1190108FA01F100E0104696
S315080004F04268D208D200424510D0CA0F00EB8202E9
S3150800050002F1100349001A68002AF0D121698B42CA
S3150800051011D31F60B861FF60BF600EE02269816871
S31508000520904228BF914206D3CF608760B960F860D1
S315080005300020B86101E001F07FF80BF10800BDE882
S31508000540F28F2DE9F04F0546DFF87403006883B093
S31508000550884608B9FFF723FEDFF86403806800EBD6
S3150800056008012F31401E21EA0000804580F0A58150
S31508000570D5F8B81141B1D5F8B0218018824280F07B
S315080005809C818142C0F0998101F06AF800281EBF5B
S315080005900446076814F1010F00F08F81D5F8B00101
S315080005A03818C5F8B001D5F8B411814238BF0146EC
S315080005B0C5F8B411A86968BB286908B1844200D295
S315080005C02C61C5F8C041C5F8C4710020C5F8CC0136
S315080005D02021BB48006868624FF0FF302862284631
S315080005E000F128020830D2609260491EF8D1B54859
S315080005F0854203D1A7F12802214625E055F8040CC7
S31508000600C00805EBC000A0F108013819401AA0F18E
S31508000610280219E005F5E071084600E08068B8B1DF
S3150800062042680368D2189442F8D1027B12070FD4A5
S31508000630AA699A420CD3466833449A4208D2B91931
S315080006404160E868A9693A182846FFF7C2FD1FE124
S315080006502869844238BF2C610846391900E0806849
S3150800066080B102688A42FAD1017B09070AD404607C
S3150800067043464168791841602846214603B0BDE8DB
S31508000680F04FC0E5AE6931462846FFF77BFD416865
S315080006900068081801902F3800F1080111F00701C9
S315080006A005D000F10801C1F1080101F0070101EBCD
S315080006B0000906F11000814538BFB14609F1080066
S315080006C0009004F1080109F1180A4FF0000BA7F190
S315080006D0280011F0070105D004F10801C1F108014D
S315080006E001F007010A19401AAA61E86040F0010101
S315080006F0516080182821416071480069E8610098B6
S3150800070010F0070018BF00F097FF1B20C9F8040077
S3150800071005F5E071B1E80C500098A0E80C50C5F852
S31508000720C041C5F8C471C5F8CCB10098C5F8C80170
S31508000730019800E08A460722CAF804200AF1040153
S315080007400A1D0BF1010B8242F4D3BBF1020FB8BFAD
S3150800075000F072FFB14500F09B80A9EB06008119F5
S315080007604FEAD0094A68520852004A6040F001012F
S3150800077071608051B9F1200F1FD205EBC90101F153
S3150800078028042746102838BF00F056FF286820FAA4
S3150800079009F1C90705D4012101FA09F108432860BE
S315080007A006E0A068296988422CBF074600F044FF86
S315080007B0A660FE60B760F4606AE0010A08BF00221E
S315080007C023D0B1F5803F28BF1F221ED2A1F5807223
S315080007D0120C02F008029140A1F580531B0C03F09D
S315080007E004039940A1F58044240CC2F10E0204F0DA
S315080007F00204D21A121BA14002EBD131CA1D20FAFB
S3150800080002F202F0010202EB4102F2610023736177
S31508000810336105EB82016B6823FA02F401F59871DE
S31508000820E40705D401209040184368600E601CE078
S315080008301F2A09680EBF00225208C2F1190200FADF
S3150800084002F200E019464B68DB08DB00834210D051
S31508000850D30F01EB830303F1100452002368002B26
S31508000860F0D12869844211D32660B161F660B6607A
S315080008700EE02A698868914228BF904206D3C6606E
S315080008808E60B060F1600020B06101E000F0D4FE37
S31508000890E868804511D2A0EB0800E86040F0010046
S315080008A0A96908EB0102AA61506048F00300486094
S315080008B003B001F10800BDE8F08F002000F02BBC62
S315080008C010E80020E4E100206859883C2DE9F84F3B
S315080008D0044688460026C8F1000B5FEA182008BFC0
S315080008E0002123D0B0F5803F28BF1F211ED2A0F5D6
S315080008F08071090C01F008018840A0F58052120C9D
S3150800090002F004029040A0F580431B0CC1F10E01D1
S3150800091003F00203891AC91A984001EBD030C11DA9
S3150800092028FA01F101F0010101EB400104EB810015
S31508000930D0F8300130B31F290EBF00224A08C2F191
S31508000940190208FA02F2002300E052004568ED0891
S31508000950ED00A5EB08055D4503D206465FEA050BE3
S315080009600CD045694FEAD27E00EB8E00002D006957
S315080009701CBF85422B460028E7D1184600283AD1E5
S31508000980002E3AD101208840400041420843616860
S31508000990084000F05F8141420840411E080B00F004
S315080009A0100021FA00F2510901F00801CA40930823
S315080009B003F00403DA40550805F002050818EA4072
S315080009C01818C2F3400E2844704422FA0EF108188B
S315080009D004EB8000D0F830010DE008464168C908EC
S315080009E0C900A1EB080159453CBF8B46064601697B
S315080009F00029F2D140690028F0D1002E00F02A81A2
S31508000A00A068A0EB0800834580F02481206986420F
S31508000A10C0F01E817068C00808EB0B09C00008EB1F
S31508000A200605484518BF00F007FEAE4280F0108163
S31508000A30F768D6F818A0B7420CD0B0682169884282
S31508000A4023D3C168B14204BFB968B1421DD1C7609A
S31508000A50B8601CE006F11400076837B906F1100003
S31508000A600768A7B101E00846076807F114010A6894
S31508000A70002A02BF07F110010A68002AF3D121698A
S31508000A80884202D30021016001E000F0D5FDBAF1E9
S31508000A90000F38D0F06904EB800000F59870016803
S31508000AA08E4209D10760380014D1F26960680121C5
S31508000AB091408843606026E02069824508D3DAF8C9
S31508000AC01000B04214BFCAF81470CAF8107001E0DA
S31508000AD000F0B2FDBFB12069874212D3C7F818A04B
S31508000AE0306930B12169884226BF3861876100F0D4
S31508000AF0A3FD706938B12169884202D3786187619C
S31508000B0001E000F099FDBBF1100F09D249F003008E
S31508000B10706009EB0600416841F00101416096E00A
S31508000B2048F0030070604BF0010068604BF805B0B0
S31508000B304FEADB0020281DD204EBC00101F128078B
S31508000B40216821FA00F2BB46D20705D4012202FA2F
S31508000B5000F00843206006E0B868216988422CBF87
S31508000B60834600F069FDBD60CBF80C50C5F808B0A7
S31508000B70EF606CE05FEA1B2008BF002123D0B0F5C8
S31508000B80803F28BF1F211ED2A0F58071090C01F0F5
S31508000B9008018840A0F58052120C02F00402904029
S31508000BA0A0F580431B0CC1F10E0103F00203891A5C
S31508000BB0C91A984001EBD030C11D2BFA01F101F09A
S31508000BC0010101EB4001E96100226A612A6104EB37
S31508000BD08100626822FA01F300F59870DB0706D4F3
S31508000BE0012303FA01F11143616005601CE01F2926
S31508000BF000680EBF00214908C1F119010BFA01F17D
S31508000C0000E010464268D208D2005A4510D0CA0FF2
S31508000C1000EB820202F1100349001A68002AF0D19B
S31508000C2021698B4211D31D60A861ED60AD600EE0AD
S31508000C3022698168904228BF914206D3CD608560BB
S31508000C40A960E8600020A86101E000F0F5FC07E172
S31508000C5000F0F2FC01E12DE9F84F04468846606889
S31508000C6041420840411E080B00F01000C1404A09E5
S31508000C7002F00802D1408B0803F00403D9404D085E
S31508000C8005F002051018E9401818C1F34006284473
S31508000C903018F140081804EB8000D0F8300141689C
S31508000CA0C908C9000646A1EB080A09E008464168D2
S31508000CB0C908C900A1EB080151453CBF8A4606464A
S31508000CC001690029F2D140690028F0D120698642DD
S31508000CD0C0F0C1807068C00808EB0A09C00008EBBC
S31508000CE0060B484518BF00F0A7FC5E4580F0B380A8
S31508000CF0F768B569B7420CD0B0682169884223D332
S31508000D00C168B14204BFB968B1421DD1C760B860B5
S31508000D101CE006F11400076837B906F110000768E9
S31508000D20A7B101E00846076807F114010A68002A16
S31508000D3002BF07F110010A68002AF3D12169884227
S31508000D4002D30021016001E000F076FC002D34D0CA
S31508000D50F06904EB800000F5987001688E4209D1AD
S31508000D600760380011D1F269606801219140884313
S31508000D70606022E02069854205D32869B04214BF25
S31508000D806F612F6101E000F057FCB7B12069874217
S31508000D9011D3BD61306930B12169884226BF3861F7
S31508000DA0876100F049FC706938B12169884202D32D
S31508000DB07861876101E000F03FFCBAF1100F09D2B3
S31508000DC049F00300706009EB0600416841F0010133
S31508000DD041603FE048F0030070604AF00100CBF83C
S31508000DE004004AF80BA0D4F808804FEAD805202D4D
S31508000DF028BF00F021FCB8F1000F27D0D4F81490D2
S31508000E00009504EBC50000F128052F46B8F1100F30
S31508000E1038BF00F011FC2068009920FA01F1C907D3
S31508000E2005D4009A012191400843206006E0A8688D
S31508000E30216988422CBF074600F0FEFBC5F80890DA
S31508000E40C7F80C90C9F80870C9F80C50C4F808A07F
S31508000E50C4F814B004E000F0EFFB0020BDE8F28F00
S31508000E6006F10800BDE8F28F2DE9F04F83B005467C
S31508000E70C046C046DFF8B847F52D80F001810B2D36
S31508000E8031BF102705F10B00C008C7002068FE080F
S31508000E90F04010F0030F42D0C04300F0010086195D
S31508000EA004EBC60000F12808F700D8F8085068686F
S31508000EB0C008C000B84218BF00F0BEFBD5F80890BD
S31508000EC0454508BF00F0B8FB4D4508BF00F0B4FB28
S31508000ED06868C008C000B84218BF00F0ADFBC84536
S31508000EE005D120680121B140884320600DE02069C2
S31508000EF0814508D3D9F80C00A84204D1C8F808904F
S31508000F00C9F80C8001E000F097FB47F00300686021
S31508000F1078190835416841F001014160F8E0A16897
S31508000F20B94280F0BF80002800F0A180012505FAAB
S31508000F3006F149004A42B040114308404142084080
S31508000F40411E080B00F01000C1404A0902F00802D1
S31508000F50D1408B0803F00403D9404E0806F0020678
S31508000F601018F1401818C1F340083018404421FA07
S31508000F7008F101EB000804EBC80000F128094FEA64
S31508000F80C80AD9F808607068C008C000504518BF7C
S31508000F9000F052FBD6F808B04E4508BF00F04CFBEF
S31508000FA05E4508BF00F048FB7068C008C0005045A1
S31508000FB018BF00F041FBD94505D1206805FA08F1AC
S31508000FC0884320600DE02069834508D3DBF80C00D0
S31508000FD0B04204D1C9F808B0CBF80C9001E000F093
S31508000FE02BFB47F003007060AAEB0708B8190190BD
S31508000FF048F001014160019848F80080A7684FEA67
S31508001000D70ABAF1200F28BF00F016FB47B3CDF870
S3150800101000A004EBCA00D4F8149000F1280AD346BD
S31508001020102F38BF00F008FB2068009920FA01F15C
S31508001030C90705D4009905FA01F10843206007E0BD
S31508001040DAF80800216988422CBF834600F0F4FAD2
S31508001050CAF80890CBF80C90C9F808B0C9F80CA0E3
S31508001060C4F8088006F108050198606150E06068D8
S31508001070C0B339462046FFF7EEFD050012D047E01B
S3150800108015F1400F28BF4FF0FF370BD205F10B00C3
S31508001090C008C700606828B139462046FFF716FC25
S315080010A0050035D1A168B9421CD3CA1B6069102A4C
S315080010B00AD339186161A26042F001034B605250AD
S315080010C047F0030141600AE00022A260626141F034
S315080010D00302426009184A6842F001024A6000F1B8
S315080010E0080515E0E06887420DD2C01BA169E060DB
S315080010F07A18A26140F00100506001F1080547F036
S315080011000300486004E039462046FFF71AFA054608
S31508001110C046C046284603B0BDE8F08F00B9704700
S315080011202DE9F047A0F10804C046C046DFF800558F
S3150800113028698442C0F07582616801F00302012AB9
S3150800114000F06F82CA084FEAC20808EB0409CA070A
S3150800115037D4226811F0030F00F0658251420C194A
S3150800116090448442C0F05D8269698C4200F0D88060
S31508001170D608202E70D2D4F80CA0A768544508BF0C
S3150800118000F05AFABC4208BF00F056FA6068C00878
S31508001190C000B0EBC60F18BF00F04EFA05EBC6004C
S315080011A000F128018F4205D029698F4251D3F96889
S315080011B0A1424ED1BA453DD128680121B1408843A4
S315080011C028604C4580F02D82D9F80400C10740F10B
S315080011D02882810700F17A81A969894540F0B5809E
S315080011E0E868AC614044E86040F001016160696903
S315080011F08C4202D100216961A960E969814280F0C7
S315080012001282DFF83004006808B9FEF7C8FFA9693A
S31508001210002900F00882E868292824BF2846FEF736
S31508001220B1FFE869E968884280F0FD814FF0FF3038
S31508001230E861F8E12830824506D02869824508D356
S31508001240DAF80800A04204D1C7F80CA0CAF808705A
S31508001250B7E700F0F1F9B4E7E768A669A7420BD04B
S31508001260A168814222D3C868A04204BFB868A042D8
S315080012701CD1CF60B9601BE004F114010F6837B9BF
S3150800128004F110010F689FB101E011460F6807F1DC
S3150800129014021368002B02BF07F110021368002B13
S315080012A0F3D1814202D30020086001E000F0C4F9BE
S315080012B0002E86D0E06905EB800000F5987001687D
S315080012C08C4209D10760380011D1E26968680121AA
S315080012D091408843686074E72869864205D3306977
S315080012E0A04214BF7761376101E000F0A5F9002F2D
S315080012F03FF467AF28698742ABD3BE61216929B13C
S31508001300814226BF39618F6100F096F9606900282D
S315080013103FF457AF296988429BD37861876150E7C4
S3150800132099F8040000F0030003287FF44AAFC5F8D3
S315080013300880D9F8040040084000C9F8040048F0BD
S315080013400100606048F804806DE16969894508D143
S31508001350A8686C614044A86040F0010161600051D2
S3150800136061E1C008C0004FEAD00A8044BAF1200FF4
S3150800137036D2D9F80C70D9F80860B94508BF00F01C
S315080013805BF9B14508BF00F057F9D9F80400C00861
S31508001390C000B0EBCA0F18BF00F04EF905EBCA0043
S315080013A000F128018E4206D029698E42C0F081805C
S315080013B0F16849457DD1B74206D12868012101FA6D
S315080013C00AF18843286076E02830874205D02869E4
S315080013D087426ED3B86848456BD1F760BE606AE04D
S315080013E0D9F80C70D9F818604F450DD0D9F808000F
S315080013F02969884223D3C168494504BFB968494564
S315080014001DD1C760B8601CE009F11400076837B938
S3150800141009F110000768A7B101E00846076807F157
S3150800142014010A68002A02BF07F110010A68002A97
S31508001430F3D12969884202D30021016001E000F056
S31508001440FBF8002E37D0D9F81C0005EB800000F514
S315080014509870016889450AD10760380012D1D9F811
S315080014601C206868012191408843686023E0286948
S31508001470864205D33069484514BF7761376101E074
S3150800148000F0DAF8BFB12869874212D3BE61D9F8ED
S31508001490101029B1814226BF39618F6100F0CCF85E
S315080014A0D9F8140038B12969884202D3786187616E
S315080014B001E000F0C1F848F00100606048F80480D7
S315080014C0686984420BD1C5F80880ACE04008400042
S315080014D0C9F8040048F00100606048F804804FEA43
S315080014E0D807202F22D205EBC70000F128094E465F
S315080014F0B8F1100F38BF00F09FF8286820FA07F1F6
S31508001500C90704D40121B9400843286007E0D9F87F
S315080015100800296988422CBF064600F08DF8C9F8EC
S315080015200840F460A660C4F80C907CE05FEA1820D6
S3150800153008BF002123D0B0F5803F28BF1F211ED247
S31508001540A0F58071090C01F008018840A0F58052C9
S31508001550120C02F004029040A0F580431B0CC1F166
S315080015600E0103F00203891AC91A984001EBD0301C
S31508001570C11D28FA01F101F0010101EB4001E16109
S3150800158000226261226105EB81006A6822FA01F392
S3150800159000F59870DB0706D4012303FA01F111431D
S315080015A0696004601CE01F2900680EBF0021490815
S315080015B0C1F1190108FA01F100E010464268D208A3
S315080015C0D200424510D0CA0F00EB820202F1100386
S315080015D049001A68002AF0D129698B4211D31C6088
S315080015E0A061E460A4600EE02A698168904228BF81
S315080015F0914206D3CC608460A160E0600020A061BF
S3150800160001E000F019F8286A401E28620BD1D5F8C7
S31508001610C80100E080680028FCD14FF0FF3028623E
S3150800162001E000F009F8C046C046BDE8F0870000B2
S31508001630E4E1002010E80020012000F027B850F867
S31508001640041B61B150F8042BD30744BFA9F1010369
S315080016509A18002342F8043B091FFAD1EFE77047AE
S315080016600749086808B1002070470648C008C00046
S3150800167008600549C908C900091A0160704700BF12
S3150800168020E900203F69012038E9012080B5C046DD
S31508001690C046024A11001820ABBEFBE7260002002E
S315080016A02DE9F04F83B004000D006068DFF8241CB4
S315080016B00860DFF8200C0068008801F0C9F9C0F35B
S315080016C0032080B2616811EB8000DFF80C1C08600B
S315080016D0DFF8000C0068008801F0BAF9C0F30320AF
S315080016E080B2800000B2414209B2200001F0C5FA7A
S315080016F0002802D12089142803D2200001F00BFB10
S3150800170040E22900DFF8CC0B0068103001F059FCE4
S31508001710002810D15FF0704001F0ADF983465FF004
S31508001720604001F0A8F9DFF8AC1B096809691BEAF3
S315080017300101814203D1200001F0EDFA22E2DFF82F
S31508001740980B0068808901F083F980B2000B814606
S315080017505FFA89F97FF0030000FB09F109B220005E
S3150800176001F08BFA002803D0200001F0D4FA09E230
S31508001770DFF8640B0068008801F06AF9DFF8581B87
S3150800178009680880DFF8500B0068408801F060F9A6
S31508001790DFF8441B09684880DFF83C0B006840689E
S315080017A001F069F9DFF8301B09684860DFF82C1B7F
S315080017B00860DFF8240B0068806801F05CF9DFF840
S315080017C0181B09688860DFF8181B0860DFF8080B23
S315080017D00068C08901F03CF9DFF8FC1A0968C8817D
S315080017E0DFF8F40A0068808901F032F910F03F004A
S315080017F0DFF8F01A0870DFF8EC0A007803210842CF
S3150800180001D0012000E0002021894018DFF8D81A0D
S31508001810088000200700DFF8D40A00680600002EBA
S315080018202AD0308CDFF8B01A09680988884220D196
S31508001830308BDFF8A41A09684988884219D170687C
S31508001840DFF8901A0968C968884212D13068DFF84B
S31508001850841A0968096988420BD1002F08D0F068F4
S31508001860F860DFF8880A0068F060DFF8800A06602A
S3150800187002E03700F668D2E7002E63D1DFF8700A77
S3150800188000680600002E24D0308CDFF84C1A096850
S31508001890098888421BD1308BDFF83C1A09684988C9
S315080018A0884214D17068DFF82C1A0968C96888421A
S315080018B00DD13068DFF81C1A09680969884206D113
S315080018C0300000F004FA200001F025FA5AE1F66823
S315080018D0D8E700200700DFF81C0A00688046B8F140
S315080018E0000F2FD0B8F1000F0BD0D8F80000002851
S315080018F007D0D8F80000DFF8DC19096809698842BA
S315080019001CD1B8F81800DFF8D01909684988884248
S3150800191014D1002F0BD0D8F80C00F860DFF8D409E2
S315080019200068C8F80C00DFF8CC09C0F8008040460B
S3150800193000F02AF9200001F0EEF923E14746D8F82D
S315080019400C80CCE7002E00F0F280DFF8AC0900210D
S315080019500160DFF8A40921898181DFF89C096168A3
S315080019608160DFF894094460DFF88C09DFF86819AC
S3150800197009680161DFF8840900210160DFF8800940
S3150800198000210170F06F00281FD0D6F884000028C7
S3150800199008D00023F26F31007069D6F884C0E0479A
S315080019A0824606E00023F26F3100002001F048FE6F
S315080019B082464FFA8AFABAF1000F02D10020F06780
S315080019C003E0200001F0A7F9DCE0DFF8380906603B
S315080019D0300000F0D6F982464FFA8AFA1AF1050F56
S315080019E000F09280DFF818090078000713D5D6F8BA
S315080019F09000002805D07FF005017069D6F8902080
S31508001A0090473100DFF8E40801F0F9FE31000220C2
S31508001A1001F0B7FF78E0DFF8E8080078C00609D5D6
S31508001A203100DFF8C80801F0EAFE3100022001F0B3
S31508001A30A8FF69E000208246B6F86C0000280ED0A0
S31508001A40D6F88000002808D0B6F86C2031007069F6
S31508001A50D6F880309847824601E000208246DFF8B3
S31508001A609C08006800282FD0DFF87808007800075F
S31508001A7009D5DFF888080068407B50F00100DFF8D8
S31508001A807C1809684873D6F8840000280AD0002311
S31508001A90DFF86808026831007069D6F884C0E04744
S31508001AA0824608E00023DFF8540802683100002067
S31508001AB001F0C6FD82464FFA8AFABAF1000F03D042
S31508001AC0DFF838080068F067DFF834080078800621
S31508001AD013D5D6F88400002808D000230022310048
S31508001AE07069D6F884C0E047824606E000230022E3
S31508001AF03100002001F0A4FD8246DFF80808002125
S31508001B000160300002F00DFADFF8F80700210160E5
S31508001B10DFF8E4074068002834D0DFF8DC074068BF
S31508001B2001F0F9F8DFF8D007002141602AE0DFF874
S31508001B30A8070068808900F08BFF40071FD4DFF8EC
S31508001B409807006800880190DFF88C0700684088CD
S31508001B500090DFF88007006810F10C03DFF87407BF
S31508001B60006810F11002DFF874070068DFF87817CC
S31508001B7009880918DFF86807006802F041FB2000A9
S31508001B8001F0C9F8BDE8F78F7CB50400DFF8540703
S31508001B900078C00621D5DFF8400700680088019064
S31508001BA0DFF83407006840880090DFF828070068E7
S31508001BB010F10C03DFF81C07006810F11002DFF8BB
S31508001BC01C070068DFF8201709880918DFF81007CE
S31508001BD00068401C02F014FB77E0DFF8080700787D
S31508001BE0800772D5607C01F091FD0500002D02D1B9
S31508001BF05FF0FF306AE0DFF8DC0600681030002886
S31508001C0001D1002003E0DFF8CC06006800692860EF
S31508001C10208B2883DFF8BC0600680C30002801D129
S31508001C20002003E0DFF8AC060068C0686860DFF8EB
S31508001C30A80600680088288403202874DFF89C0614
S31508001C400068401C6862686AE862DFF88C0600680B
S31508001C50C089A5F85C00B5F85C00A5F85400DFF863
S31508001C607C060068401E286660696861E069E8616C
S31508001C70208940F2991108402881DFF8700600682B
S31508001C80E860DFF868060560280000F05FFE291D99
S31508001C90288F01F0FCFD2887012001900020009084
S31508001CA0122300220021280001F0DBFE060076B28E
S31508001CB0002E06D00021280001F050FA300040B26C
S31508001CC004E0280002F02DF900E0002076BD1CB5DE
S31508001CD00400DFF810060078400701D500204FE021
S31508001CE0DFF800060078800731D5DFF8F0050068D0
S31508001CF0616A401A002833D4DFF8E0050068616A93
S31508001D00401A218D401A01282ADADFF8CC05006826
S31508001D1000880190DFF8C005006840880090DFF869
S31508001D20B405006810F10C03DFF8A805006810F187
S31508001D301002DFF8A8050068DFF8AC15098809184D
S31508001D40DFF89C05006802F05BFA002018E0DFF86F
S31508001D5094050078C00703D5DFF8C00C0068206337
S31508001D60DFF884050088002809D094F8220050F08E
S31508001D70020084F82200200002F0D3F800E00020D8
S31508001D8016BD2DE9FC410400002600200700DFF8F7
S31508001D9054050078400733D5207C022808D1DFF89F
S31508001DA040050068A16D884214D10120060011E0A3
S31508001DB0DFF828050068616A401A00280AD4DFF8A7
S31508001DC01C050068616A401A218D401A012801DA4B
S31508001DD001200600F6B2002E10D0DFF824050078A0
S31508001DE050F00800DFF81815087094F8220010F073
S31508001DF0FE0084F822007FF0050068E2002066E213
S31508001E00DFF8E0040078800710D5207C02280DD082
S31508001E10207C03280AD094F8220050F0020084F8A7
S31508001E202200200002F07DF8002050E2DFF8EC0BDB
S31508001E3000682063002084F89D00200000F086FDDD
S31508001E40207C022814D0C0F04182042800F02881A2
S31508001E50C0F0A880062800F09E81C0F034810828CA
S31508001E6000F0DE81C0F01C81092800F01B822DE2FB
S31508001E70DFF8AC0B007810F0120012286CD1A06FB6
S31508001E800069406800F0F7FDDFF854140968401C43
S31508001E90814261D1B4F86E00401CA4F86E00DFF8E8
S31508001EA03C040068401C6062606AE062DFF8300447
S31508001EB00068E064DFF820040068C089A4F85C00C4
S31508001EC0DFF818040068401E206604202074211DCF
S31508001ED0208F01F0DCFC2087208F0A214843A4F8D4
S31508001EE05400B4F85200012803D1208F80B2400074
S31508001EF000E0208FA4F85200B4F87000401EA4F841
S31508001F007000A06F05002868A067A06F002803D19D
S31508001F105FF0FF30E08604E00020E086002084F8C9
S31508001F204A00280001F079FBD4F88800002807D079
S31508001F30002221006069D4F888309847070001E03C
S31508001F400020070094F8220050F0020084F82200CE
S31508001F50200001F0E6FF24E0DFF8C40A0078C00696
S31508001F601FD5DFF87403006800880190DFF868035E
S31508001F70006840880090DFF85C03006810F10C03E5
S31508001F80DFF85003006810F11002DFF8500300680C
S31508001F90DFF8541309880918DFF84403006802F0CB
S31508001FA02FF993E1DFF8780A0078C00669D5CC489E
S31508001FB00068E16C401A401E002848D4C8480068EA
S31508001FC0A16D401A012842DA04202074E06900282D
S31508001FD006D0002221006069E3699847070001E0FE
S31508001FE0002007007FB2002F06D00121200001F053
S31508001FF0B5F87FF004006AE1B4F852008046200084
S3150800200000F082F9B4F86C00002804D0B4F86C002B
S31508002010401EA4F86C001FFA88F8B8F1010F03D126
S31508002020208F80B2400000E0208FA4F85200B44808
S315080020300078800633D594F8220050F0020084F820
S315080020402200200001F06DFF0720207427E0A24837
S31508002050006800880190A0480068408800909D4864
S31508002060006810F10C039B48006810F110029B48A9
S3150800207000689D49098809189948006802F0C0F85F
S315080020800DE0DFF89C090078800708D593480068BA
S31508002090616A491E884202D1200002F030F915E132
S315080020A0200000F031F99648007880060AD594F8A1
S315080020B0220050F0020084F82200200001F031FFCF
S315080020C00720207402E1200000F01EF98C480078F1
S315080020D0800653D5DFF848090078C00642D58048FF
S315080020E00068A16D88423DD194F8220050F00200A4
S315080020F084F82200200001F014FF200001F062FBA2
S315080021007A480068A04205D178480068C0687749CF
S3150800211008601DE0DFF80C09744909680160DFF8FA
S3150800212004090068002813D0DFF8F8080068C068BA
S31508002130A04205D1DFF8EC080068E168C16007E055
S31508002140DFF8E0080068C068DFF8D8180860E6E736
S315080021500020E0600A20207465480068E060644852
S31508002160046017E094F8220050F0020084F8220078
S31508002170200001F0D6FE082020740BE0DFF8A00846
S315080021800078C00606D556480068A16D884201D178
S31508002190062020749AE0200000F0B6F85848007827
S315080021A080063CD594F8220050F0020084F82200FC
S315080021B0200001F0B6FE200001F004FB4B48006841
S315080021C0A04205D149480068C068484908601DE032
S315080021D0DFF85008454909680160DFF848080068D3
S315080021E0002813D0DFF83C080068C068A04205D173
S315080021F0DFF830080068E168C16007E0DFF8240806
S315080022000068C068DFF81C180860E6E70020E06090
S315080022100A20207436480068E0603548046055E0B6
S31508002220200000F071F8DFF8F8070078C00638D506
S315080022302B480068A16D884233D1200001F0C2FA0C
S315080022402A480068A04205D128480068C06827497E
S3150800225008601DE0DFF8CC07244909680160DFF84B
S31508002260C4070068002813D0DFF8B8070068C068FC
S31508002270A04205D1DFF8AC070068E168C16007E055
S31508002280DFF8A0070068C068DFF898170860E6E777
S315080022900020E0600A20207415480068E0601448B1
S315080022A0046013E0200000F02FF8DFF874070078C8
S315080022B0C0060AD50A480068A16D884205D11048AB
S315080022C0007850F010000E490870FFE70020BDE8BE
S315080022D0F681000008E9002004E900200CE9002046
S315080022E010E900202FE9002028E90020F8E800205E
S315080022F0FCE80020F4E8002028E8002014E9002083
S3150800230030E9002018E900202DE9F84F04005FF0B5
S315080023100009DFF80C070078C00640F1DC81B4F844
S315080023205C00616E08180090206EDFF8FC160968DC
S31508002330401A00281AD4206EDFF8EC16096888427D
S3150800234006D1606EDFF8E4160968401A00280DD435
S31508002350606EDFF8D8160968884220D1B4F85C00A8
S31508002360DFF8CC160968C989884218D2DFF8C00692
S315080023700068C089A4F85C00DFF8AC06006820662F
S31508002380DFF8A80600686066B4F85C00002806D086
S3150800239094F89C00002802D0002084F89C00DFF8FE
S315080023A08C060068E16C401A012849DA0020A4F876
S315080023B06C00DFF880060088002839D1606EB4F812
S315080023C05C1008180099884232D1B4F93600002802
S315080023D02ED4E06CDFF854160968884228D101200B
S315080023E0814694F8500094F85010491C884204DA43
S315080023F094F85000401C84F8500094F850000428C3
S315080024000FDBB4F85200B4F85210228F511889B273
S3150800241088420DD2B4F85200218F0818A4F8520049
S3150800242006E094F85000032802D1200001F090FF3E
S31508002430B9F1000F40F0C580002084F85000C0E0D4
S31508002440DFF8E8050068E16C401A401E002800F134
S31508002450B580DFF8D8050068A16D401A012880F21A
S31508002460AD8094F82200400709D594F8220010F0B0
S31508002470FB0084F82200B4F85400A4F852000020A7
S3150800248084F84A00B4F94400B4F9461011EBE000A8
S31508002490A4F84800DFF894050068E16C401AA4F82F
S315080024A06C00B4F86E00B4F86C100818A4F86E0046
S315080024B0002084F85000DFF874050068E064207C8A
S315080024C0042826DBB4F85200B4F8541088420FD218
S315080024D0B4F85200B4F85210228F511889B28842C3
S315080024E017D2B4F85200218F0818A4F8520010E049
S315080024F0B4F85200218F228F5143B4F8522091FB31
S31508002500F2F10818B4F8521080B2814201D2A4F848
S315080025105200A06F002844D0A06F0069406800F000
S31508002520AAFA8246A06F0069808900F091FA032111
S31508002530084201D0012000E00020A16F8989C0B2BD
S31508002540401810EB0A00DFF8E4140968401A01285D
S3150800255027DAA06F0500A06F0068A067686800F01A
S3150800256012FCB4F86C1000290AD02869808900F09A
S315080025706FFAC00704D5B4F86C00401EA4F86C00C6
S31508002580B4F870A0686800F0FEFBBAEB0000A4F887
S315080025907000280001F041F8B4F870000028B8D09F
S315080025A0B7E7A06F002803D15FF0FF30E08601E0AF
S315080025B00020E086002084F8340002E00020A4F819
S315080025C06C00606F00284BD0606F0069406800F0AF
S315080025D052FA8246606F0069808900F039FA032151
S315080025E0084201D0012000E00020DFF84014096805
S315080025F0B1EB0A01626F9289C0B28018081A0028E6
S315080026002ED4DFF828040068A16D401A012827DABD
S31508002610606F0500606F00686067686800F0B3FB6C
S31508002620B4F86C1000290AD02869808900F010FADD
S31508002630C00704D5B4F86C00401EA4F86C00B4F8C2
S3150800264070A0686800F09FFBBAEB0000A4F8700061
S31508002650280000F0E2FFB4F870000028B1D0B0E717
S31508002660E06B002837D0206CDFF8C0130968401AE1
S31508002670002830D5DFF8A4030068E16B401A8046CD
S315080026800FFA88F8B4F94400B8EBE008B4F8440047
S3150800269018EB0000A4F844000FFA88F8B8F1000F08
S315080026A003D50FFA88F8D8F100080FFA88F8B4F9B4
S315080026B04600B8EBA008B4F8460018EB0000A4F8EA
S315080026C04600B4F94400B4F9461011EBE000A4F84A
S315080026D048000020E063DFF85C030088002800F06B
S315080026E01B81606ADFF840130968401A401E0028FB
S315080026F048D4606ACC490968401ACE490988401A04
S31508002700401C01283EDA606AC7490968401A070072
S31508002710C94840680600C84840684089B84217DA80
S31508002720C54840680089C01B83467089B84207DAE5
S3150800273070893F1AA6F808B0002070813668F4E759
S31508002740794209B2300000F098FA002807D006E06E
S31508002750794209B2B848406800F08FFA0028B648AE
S3150800276071688160B4488089616AAF4A1268891ABB
S31508002770401AB1498881606AAB490860AE4909695F
S3150800278048600EE0A8480068616A401A002808D523
S3150800279094F8220050F0020084F82200200001F08C
S315080027A0C0FBA1480068616A401A002800F1B080A1
S315080027B09D480068616A401A218D401A401C01280C
S315080027C080F2A680606A98490968884240F09C8031
S315080027D099480069808900F03BF90321084201D035
S315080027E0012000E0002094498989C0B24018914927
S315080027F00880208D8F490988884243D28E4800690F
S31508002800808900F025F9C00716D54FF6C07000F08C
S3150800281019F9824688480069808900F019F910F08C
S315080028203E0000F00FF98449096989891AEA01010D
S3150800283008438149096988817F48218D81817E48BD
S315080028400069808900F004F9800704D57A488089F0
S31508002850401E79498881784881897748406800F020
S31508002860D6F975480069808900F0F2F80321084214
S3150800287001D0012000E000206F498989C0B24018C4
S315080028806C490880684800686A49098808186062BF
S31508002890208D68490988401A2085200000F0B9FC77
S315080028A0654840680089002806D06348406863493F
S315080028B008606148002141605F480069808900F02E
S315080028C0C7F8C00705D55E48007850F020005C4977
S315080028D0087094F82200C0070FD594F8220010F06B
S315080028E0FE0084F8220094F8220050F0020084F8D2
S315080028F02200200001F015FB05E094F8220050F0B4
S31508002900010084F822001FE0200001F0DAFA1BE03B
S31508002910200001F0D6FA17E043480068616A401AB9
S31508002920002808D440480068616A401A218D401A78
S31508002930401C012808DB94F8220050F0020084F8B5
S315080029402200200001F0EDFABDE8F18F2DE9F843E9
S315080029500400374800681430804635480068808986
S3150800296000F076F880B2000B80B2062853DB3048B8
S315080029700068808900F06CF880B2000B401F800068
S31508002980060000200500ADB2B6B2B54243D2ADB2DC
S3150800299015F8080081465FFA89F9B9F1000F04D0E5
S315080029A0B9F1020F04D001D328E034E06D1CEAE740
S315080029B0ADB215EB08004078042804D1B6B2ADB222
S315080029C0281D864200DA26E0ADB215EB08008078AD
S315080029D0ADB215EB0801C97851EA00200700BFB26D
S315080029E040F2B550874202DABFB2002F02D140F258
S315080029F0B45000E0380020872D1DC4E7ADB215EBB2
S31508002A0008004078002806D0280080B210EB08009D
S31508002A1040784519B7E7BDE8F1830000ECE80020E7
S31508002A202FE9002000E900200CE9002010E9002029
S31508002A3004E9002028E9002028E8002014E90020FD
S31508002A4030E9002080B2010A51EA002080B27047BE
S31508002A5010B50400200080B2FFF7F4FF10BD10F493
S31508002A607F41090251EA0061020A12F47F421143CA
S31508002A7051EA1060704710B504002000FFF7EFFF19
S31508002A8010BD2DE9F84F04008B461500002082463C
S31508002A90E4B2002C05D0022C07D004D3032C07D0AF
S31508002AA007E01AF1140A1AF1140A1AF10E0A02E0DA
S31508002AB001E00020A9E0EDB2002D68D0022D00F05B
S31508002AC08B80C0F08980032D40F09880082000F0A4
S31508002AD044FF0600002E01D1002096E03573002041
S31508002AE030601FFA8AFA1AEB06001030C01C8008FC
S31508002AF080007060A6F808B01FFA8BFB1FFA8AFAE6
S31508002B001AF1030030F00300D0F50070834501DAAE
S31508002B10584606E01AF103004FF6FC710840D0F556
S31508002B20007070810120F081B0461FFA8BFB708916
S31508002B30BBEB00008146B9F1010F27DB082000F046
S31508002B400CFF0700002F04D1300000F0E4F8002045
S31508002B505BE03D730020787300203860C8F8007089
S31508002B60A7F80890484680B2B0F5007F01DA4846D3
S31508002B7001E04FF40070788117F1100078600120A9
S31508002B80F8817889B9EB0009B846D4E738E01AF134
S31508002B9013004FF6FC7108401FFA8BFB1BF103016B
S31508002BA031F00301081880B201F0A7FD0600002ED7
S31508002BB001D1002029E01FFA8AFA1AEB0600103024
S31508002BC0C01C800880007060A6F808B0A6F80AB095
S31508002BD000203060357313E0072000F0BEFE0600C3
S31508002BE0002E01D1002010E000207060A6F808B081
S31508002BF0A6F80AB000203060357301E0002004E032
S31508002C000120F081002070733000BDE8F28F2DE9B5
S31508002C10F04104000D002089ADB285422BD2ADB239
S31508002C202089281A80462F0026007089BFB2B8422C
S31508002C3007D270893F1A308918EB00003081366850
S31508002C40F3E7307B00280BD17089BFB2874207D0E3
S31508002C507068801B391889B2300001F0B0FC060094
S31508002C607781708930813068002802D0306800F09A
S31508002C7052F800203060BDE8F08170B4020009B255
S31508002C80002901D0002A01D1002042E009B200291A
S31508002C9009D509B2484205005089ADB2A84201D209
S31508002CA0012036E000E00D00107B030050680400A8
S31508002CB09BB2002B02D09BB2032B0CD109B248421F
S31508002CC0566880195060506812F11006B04219D241
S31508002CD0546001201DE09BB2022B02D09BB2012B4F
S31508002CE00ED109B2002909D55089ADB2A84205D33B
S31508002CF009B2484256688019506003E0012008E08E
S31508002D00012006E05089081850811089081810819A
S31508002D10002070BC70472DE9F0410400002C01D159
S31508002D2000202EE000200700002C28D0E089401E55
S31508002D30E08180461FFA88F8B8F1000F1CD1206898
S31508002D400600207B0500ADB2032D04D12100082022
S31508002D5000F017FE0DE0ADB2012D02D0ADB2022D86
S31508002D6004D12100072000F00CFE02E0200001F04B
S31508002D700AFC7F1C3400D7E700200400D4E738009B
S31508002D80C0B2BDE8F081010000221000002902D07F
S31508002D90401C0968FAE7C0B27047002802D0C1890A
S31508002DA0491CC181704710B4002801D0002900D100
S31508002DB00EE002001368002B05D013890C89E3186E
S31508002DC013811268F6E713890C89E31813811160D9
S31508002DD010BC704738B504000D0029002000FFF725
S31508002DE0E2FF2800FFF7D9FF31BD2DE9F0410400C5
S31508002DF00D0000275FF00008002C05D0002D03D039
S31508002E0020892989884202D27FF009004AE0608930
S31508002E10BFB2C01B69891FFA88F8B1EB080188425E
S31508002E2004DB6889B0EB0800060002E06089C01B75
S31508002E300600B6B232001FFA88F8686818EB000177
S31508002E40BFB26068381801F0D9FCF71916EB080804
S31508002E506089BFB2874202D10020070024686889CA
S31508002E601FFA88F8804502D3002080462D68002D79
S31508002E7009D068892989884205D12868002802D09E
S31508002E807FF008000EE0002C09D06089218988426D
S31508002E9005D12068002802D07FF0080002E0002D46
S31508002EA0B5D10020BDE8F0812DE9F84F04000D00EA
S31508002EB016001F005FF0000B002C01D1002042E035
S31508002EC0002D01D100203EE000208146002C01D0D3
S31508002ED0002D01D1002036E0A046B6B2002E30D033
S31508002EE0B8F1000F2DD0BFB2002F08D0B8F80A00ED
S31508002EF0BFB2874203D3B8F80A003F1A1EE0B8F8F3
S31508002F000A00C01B8246B6B21FFA8AFA564500D294
S31508002F10B2461FFA8AFA5246BFB2D8F804003918E0
S31508002F201FFA89F919EB050001F068FC1AEB0B0B7F
S31508002F301AEB0909B6EB0A0600200700D8F8008044
S31508002F40CBE7584680B2BDE8F28F2DE9F04704007A
S31508002F500D001600B1465FF0000A002C01D10020D2
S31508002F602DE0002D01D1002029E0002C05D0002DF0
S31508002F7003D02089B6B2B04202D27FF009001EE023
S31508002F8027001FFA89F9B9F1000F17D0C8467889C2
S31508002F901FFA88F8404501D2788980461FFA88F8D2
S31508002FA042461FFA8AFA1AEB0501786801F026FCF0
S31508002FB0B9EB080918EB0A0A3F68E2E70020BDE802
S31508002FC0F08730B4020010680300D843002801D007
S31508002FD0002B01D101201CE091F83100800701D4B3
S31508002FE0002016E04868834201D1002011E01068ED
S31508002FF08C6820404C688D682C40A04208D18868AF
S3150800300033EA00008C68E443A04201D1012000E0C5
S31508003010002030BC7047000080B500F0B4FADFF835
S315080030209C080078401CDFF894180870C00701D582
S3150800303000F034F901BD38B50400207C00280AD018
S3150800304001283FD002284BD0032857D0042860D047
S31508003050072869D073E000200500DFF864080068D7
S31508003060A04207D1DFF858080068C068DFF8501892
S3150800307008601EE0DFF84C08DFF8441809680160AC
S31508003080DFF840080068002813D0DFF83808006821
S31508003090C068A04205D1DFF82C080068E168C16065
S315080030A007E0DFF820080068C068DFF8181808602D
S315080030B0E6E70020E0602100022000F062FC002024
S315080030C0040040E0002005002100DFF8FC0700F0BE
S315080030D096FB2100032000F054FC0020040032E097
S315080030E0002005002100DFF8E40700F088FB210036
S315080030F0022000F046FC0020040024E00121200004
S3150800310000F09FFC05006DB2002D01D1052020744A
S3150800311019E00121200000F094FC05006DB2002D95
S3150800312001D1052020740EE00121200000F089FC61
S3150800313005006DB2002D01D10920207403E000209E
S31508003140050000200400002C05D06DB2002D02D128
S31508003150200000F0E6FE280040B232BD2DE9F04F0F
S3150800316085B004000D00207C0A2809D12100DFF86B
S31508003170600700F044FB2100022000F002FC45E055
S31508003180A06D0600606A0700002C01D1002000E04F
S3150800319020680290201D002801D1002000E0606808
S315080031A00390208B8146208C8046D4F89000824676
S315080031B0606983462100DFF8140700F020FBA06F42
S315080031C0002802D0A06F00F017FA606F002802D01E
S315080031D0606F00F011FA2100022000F0D2FB504681
S315080031E0002803D07FF004015846D047002D0DD0A3
S315080031F01FFA88F8CDF804801FFA89F9CDF80090EF
S3150800320003AB02AA3900300000F0FAFF05B0BDE8AA
S31508003210F08F0100486A0A8D1218088F40F2B553DC
S31508003220984202DB40F2B45000E0088FCB6AD31A0A
S31508003230181A002804D4088D4885C86A101A0CE0A4
S31508003240486ACB6AC01A012802DB0020488503E0D9
S31508003250C86A4B6AC01A48850020704770B50400D2
S315080032600D00208D28182085208D40F6693188426A
S3150800327002DB40F6683020852000FFF7CAFF06000B
S3150800328040F2DA20864208DB94F8220050F0020069
S3150800329084F82200200000F044FE70BD2DE9FC47AA
S315080032A000208246DFF82C060068401CDFF824164A
S315080032B0086000200600DFF8140600680400002CE9
S315080032C000F030810020804600208146207C0228BC
S315080032D006D194F84A00062802D118F101086CE0D4
S315080032E094F84A000C2802D118F1010865E094F810
S315080032F09C0000281FD0D4F89800401CC4F89800F9
S31508003300D4F8980094F89C10DFF8CC25891811F8A1
S31508003310011C884251D30020C4F8980094F89C00F8
S31508003320072804D294F89C00401C84F89C002000CE
S3150800333001F06CF841E0B4F93600002802D4E08EBA
S31508003340401CE086A06F002837D0B4F93600B4F9DF
S315080033504810884231DB207C02280DD0B4F944009D
S31508003360B4F9461011EBE00094F84A10DFF86C2522
S3150800337089568840A4F848000020E086B4F8520030
S31508003380B4F85C10884202D2B4F8527001E0B4F87E
S315080033905C70BFB27808A4F85400B4F85400218FC2
S315080033A0884204D2208F80B24000A4F85400208FAF
S315080033B0A4F85200200000F085FF207C062808D1DA
S315080033C0DFF810050068216B401A292801D318F187
S315080033D00108207A000735D5207C042802D0207CF5
S315080033E007282FD1D4F89400DFF8F41408184FF4FE
S315080033F0FA71B0FBF1F0DFF8DC140968226B891A60
S31508003400884204D218F1010819F101091AE0D4F822
S31508003410940094F89D10DFF8CC2402FB01004FF4C9
S31508003420FA71B0FBF1F0DFF8AC140968226B891A5F
S31508003430884207D2200000F0C6FF94F89D00401C81
S3150800344084F89D00207C032808D1DFF888040068EA
S31508003450216B401A292801D318F10108207C092874
S3150800346008D1DFF870040068216B401AF12801D3EF
S3150800347018F101085FFA88F8B8F1000F2CD020007F
S3150800348000F0A0F9002E02D0E068F06003E0E068E2
S31508003490DFF838140860D4F89000002805D07FF0CB
S315080034A004016069D4F8902090475FFA89F9B9F168
S315080034B0000F09D0208C0190208B0090231D22003C
S315080034C0616AA06D00F09CFEE068050021000220FC
S315080034D000F057FA2C00F2E694F83400401C84F801
S315080034E0340094F8340094F83510884217D3002035
S315080034F084F83400D4F88C00002806D021006069CE
S31508003500D4F88C209047824601E0002082464FFA84
S315080035108AFABAF1000F02D1200000F002FD260057
S31508003520E468CCE600200600DFF8A403006804007F
S31508003530002C26D000208046DFF898030068216B0F
S31508003540401AF12801D318F101085FFA88F8B8F192
S31508003550000F13D0200000F035F9002E02D0E068E5
S31508003560F06003E0E068DFF868130860E0680500CB
S315080035702100022000F005FA2C00D9E72600E468AD
S31508003580D6E7BDE8F38770B5DFF8400300680400A6
S31508003590002C30D0E06F002818D0D4F8840000281A
S315080035A008D00023E26F21006069D4F88460B04730
S315080035B0050006E00023E26F2100002000F040F835
S315080035C005006DB2002D01D10020E06794F82200B5
S315080035D0C0070ED594F8220050F0020084F82200A5
S315080035E0200000F09EFC94F8220010F0FC0084F8FD
S315080035F02200E468CCE770BD70B504000025002CF5
S3150800360008D020680600200000F007F840190500D9
S315080036103400F4E72800C0B270BD38B504000025B0
S31508003620002C0AD06068002803D06068FFF773FB97
S3150800363005002100042000F0A4F92800C0B232BD1C
S31508003640F8B504000D0016001F00002E07D03189BA
S315080036502800FFF703FE3000FFF75DFB06E07FB2A8
S31508003660002F03D12800FFF7E6FC00E00020F2BD9A
S315080036702DE9F04104007F20804600200700002045
S315080036800600924800680500002D18D0687CE4B250
S31508003690844212D3687C5FFA88F880450DD38D483A
S315080036A00068296B401AB84207D38A480068296B14
S315080036B0401A07002E00687C8046ED68E4E7002E75
S315080036C003D001213000FFF749FDBDE8F08170B550
S315080036D000200600002005007D4800680400002C34
S315080036E00DD07C480068216B401AB04205D3794852
S315080036F00068216B401A06002500E468EFE7002DF4
S3150800370003D001212800FFF729FD70BD70B504001C
S31508003710022000F022F90500002D0FD1FFF7D7FF90
S31508003720022000F01AF90500002D07D12000C0B2CA
S31508003730FFF79EFF022000F010F90500002D3FD08C
S31508003740A0220021280001F05FF84020687441F2A9
S31508003750D060A5F86E000020A5F8700040F6683025
S31508003760288540F6683068850020A872FF20E87230
S315080037704FF4067028870620A5F848000020A5F80B
S3150800378044000620A5F846005FF0FF30E8860120D1
S31508003790A5F8520000F071F806006E66AE65EE6494
S315080037A0AE664C4800682863002085F834004E4809
S315080037B0C5F884004D48C5F89400002085F89D009A
S315080037C0280070BD10B50400207C002816D0207C87
S315080037D00A2813D0207C012810D0E06F002804D0D6
S315080037E0E06FFFF798FA0020E067606FFFF704FFC5
S315080037F0A06FFFF701FF00206067A06710BD38B50E
S3150800380004000D002068A84203D12068C068206023
S3150800381016E02C48216801602A48006800280FD065
S3150800382028480068C068A84204D126480068E968A4
S31508003830C16005E023480068C06822490860EBE7D4
S315080038400020E8602800FFF7BDFF287C0A280FD073
S31508003850287C01280CD095F82200C00708D595F8D1
S31508003860220050F0020085F82200280000F059FBDB
S31508003870287C01280020287431BD1D480068154998
S31508003880096808181A490860194800687047F8B5A1
S3150800389004000D00280000F0C1FF0700002F0AD021
S315080038A0388D002807D0388D28380600A4B2B6B25D
S315080038B0B44200D33400200080B2F2BD2EE90020C5
S315080038C0F0E8002000E90020F4E80020F8E80020ED
S315080038D0FCE80020ECE8002014BF0008D8BE000869
S315080038E0B84C0A00F82401004136000800DD6D00D6
S315080038F01808002010B400231A0092B2092A01DA27
S31508003900521CFAE7254B9B089B00180000231A0057
S3150800391092B2092A1FDA92B2214B002443F82240B8
S315080039200023190092B21F4B33F8123089B299421C
S315080039300FD292B21A4B53F82230036092B2184B48
S3150800394043F8220092B2184B33F812301818491C63
S31508003950E8E7521CDCE710BC70470100C9B2092928
S3150800396001DB00200CE0C9B20D4850F82100020026
S31508003970002A04D0C9B20A48136840F8213010005A
S315080039807047002909D00A00C0B2054B53F8203009
S315080039901360C0B2024B43F8202070473330002032
S315080039A0ECE70020C4BE0008B0BE00082DE9F843C5
S315080039B004000D0016001F00D5F80480208BFFF7C1
S315080039C041F8A8F80000208CFFF73CF8A8F8020098
S315080039D0C8F80470606AFFF742F8C8F808004FF69E
S315080039E0C070FFF72FF8B8F80C1010EA010910207C
S315080039F0FFF728F850EA0900A8F80C00608DFFF7D1
S31508003A0021F8A8F80E000020A8F81200B8F80C0053
S31508003A10FFF71EF8042196FBF1F1491D10F03F004F
S31508003A2050EA013080B2FFF70DF8A8F80C00002024
S31508003A30A8F81000606A618D0818E0624046BDE883
S31508003A40F28330B583B004000D00002001900120F8
S31508003A5000902B00DBB200220021200000F001F8C4
S31508003A603EBD2DE9FE4F84B00400BDF814000028C1
S31508003A700BD19DF84400002807D19DF818000321B2
S31508003A80084202D17FF0090018E2BDF814000028A8
S31508003A9005D10498002802D07FF009000EE2B4F898
S31508003AA06E00BDF81410884208D294F8220050F02F
S31508003AB0800084F822005FF0FF30FFE1BDF81400B3
S31508003AC08146049802909DF84400C00701D5042059
S31508003AD000E000209DF84410890701D50C2100E07C
S31508003AE0002108188DF80400A06E8346B4F870000B
S31508003AF080461FFA88F8B8F1080F05DA1FFA88F821
S31508003B004FF6FD70804508DB94F8220050F08000DF
S31508003B1084F822005FF0FF30D0E11FFA88F8B8F188
S31508003B20000FFFD10020050006008246002007008E
S31508003B30002E05D01FFA89F9B9F1000F00F0D380DD
S31508003B40208F9DF80410401A1FFA89F9484504DAAF
S31508003B50208F9DF80410471A00E04F460420FFF70F
S31508003B60FCFE0500002D00F0998100202860002049
S31508003B706860002E01D12E0001E0CAF80050AA465E
S31508003B809DF84000C00722D500229DF80400C119FF
S31508003B9089B20020FEF775FF6860002800F07E8174
S31508003BA06868FFF7F0F810EB0800804604980028CC
S31508003BB009D0BFB23A0002999DF804006B685B68A9
S31508003BC0C01800F01BFE68684068A86031E0002253
S31508003BD09DF8041089B20020FEF753FF686000289C
S31508003BE000F05C816868FFF7CEF810EB08008046A5
S31508003BF01FFA89F9B9F1000F1BD00122390089B2E1
S31508003C000320FEF73EFF0390002805D16868FFF7FA
S31508003C1082F80020686041E118F1010803980299CA
S31508003C2041600298A86003996868FFF7BCF800200D
S31508003C3003901FFA88F8B8F1090F05DA1FFA88F811
S31508003C404FF6FD70804500DB28E1AF8114216868D6
S31508003C50FFF713F8002840F021816868406828615A
S31508003C60208BFEF7EFFE29690880208CFEF7EAFE16
S31508003C70296948805846FEF7F2FE2969486028698E
S31508003C80002141824FF6C070FEF7DCFE296989895A
S31508003C90084000909DF8180080B2FEF7D3FE009900
S31508003CA00843296988819DF84400A8732869808992
S31508003CB0FEF7CEFE9DF80410042291FBF2F1491D91
S31508003CC010F03F0050EA013080B2FEF7BBFE2969CA
S31508003CD08881B9EB0709BFB217EB0B0BBFB2029885
S31508003CE03818029024E7606F002802D10020824627
S31508003CF008E0606F8246DAF80000002802D0DAF899
S31508003D0000A0F8E7BAF1000F00F08480DAF8100096
S31508003D108089FEF79DFE0321084201D0012000E0BC
S31508003D200020BAF80C10C0B24018002872D0DAF891
S31508003D3010008089FEF78CFE032108426AD19DF89F
S31508003D4018000321084203D09DF81800012861D104
S31508003D50208FBAF80C10B289511888425ADB9AF8A3
S31508003D600E00B17B884255D1DAF810004068FEF79C
S31508003D7082FEBAF80C100818009030694068FEF701
S31508003D807AFE0099814245D19DF8040014304142DB
S31508003D9009B27068FEF771FF002840F07F807068EE
S31508003DA0408900280CD170680090706800687060BF
S31508003DB0009800210160B8F101080098FEF7ABFFF2
S31508003DC09DF81800C0070CD5DAF810008089009015
S31508003DD00120FEF737FE00990843DAF810108881AB
S31508003DE00DE07168DAF80400FEF7DDFFBAF80C009A
S31508003DF0B1890818AAF80C003068CAF80000B5425C
S31508003E0003D15546BAF80C00070031000420FFF725
S31508003E10B8FD06E0BAF1000F01D1666701E0CAF8FD
S31508003E2000609DF818000321084204D0BDF814006C
S31508003E30401CADF814009DF81800C00705D594F885
S31508003E40220050F0200084F82200A06EBDF814105D
S31508003E500818A066B4F86E00BDF81410401AA4F845
S31508003E606E00A4F87080B4F870000028002D13D0F6
S31508003E70BFB2002F10D0286900280DD09DF8400049
S31508003E80800709D42869808900900820FEF7DAFDA2
S31508003E90009908432969888100200FE094F82200D8
S31508003EA050F0800084F82200002E02D03000FFF780
S31508003EB0A3FBB4F8700000285FF0FF3007B0BDE838
S31508003EC0F08F7CB5040000260022F6B216F1140124
S31508003ED089B20120FEF7D5FD0500002D02D17FF03D
S31508003EE001001DE094F8220010F0FC0084F822007E
S31508003EF0A06DFEF7B4FD0300F6B2320029002000DB
S31508003F00FFF754FD06200190A07A0090E37A221D5F
S31508003F102100280000F04AFE2800FEF7FCFE0020DB
S31508003F2076BD2DE9F0470400B2480068A04201D1E9
S31508003F300020F8E0B4F85C00B4F85210884202D2C7
S31508003F40B4F85C6001E0B4F85260606F050094F85C
S31508003F50220080070FD5002D09D028694068FEF792
S31508003F608AFDE16C401AA9890818864203D2200006
S31508003F70FFF7A7FFD7E0A06F0700002F04D0386827
S31508003F80002801D03F68FAE7002D00F0AD802869C7
S31508003F904068FEF770FDE16C401AA9890818864248
S31508003FA0C0F0A28028698089FEF752FDA16F00291A
S31508003FB010D094F82200442108420BD1606F0028E3
S31508003FC00AD0606F0068002804D1606F8089218F4D
S31508003FD0884201D3012000E00020002805D194F88A
S31508003FE02200A021084200F07F8028686067207CB4
S31508003FF002280FD02869B0F80C901020FEF722FD91
S3150800400050EA09002969888194F8220010F0FC001A
S3150800401084F822002100280000F087F82869406803
S31508004020FEF729FD814628698089FEF711FD0321DF
S31508004030084201D0012000E00020A989C0B240183A
S3150800404010EB0908A06DB0EB0800002801D5C4F8EC
S31508004050588028698089FEF7FBFC0321084201D0B5
S31508004060012000E00020A989C0B24018012835DBEC
S3150800407000202860A06F002802D1A5672F0030E035
S3150800408028694068FEF7F7FC814638694068FEF7FC
S31508004090F2FCB9EB000000281DD514F17809D9F80F
S315080040A00000002811D0D9F8000000694068FEF722
S315080040B0E2FC824628694068FEF7DDFCBAEB0000A0
S315080040C0002802D5D9F80090E9E7D9F80000286059
S315080040D0C9F8005005E03D603F6802E02800FFF798
S315080040E09CFA606F05004FE7002D15D094F89C00E8
S315080040F0002811D128694068FEF7BDFCE16C401A1A
S31508004100A9890818B4F85C10814205D20020C4F8C1
S315080041109800012084F89C0094F8220010F07F0093
S3150800412084F822000020BDE8F0872DE9FC41040050
S315080041300D00686AFEF793FC21698860688DFEF7B2
S3150800414081FC2169C881686A698D0818E862206956
S3150800415014308046A07BC00706D52748FEF77FFCAB
S31508004160C8F8000018F10408002D02D028680028B5
S315080041700CD1281D00F052FB0700002F37D0381D40
S31508004180002801D1002000E078682860B5F93600DB
S3150800419010F1010F01D10020E886E86B002807D14D
S315080041A016480068E86320694068FEF764FC2864DE
S315080041B0206961684968401A060060684089801B62
S315080041C06168488160680089801B61680881606849
S315080041D02169416020690021018206200190A87AA0
S315080041E00090EB7A2A1D2900606800F0DFFCBDE824
S315080041F0F381000018E90020B4050402ECE8002069
S315080042002DE9F04F83B006000F00904699460C9CA6
S315080042100D9D002214210120FEF733FC8246BAF1D7
S31508004220000F4DD0DAF804008346200080B2FEF76E
S3150800423009FCABF80000280080B2FEF703FCABF8D7
S3150800424002003000FEF70BFCCBF804003800FEF73E
S3150800425006FCCBF808004FF6C070FEF7F3FBBBF878
S315080042600C10084000901420FEF7ECFB0099084358
S31508004270ABF80C0040F66830FEF7E4FBABF80E002E
S315080042800020ABF81200BBF80C00FEF7E1FB10F0BB
S315080042903F0050F4A04080B2FEF7D4FBABF80C0008
S315080042A00020ABF810000620019000200090FF23A4
S315080042B04A464146504600F079FC5046FEF72BFD2B
S315080042C0BDE8F78F38B50400A06F002816D0A06F98
S315080042D005002868002801D02D68FAE7606F286075
S315080042E0A06F60670020A06794F84A00401C84F815
S315080042F04A000020E0632000FFF713FE31BDF8B541
S315080043000400A06F002822D0A06F05002868A067C7
S3150800431014F174000600306800280ED03068006971
S315080043204068FEF7A8FB070028694068FEF7A3FB6C
S31508004330381A002801D53668EDE7306828603560F8
S3150800434094F84A00401C84F84A000020E063F1BD56
S3150800435010B50400A06F002834D094F82200400756
S3150800436030D42000FFF7CBFFB4F85C00B4F8521045
S31508004370884207D2B4F85C00022190FBF1F0A4F859
S31508004380540006E0B4F85200022190FBF1F0A4F8BC
S315080043905400B4F85400218FB0EB410F04DA208F93
S315080043A080B24000A4F85400B4F85400218F0322C8
S315080043B002FB0100A4F8520094F8220050F0040011
S315080043C084F8220010BD30B583B004000022142101
S315080043D00120FEF756FB0500002D16D0A06D401EE5
S315080043E0FEF73DFB0300002229002000FFF7DEFA56
S315080043F00620019000200090E37A221D2100280063
S3150800440000F0D4FB2800FEF786FC37BD2DE9FC47F3
S315080044100400A06F0700002F01D1606F0700002F6E
S315080044204CD038698089FEF713FBC00705D5B889D3
S31508004430002802D15FF0010901E05FF000095FFA88
S3150800444089F9B9F1000F02D05FF0140801E05FF0B6
S3150800445015080022414689B20120FEF712FB050025
S31508004460002D2BD038694368002229002000FFF769
S315080044709DFA06005FFA89F9B9F1000F0DD04FF6DB
S31508004480C070FEF7DFFAB18910EA010A1120FEF7BB
S31508004490D9FA50EA0A00B08103E06868B968097871
S315080044A001750620019000200090E37A221D210064
S315080044B0280000F07BFB2800FEF72DFCBDE8F387FB
S315080044C010B40388C94C24681B191900884216D0F1
S315080044D00B79002B13D1C64B1B6899420FD0C54BDD
S315080044E01B688B4201D1C34B18600B8803800B886D
S315080044F0BE4C24681B19BD4C2468041B5C80438889
S31508004500BA4C24681B191A00824212D01379002B60
S315080045100FD1B84B1B68834201D1B64B1A6003888A
S3150800452013800388B14C24681B19B04C2468141BEB
S315080045305C8010BC7047B04989088900AB4A116095
S31508004540AA49096808004FF42051018000214180DA
S3150800455000210171A549096811F52051A44A116085
S31508004560A349096801220A71A14909684FF4205232
S315080045700A809F4909684FF420524A809D499B4A00
S3150800458012680A60704738B50400002C16D09748A0
S315080045900068844203D396480068844200D30DE03D
S315080045A0B4F1080005000020287192480068854289
S315080045B001D2904805602800FFF782FF31BDF0B5AB
S315080045C00200C81C4FF6FC71014089B20C2901DAB9
S315080045D00C20010089B2B1F5205F01DD00208BE0D7
S315080045E082480068824203D381480068824201D328
S315080045F0100081E0B2F1080006007C480068301A15
S3150800460004003088A4B2001B083803009BB289B2A4
S315080046108B4201D200206FE089B29BB2994201D148
S31508004620100069E03088DFF8C4C1DCF800C010EB80
S315080046300C0007003879002837D1B7F800C0604663
S3150800464011EB040C1CF1080C6546DFF8A8C1DCF870
S3150800465000C0BC450AD1ADB2DFF890C1DCF800C095
S3150800466015EB0C0CDFF88CE1CEF800C0ADB2DFF824
S315080046707CC1DCF800C015EB0C0C67465FF0000C3B
S3150800468087F804C038807C803580B7F800C0BCF550
S31508004690205F30D0B7F800C0DFF850E1DEF800E060
S315080046A01CEB0E0CACF8025025E09BB289B211F156
S315080046B0140083421FD3081908300500ADB24B48D1
S315080046C00068281807004B480068874201D2494805
S315080046D0076000203871308838807C8035803888BB
S315080046E0B0F5205F07D03888DFF800C1DCF800C0D5
S315080046F010EB0C0045801000F0BD70B40500ADB29B
S31508004700002D01D100206FE0E81C4FF6FC7505402E
S31508004710ADB20C2D01DA0C200500ADB2B5F5205F5F
S3150800472001DD002060E033480068304E3668801BA3
S31508004730010089B2ADB2D5F52050814253DA89B26B
S315080047402A480068081803001879002846D11888EE
S3150800475089B2401A0838ADB2A8423FD3188889B240
S31508004760401A0838ADB215F11406B04219D36818C4
S315080047700830020092B21D48006810180400002094
S3150800478020711888208061801A800120187120887D
S31508004790B0F5205F07D02088144E3668801942800D
S315080047A001E00120187113480068834213D11148AB
S315080047B00068007900280ED00E4800680C4E36684E
S315080047C0B04208D00B4800680088084E3668801941
S315080047D0084E3060EBE713F1080005E089B203489C
S315080047E00068095AA5E7002070BC70479CE80020BD
S315080047F0A0E80020A4E800201F08002010B5044601
S3150800480000F0F6F9204610BD10B5044610460A46D3
S315080048100146204600F040FA204610BD38B504008F
S31508004820DFF8740300680500002D10D0280000F09A
S3150800483029FB002809D02068A96808406968AA6881
S315080048401140884201D128000FE02D68ECE7D348D3
S315080048500068002805D0D148006800F013FB00283E
S3150800486001D1002001E0CD48006832BD2DE9F84F9E
S3150800487004000D005FF00108606806003088FEF746
S31508004880E7F880B2000B80B2042804D02000FEF7B7
S3150800489042FA0020E6E03088FEF7DAF8C0F3032093
S315080048A081461FFA89F95FEA89097088FEF7D0F808
S315080048B0070060891FFA89F9484503D32089BFB2E2
S315080048C0B84204D22000FEF726FA0020CAE03900D2
S315080048D089B22000FEF79BF95FF0010BAA46504605
S315080048E000F0D0FA002814D01AF10400002810D0DD
S315080048F0DAF8040000280CD03069DAF80410884287
S3150800490006D0514616F11000FEF75BFB002800D0D2
S3150800491011E0BBF1000F05D0002083469E480068D1
S31508004920824601E0DAF800A0AA4501D1DAF800A02B
S31508004930BAF1000FD3D1BAF1000F11D13089FEF7C1
S3150800494087F8C0B211280BD11FFA89F919EB0600AE
S315080049504088FEF77DF8442802D1AA460020804602
S31508004960B8F1000F1BD0F068002818D0290016F1FE
S315080049700C00FEF726FB00280CD15FF07040FEF70E
S315080049807AF8F16810EA010B5FF06040FEF773F8F9
S31508004990834504D12000FEF7BEF9002062E0BAF193
S315080049A0000F04D12000FEF7B6F900205AE0B6F849
S315080049B006B043F6FF70FEF745F801001BEA010F43
S315080049C009D0200000F0E2FB0400002C01D10020F1
S315080049D048E060680600724805607248066029006B
S315080049E0200000F077FD002835D13089FEF730F831
S315080049F0C0B2C0B201280DD0062806D011280ED1A3
S31508004A002900200000F0AAFD25E029002000FCF777
S31508004A1047FE20E02900200000F0A6FF1BE0290041
S31508004A2016F11000FEF7CDFA002811D15FF070409C
S31508004A30FEF721F8316910EA010B5FF06040FEF7D6
S31508004A401AF8834504D066600221200001F04DF86B
S31508004A502000FEF760F95248002101605148002104
S31508004A6001600020BDE8F28F2DE9F84F06000F001F
S31508004A7090460A9C0B9DDDF83090B8F1000F6ED079
S31508004A805FF0140B14213000FEF7F7F8002802D067
S31508004A907FF001007DE070688246BAF80800FDF7ED
S31508004AA0D7FFC0B29DF8001050EA012080B2FDF78A
S31508004AB0C9FFAAF80800BAF80800FDF7C9FFEDB261
S31508004AC080B2000A55EA002080B2FDF7BBFFAAF8BB
S31508004AD00800B8F1000F01D1002001E0D8F8000065
S31508004AE0CAF810001FFA8BFB04209BFBF0F0E4B217
S31508004AF054EA002050F4804080B2FDF7A3FFAAF8DC
S31508004B0000003089FDF79EFFAAF802000020AAF8E7
S31508004B10060025480088FDF795FFAAF804002248F4
S31508004B200088401C20490880002F02D038680028D9
S31508004B300AD119F10400002801D1002001E0D9F8B2
S31508004B400400CAF80C0006E0002F01D1002000E09E
S31508004B503868CAF80C000020AAF80A0004E0706851
S31508004B6082461AF110008046B9F8280000280AD0B3
S31508004B70B9F828003189884205D2424649463000AC
S31508004B8000F0E4FB05E0424631004846D9F8143007
S31508004B909847BDE8F28F0000C0E80020C4E800206E
S31508004BA068E800206CE8002024E900202DE9F04799
S31508004BB084B006000F00904699460C9D0D9C404611
S31508004BC0FFF72CFE8246002802D17FF003000CE096
S31508004BD0CDF808A0E4B20194EDB200954B46DBB2DD
S31508004BE0424639003000FFF73FFF04B0BDE8F087C2
S31508004BF062B38B0708D0521E11F8013B00F8013B3F
S31508004C0000F024808B07F6D1830740F0208000BF90
S31508004C10103A07D330B4B1E83810103AA0E8381083
S31508004C20F9D230BC530724BFB1E80810A0E8081031
S31508004C3044BF51F8043B40F8043BD20724BF31F87F
S31508004C40022B20F8022B44BF0B7803707047121F03
S31508004C5017D35B0009D151F8043B121F20F8023B19
S31508004C601B0C20F8023BF6D20BE051F8043B121F4E
S31508004C7000F8013B1B0A20F8023B1B0C00F8013B1D
S31508004C80F3D238BF121D521E24BF11F8013B00F89B
S31508004C90013BF8D87047000062F30F2262F31F4207
S31508004CA0401810F0030308D0C91A1FD3DB0748BF02
S31508004CB000F8012D28BF20F8022D130030B4144641
S31508004CC01546103928BF20E93C00FAD8490728BFFD
S31508004CD020E90C0048BF40F8042D890028BF20F8B9
S31508004CE0022D48BF00F8012D30BC7047C91818BFFF
S31508004CF000F8012DCB0728BF00F8012D70470000EA
S31508004D002DE9F04704000D0016001F00DDF820808D
S31508004D10DDF82490DDF828A0002060600020A0605F
S31508004D200020E060002084F8310000202062002086
S31508004D306062C4F81C803E48007884F834003C4819
S31508004D400078401C3A490870C4F810A03B003200AD
S31508004D502900200000F00EF82000C847002801D0DE
S31508004D60002005E0334800682060324804602000CF
S31508004D70BDE8F087F8B504000D0016001F002900ED
S31508004D80200000F009F83100200000F045F839004D
S31508004D90200000F03AF8F1BD2DE9F04104000D00BD
S31508004DA028686168884228D0244800680600002ED2
S31508004DB00DD030686168884207D1D6F80C80012189
S31508004DC03000FEF7CBF94646F1E7F668EFE71C48F0
S31508004DD000680700002F10D0002F0CD03868002874
S31508004DE009D038686168884205D1002D01D10020B4
S31508004DF000E028683860FF68ECE7002D01D1002044
S31508004E0000E028686060BDE8F081002901D1002231
S31508004E1000E00A68C2607047002901D1002200E05C
S31508004E200A688260704704490860704700000000FD
S31508004E302DE90020C0E80020C4E80020F8E800209A
S31508004E40F4E8002010B5040094F83100C0070DD42A
S31508004E5094F8310050F0010084F8310094F83100DC
S31508004E60800603D5211D200001F0B2FB10BD90F885
S31508004E703110C90705D590F8311011F0FE0180F8F8
S31508004E803110704790F8310010F0010070470000AB
S31508004E902DE9F84304000D000026002D60684068DF
S31508004EA08046B8F80400002816D160680700D8F8CC
S31508004EB000006060142214F108017868FFF79EFC70
S31508004EC00121380000F01BFE3800FDF75CFF801951
S31508004ED006003800FDF71FFF60680700002F0ED098
S31508004EE078688046B946D8F8000007004846FDF7B6
S31508004EF04AFF801906004846FDF70DFFEEE7290030
S31508004F00200000F07CF8DFF8C4050088801BDFF875
S31508004F10BC1508803000BDE8F2832DE9F84F04007F
S31508004F200D005FF0000A00200700002080460020E0
S31508004F308346DFF8940500680600002E21D07069C4
S31508004F40E168884207D1B0692169884203D1B089EE
S31508004F50A188884201D0012000E0002000280AD05C
S31508004F601BF1010B002F01D1370004E0F87FF17F18
S31508004F70884200D337003068002800D0B04636682B
S31508004F80DBE7002F06D041463800FFF781FF814650
S31508004F9019EB0A0AAA4502DABBF1020FC3DA504630
S31508004FA0BDE8F28F70B504000D000520FEF7D5FCAC
S31508004FB00600002E0DD129002000FFF7AEFFA842FB
S31508004FC003DB0520FEF7C9FC0600002E01D10020F0
S31508004FD014E0202200213000FFF716FC0320F077AA
S31508004FE0DFF8E40400683060DFF8DC0406601422A9
S31508004FF0210016F10800FFF701FC300070BD38B536
S3150800500004000D00DFF8C0040068A04204D1DFF8F0
S31508005010B8042168016001E02068286021000520A5
S31508005020FEF7AFFC31BD2DE9F04F83B004000D004B
S315080050305FF000085FF0010A6868019001984088EF
S31508005040FDF706FD834601980088FDF701FD1FFA66
S315080050508BFBC0F3032080B2BBEB8000ADF80200E7
S315080050600198C088FDF7F4FCC004C00C80B2C000EB
S31508005070ADF800006868060000203060BDF8000042
S31508005080B080BDF80000BDF802100818F08060680E
S315080050908146B9F1000F30D0D9F804000700B0886E
S315080050A0B988884213D2C6F80090B8F1000F0CD020
S315080050B0B088B8F80610884203D3B888F1888842C1
S315080050C000D254E0C8F8005000E0656015E0B088EA
S315080050D0B98888424BD0B088F988884247D3B8F156
S315080050E0000F06D0B8F80600B988884201D000201B
S315080050F0824638688146B846CBE7B9F1000F0DD12C
S31508005100B8F1000F09D0C8F80050B8F80600B18801
S31508005110884203D00020824600E06560A07FC00771
S3150800512023D5BAF1000F1ED0606840688088002831
S3150800513002D00020824616E0B04630688146B9F1B2
S31508005140000F0ED0D9F804000600B8F80600B1889A
S31508005150884202D00020824603E0B0463068814685
S31508005160EDE7BAF1000F50460EE000200CE02800EB
S31508005170FDF709FED5490988C0B2081AD34908803F
S315080051802800FDF7C8FD0020BDE8FE8F2DE9F84F81
S3150800519004005FF0000A606806003088FDF758FCD6
S315080051A0C0F3032080B28000142840F0C980F0883C
S315080051B0FDF74EFCC004C00C80B2C000ADF802007A
S315080051C07088FDF745FC83463088FDF741FC1FFAD9
S315080051D08BFBC0F3032080B2BBEB8000ADF8000068
S315080051E02000FDF7D0FD8146B84800885FFA89F9A6
S315080051F019EB00000B2810DB5FFA89F949463000E5
S31508005200FFF78BFE002807D0B04800885FFA89F9B7
S3150800521019EB00000B2800DB92E0AB48006807009A
S31508005220002F13D07869F168884209D1B8693169C5
S31508005230884205D1B889B188884201D1012000E0A9
S315080052400020002802D1BA463F68E9E7002F09D1B5
S315080052505FFA89F949463000FFF7A4FE0700002FD8
S3150800526010D16DE0F088FDF7F3FBC0040AD1F88988
S31508005270FDF7EEFBC00405D01422310017F1080033
S31508005280FFF7BCFA914800885FFA89F919EB000024
S315080052908E490880F088FDF7DBFB800409D4B87FC7
S315080052A050F00100B877BDF80200BDF800100818E4
S315080052B0B88321003800FFF7B6FE00283ED0B88B29
S315080052C01430B883786840680068050078684068D4
S315080052D00600142217F108013000FFF78FFAB88B81
S315080052E0FDF7B0FB70800020F0800020708114214B
S315080052F0300001F0F4F9708178680400002D0ED0B2
S31508005300686880467FF013012800FDF7B6FC29007F
S315080053102000FDF748FDD8F800000500EEE75146E5
S315080053203800FFF76CFE2000FDF72DFD6749098858
S31508005330C0B2081A65490880200005E0002003E08D
S315080053402000FDF7E8FC0020BDE8F28F2DE9F74FB5
S3150800535084B00598008DADF806001420ADF8040059
S31508005360022200210220FDF78CFB0400002C02D14A
S315080053705FF0FF30A4E0BDF8060060812081544844
S3150800538080088000606060680600142204984168FE
S315080053903000FFF733FAF088FDF75AFB82465FEADA
S315080053A0CA40C00C80461AF40050ADF80A000498AA
S315080053B0008914380700BDF806001438082190FB48
S315080053C0F1F0ADF80800BFB2002F75D0BDF80600A1
S315080053D01438BFB2B84202DB5FF0010901E05FF0A2
S315080053E000095FFA89F9BDF80A005FEAC841C90CE5
S315080053F0084382461FFA89F9B9F1000F01D15AF418
S31508005400005A1FFA89F9B9F1000F01D0BB4604E02A
S31508005410BDF8080080B25FEAC00BBDF80400009032
S31508005420BDF804305A4692B216F114010498FDF7F5
S315080054303BFD00994018ADF80400504680B2FDF7D0
S3150800544001FBF0801BF1140080B2FDF7FBFA7080B7
S31508005450002070811421300001F041F970811FFA93
S3150800546089F9B9F1000F05D017F1140189B22000A6
S31508005470FDF7CDFB002200210220FDF702FB050007
S31508005480002D13D021002800FDF7A4FC069A290058
S315080054900598059B5B6998472800FDF73CFCB7EB28
S315080054A00B07BDF8080010EB08088CE72000FDF78D
S315080054B032FC5FF0FF3003E02000FDF72CFC0020F3
S315080054C007B0BDE8F08F000070E8002026E900204C
S315080054D037D700202DE9F04704000D005FF0000AD9
S315080054E060688046B8F80800FDF7B2FAC0B281468F
S315080054F0002007001848006806005FFA8AFABAF121
