S018000073746D33326632303770726F6A6563742E737265635D
S31508000000E063012015BB000851BB000855BB00087A
S3150800001059BB00085DBB000861BB00080000000072
S3150800002000000000000000000000000065BB00089A
S3150800003069BB0008000000006DBB0008396E0008A7
S3150800004075BB000879BB00087DBB000881BB0008AA
S3150800005085BB000889BB00088DBB000891BB00085A
S3150800006095BB000899BB00089DBB0008C9B40008E9
S31508000070A5BB0008A9BB0008ADBB0008B1BB0008BA
S31508000080B5BB0008B9BB0008BDBB0008C1BB00086A
S31508000090C5BB0008C9BB0008CDBB0008D1BB00081A
S315080000A0D5BB0008D9BB0008DDBB0008E1BB0008CA
S315080000B0BFA30008E9BB0008EDBB0008F1BB0008B8
S315080000C0F5BB0008F9BB0008FDBB000801BC000829
S315080000D005BC000809BC00080DBC000811BC0008D6
S315080000E015BC000819BC00081DBC000821BC000886
S315080000F025BC000829BC00082DBC000831BC000836
S3150800010035BC000839BC00083DBC000841BC0008E5
S3150800011045BC000849BC00084DBC000851BC000895
S3150800012055BC000859BC00085DBC000861BC000845
S3150800013065BC000869BC00086DBC000871BC0008F5
S3150800014075BC000879BC00087DBC000881BC0008A5
S3150800015085BC000889BC00088DBC000891BC000855
S3150800016095BC000899BC00089DBC0008A1BC000805
S31508000170A5BC0008A9BC0008ADBC0008B1BC0008B5
S31508000180B5BC00082DE9F04F83B004000D00606887
S31508000190DFF8241C0860DFF8200C0068008801F0EE
S315080001A0C9F9C0F3032080B2616811EB8000DFF85B
S315080001B00C1C0860DFF8000C0068008801F0BAF92A
S315080001C0C0F3032080B2800000B2414209B2200089
S315080001D001F0C5FA002802D12089142803D220008C
S315080001E001F00BFB40E22900DFF8CC0B0068103069
S315080001F001F059FC002810D15FF0704001F0ADF90C
S3150800020083465FF0604001F0A8F9DFF8AC1B096887
S3150800021009691BEA0101814203D1200001F0EDFAC8
S3150800022022E2DFF8980B0068808901F083F980B232
S31508000230000B81465FFA89F97FF0030000FB09F19C
S3150800024009B2200001F08BFA002803D0200001F043
S31508000250D4FA09E2DFF8640B0068008801F06AF94D
S31508000260DFF8581B09680880DFF8500B00684088DB
S3150800027001F060F9DFF8441B09684880DFF83C0B99
S315080002800068406801F069F9DFF8301B09684860C2
S31508000290DFF82C1B0860DFF8240B0068806801F083
S315080002A05CF9DFF8181B09688860DFF8181B086016
S315080002B0DFF8080B0068C08901F03CF9DFF8FC1A82
S315080002C00968C881DFF8F40A0068808901F032F904
S315080002D010F03F00DFF8F01A0870DFF8EC0A007833
S315080002E00321084201D0012000E00020218940189E
S315080002F0DFF8D81A088000200700DFF8D40A00685B
S315080003000600002E2AD0308CDFF8B01A0968098852
S31508000310884220D1308BDFF8A41A096849888842B8
S3150800032019D17068DFF8901A0968C968884212D12D
S315080003303068DFF8841A0968096988420BD1002FEA
S3150800034008D0F068F860DFF8880A0068F060DFF81F
S31508000350800A066002E03700F668D2E7002E63D10D
S31508000360DFF8700A00680600002E24D0308CDFF80B
S315080003704C1A0968098888421BD1308BDFF83C1A69
S3150800038009684988884214D17068DFF82C1A096808
S31508000390C96888420DD13068DFF81C1A09680969EE
S315080003A0884206D1300000F004FA200001F025FA50
S315080003B05AE1F668D8E700200700DFF81C0A00684B
S315080003C08046B8F1000F2FD0B8F1000F0BD0D8F83F
S315080003D00000002807D0D8F80000DFF8DC19096803
S315080003E0096988421CD1B8F81800DFF8D0190968DD
S315080003F04988884214D1002F0BD0D8F80C00F86031
S31508000400DFF8D4090068C8F80C00DFF8CC09C0F892
S315080004100080404600F02AF9200001F0EEF923E1B9
S315080004204746D8F80C80CCE7002E00F0F280DFF8BB
S31508000430AC0900210160DFF8A40921898181DFF870
S315080004409C0961688160DFF894094460DFF88C09CB
S31508000450DFF8681909680161DFF88409002101607D
S31508000460DFF8800900210170F06F00281FD0D6F848
S315080004708400002808D00023F26F31007069D6F88E
S3150800048084C0E047824606E00023F26F3100002070
S3150800049001F058FE82464FFA8AFABAF1000F02D1E5
S315080004A00020F06703E0200001F0A7F9DCE0DFF8A0
S315080004B038090660300000F0D6F982464FFA8AFA03
S315080004C01AF1050F00F09280DFF818090078000786
S315080004D013D5D6F89000002805D07FF0050170697D
S315080004E0D6F8902090473100DFF8E40801F009FFBC
S315080004F03100022001F0C7FF78E0DFF8E80800784D
S31508000500C00609D53100DFF8C80801F0FAFE310047
S31508000510022001F0B8FF69E000208246B6F86C00B8
S3150800052000280ED0D6F88000002808D0B6F86C202F
S3150800053031007069D6F880309847824601E000207D
S315080005408246DFF89C08006800282FD0DFF8780874
S315080005500078000709D5DFF888080068407B50F066
S315080005600100DFF87C1809684873D6F8840000286B
S315080005700AD00023DFF86808026831007069D6F8E7
S3150800058084C0E047824608E00023DFF85408026882
S315080005903100002001F0D6FD82464FFA8AFABAF1F8
S315080005A0000F03D0DFF838080068F067DFF8340872
S315080005B00078800613D5D6F88400002808D00023D2
S315080005C0002231007069D6F884C0E047824606E00A
S315080005D0002300223100002001F0B4FD8246DFF836
S315080005E0080800210160300002F01DFADFF8F8075C
S315080005F000210160DFF8E4074068002834D0DFF8FE
S31508000600DC07406801F0F9F8DFF8D00700214160FF
S315080006102AE0DFF8A8070068808900F08BFF40070A
S315080006201FD4DFF89807006800880190DFF88C0768
S31508000630006840880090DFF88007006810F10C0316
S31508000640DFF87407006810F11002DFF87407006815
S31508000650DFF8781709880918DFF86807006802F0D4
S3150800066051FB200001F0C9F8BDE8F78F7CB50400FE
S31508000670DFF854070078C00621D5DFF84007006880
S3150800068000880190DFF83407006840880090DFF89A
S315080006902807006810F10C03DFF81C07006810F142
S315080006A01002DFF81C070068DFF820170988091808
S315080006B0DFF810070068401C02F024FB77E0DFF83B
S315080006C008070078800772D5607C01F0A1FD050057
S315080006D0002D02D15FF0FF306AE0DFF8DC06006823
S315080006E01030002801D1002003E0DFF8CC060068AE
S315080006F000692860208B2883DFF8BC0600680C3068
S31508000700002801D1002003E0DFF8AC060068C068C5
S315080007106860DFF8A8060068008828840320287423
S31508000720DFF89C060068401C6862686AE862DFF8C1
S315080007308C060068C089A5F85C00B5F85C00A5F8C9
S315080007405400DFF87C060068401E28666069686108
S31508000750E069E861208940F2991108402881DFF8AC
S3150800076070060068E860DFF868060560280000F093
S315080007705FFE291D288F01F00CFE288701200190B5
S3150800078000200090122300220021280001F0EBFE31
S31508000790060076B2002E06D00021280001F060FA85
S315080007A0300040B204E0280002F03DF900E00020E5
S315080007B076BD1CB50400DFF810060078400701D5A1
S315080007C000204FE0DFF800060078800731D5DFF813
S315080007D0F0050068616A401A002833D4DFF8E0059E
S315080007E00068616A401A218D401A01282ADADFF862
S315080007F0CC05006800880190DFF8C00500684088CD
S315080008000090DFF8B405006810F10C03DFF8A805BE
S31508000810006810F11002DFF8A8050068DFF8AC15CB
S3150800082009880918DFF89C05006802F06BFA0020B1
S3150800083018E0DFF894050078C00703D5DFF8C00C88
S3150800084000682063DFF884050088002809D094F83A
S31508000850220050F0020084F82200200002F0E3F89B
S3150800086000E0002016BD2DE9FC410400002600200A
S315080008700700DFF854050078400733D5207C0228A6
S3150800088008D1DFF840050068A16D884214D101201F
S31508000890060011E0DFF828050068616A401A00289A
S315080008A00AD4DFF81C050068616A401A218D401ACF
S315080008B0012801DA01200600F6B2002E10D0DFF872
S315080008C02405007850F00800DFF81815087094F829
S315080008D0220010F0FE0084F822007FF0050068E28E
S315080008E0002066E2DFF8E0040078800710D5207C57
S315080008F002280DD0207C03280AD094F8220050F054
S31508000900020084F82200200002F08DF8002050E250
S31508000910DFF8EC0B00682063002084F89D002000B7
S3150800092000F086FD207C022814D0C0F041820428FD
S3150800093000F02881C0F0A880062800F09E81C0F04B
S315080009403481082800F0DE81C0F01C81092800F0F7
S315080009501B822DE2DFF8AC0B007810F0120012288B
S315080009606CD1A06F0069406800F0F7FDDFF85414F9
S315080009700968401C814261D1B4F86E00401CA4F895
S315080009806E00DFF83C040068401C6062606AE06242
S31508000990DFF830040068E064DFF820040068C089E6
S315080009A0A4F85C00DFF818040068401E20660420DE
S315080009B02074211D208F01F0ECFC2087208F0A214E
S315080009C04843A4F85400B4F85200012803D1208FF4
S315080009D080B2400000E0208FA4F85200B4F87000FE
S315080009E0401EA4F87000A06F05002868A067A06FD5
S315080009F0002803D15FF0FF30E08604E00020E0869F
S31508000A00002084F84A00280001F089FBD4F8880001
S31508000A10002807D0002221006069D4F8883098475A
S31508000A20070001E00020070094F8220050F00200B9
S31508000A3084F82200200001F0F6FF24E0DFF8C40A5B
S31508000A400078C0061FD5DFF8740300680088019097
S31508000A50DFF86803006840880090DFF85C030068E8
S31508000A6010F10C03DFF85003006810F11002DFF8EC
S31508000A7050030068DFF8541309880918DFF844039F
S31508000A80006802F03FF993E1DFF8780A0078C006BB
S31508000A9069D5CC480068E16C401A401E002848D445
S31508000AA0C8480068A16D401A012842DA042020745B
S31508000AB0E069002806D0002221006069E3699847AA
S31508000AC0070001E0002007007FB2002F06D00121B1
S31508000AD0200001F0C5F87FF004006AE1B4F852007E
S31508000AE08046200000F082F9B4F86C00002804D093
S31508000AF0B4F86C00401EA4F86C001FFA88F8B8F128
S31508000B00010F03D1208F80B2400000E0208FA4F8A7
S31508000B105200B4480078800633D594F8220050F085
S31508000B20020084F82200200001F07DFF07202074CF
S31508000B3027E0A248006800880190A048006840881D
S31508000B4000909D48006810F10C039B48006810F15E
S31508000B5010029B4800689D49098809189948006849
S31508000B6002F0D0F80DE0DFF89C090078800708D578
S31508000B7093480068616A491E884202D1200002F043
S31508000B8040F915E1200000F031F996480078800612
S31508000B900AD594F8220050F0020084F822002000BA
S31508000BA001F041FF0720207402E1200000F01EF941
S31508000BB08C480078800653D5DFF848090078C006C7
S31508000BC042D580480068A16D88423DD194F822003C
S31508000BD050F0020084F82200200001F024FF2000D3
S31508000BE001F072FB7A480068A04205D1784800688F
S31508000BF0C068774908601DE0DFF80C097449096880
S31508000C000160DFF804090068002813D0DFF8F80847
S31508000C100068C068A04205D1DFF8EC080068E16802
S31508000C20C16007E0DFF8E0080068C068DFF8D81898
S31508000C300860E6E70020E0600A202074654800683E
S31508000C40E0606448046017E094F8220050F002005F
S31508000C5084F82200200001F0E6FE082020740BE04C
S31508000C60DFF8A0080078C00606D556480068A16DCA
S31508000C70884201D1062020749AE0200000F0B6F8D8
S31508000C805848007880063CD594F8220050F00200B7
S31508000C9084F82200200001F0C6FE200001F014FBB3
S31508000CA04B480068A04205D149480068C0684849D1
S31508000CB008601DE0DFF85008454909680160DFF85B
S31508000CC048080068002813D0DFF83C080068C068A8
S31508000CD0A04205D1DFF830080068E168C16007E086
S31508000CE0DFF824080068C068DFF81C180860E6E723
S31508000CF00020E0600A20207436480068E060354825
S31508000D00046055E0200000F071F8DFF8F807007875
S31508000D10C00638D52B480068A16D884233D120001B
S31508000D2001F0D2FA2A480068A04205D1284800688E
S31508000D30C068274908601DE0DFF8CC072449096820
S31508000D400160DFF8C4070068002813D0DFF8B80789
S31508000D500068C068A04205D1DFF8AC070068E16802
S31508000D60C16007E0DFF8A0070068C068DFF89817D9
S31508000D700860E6E70020E0600A202074154800684D
S31508000D80E0601448046013E0200000F02FF8DFF854
S31508000D9074070078C0060AD50A480068A16D88421B
S31508000DA005D11048007850F010000E490870FFE78A
S31508000DB00020BDE8F6810000B4E30020B0E300207F
S31508000DC0B8E30020BCE30020DBE30020D4E30020E6
S31508000DD0A4E30020A8E30020A0E30020A0E200206E
S31508000DE0C0E30020DCE30020C4E300202DE9F84F2F
S31508000DF004005FF00009DFF80C070078C00640F130
S31508000E00DC81B4F85C00616E08180090206EDFF88B
S31508000E10FC160968401A00281AD4206EDFF8EC166A
S31508000E200968884206D1606EDFF8E4160968401A38
S31508000E3000280DD4606EDFF8D8160968884220D1DC
S31508000E40B4F85C00DFF8CC160968C989884218D25C
S31508000E50DFF8C0060068C089A4F85C00DFF8AC06B5
S31508000E6000682066DFF8A80600686066B4F85C00CB
S31508000E70002806D094F89C00002802D0002084F8A8
S31508000E809C00DFF88C060068E16C401A012849DAF4
S31508000E900020A4F86C00DFF880060088002839D105
S31508000EA0606EB4F85C1008180099884232D1B4F91B
S31508000EB0360000282ED4E06CDFF8541609688842FC
S31508000EC028D10120814694F8500094F85010491C06
S31508000ED0884204DA94F85000401C84F8500094F8CC
S31508000EE0500004280FDBB4F85200B4F85210228FD1
S31508000EF0511889B288420DD2B4F85200218F0818C9
S31508000F00A4F8520006E094F85000032802D1200005
S31508000F1001F0A0FFB9F1000F40F0C580002084F869
S31508000F205000C0E0DFF8E8050068E16C401A401E92
S31508000F30002800F1B580DFF8D8050068A16D401AD1
S31508000F40012880F2AD8094F82200400709D594F86C
S31508000F50220010F0FB0084F82200B4F85400A4F82C
S31508000F605200002084F84A00B4F94400B4F9461047
S31508000F7011EBE000A4F84800DFF894050068E16C7E
S31508000F80401AA4F86C00B4F86E00B4F86C1008188F
S31508000F90A4F86E00002084F85000DFF87405006895
S31508000FA0E064207C042826DBB4F85200B4F8541018
S31508000FB088420FD2B4F85200B4F85210228F511852
S31508000FC089B2884217D2B4F85200218F0818A4F8BB
S31508000FD0520010E0B4F85200218F228F5143B4F822
S31508000FE0522091FBF2F10818B4F8521080B28142EF
S31508000FF001D2A4F85200A06F002844D0A06F00695F
S31508001000406800F0AAFA8246A06F0069808900F05D
S3150800101091FA0321084201D0012000E00020A16FC7
S315080010208989C0B2401810EB0A00DFF8E414096891
S31508001030401A012827DAA06F0500A06F0068A0678C
S31508001040686800F012FCB4F86C1000290AD0286908
S31508001050808900F06FFAC00704D5B4F86C00401E0A
S31508001060A4F86C00B4F870A0686800F0FEFBBAEB50
S315080010700000A4F87000280001F051F8B4F87000D8
S315080010800028B8D0B7E7A06F002803D15FF0FF307B
S31508001090E08601E00020E086002084F8340002E0C3
S315080010A00020A4F86C00606F00284BD0606F0069C0
S315080010B0406800F052FA8246606F0069808900F045
S315080010C039FA0321084201D0012000E00020DFF8A8
S315080010D040140968B1EB0A01626F9289C0B28018A0
S315080010E0081A00282ED4DFF828040068A16D401AD3
S315080010F0012827DA606F0500606F00686067686816
S3150800110000F0B3FBB4F86C1000290AD0286980896E
S3150800111000F010FAC00704D5B4F86C00401EA4F815
S315080011206C00B4F870A0686800F09FFBBAEB00008A
S31508001130A4F87000280000F0F2FFB4F87000002848
S31508001140B1D0B0E7E06B002837D0206CDFF8C013C9
S315080011500968401A002830D5DFF8A4030068E16B57
S31508001160401A80460FFA88F8B4F94400B8EBE0084C
S31508001170B4F8440018EB0000A4F844000FFA88F805
S31508001180B8F1000F03D50FFA88F8D8F100080FFA5E
S3150800119088F8B4F94600B8EBA008B4F8460018EB8E
S315080011A00000A4F84600B4F94400B4F9461011EB5F
S315080011B0E000A4F848000020E063DFF85C0300883C
S315080011C0002800F01B81606ADFF840130968401A9E
S315080011D0401E002848D4606ACC490968401ACE499E
S315080011E00988401A401C01283EDA606AC74909681E
S315080011F0401A0700C94840680600C8484068408940
S31508001200B84217DAC54840680089C01B834670890A
S31508001210B84207DA70893F1AA6F808B0002070812C
S315080012203668F4E7794209B2300000F098FA0028E7
S3150800123007D006E0794209B2B848406800F08FFA4C
S315080012400028B64871688160B4488089616AAF4AE7
S315080012501268891A401AB1498881606AAB490860E0
S31508001260AE49096948600EE0A8480068616A401AF4
S31508001270002808D594F8220050F0020084F82200CD
S31508001280200001F0D0FBA1480068616A401A0028D6
S3150800129000F1B0809D480068616A401A218D401AA5
S315080012A0401C012880F2A680606A9849096888422D
S315080012B040F09C8099480069808900F03BF9032139
S315080012C0084201D0012000E0002094498989C0B273
S315080012D0401891490880208D8F490988884243D251
S315080012E08E480069808900F025F9C00716D54FF6A3
S315080012F0C07000F019F9824688480069808900F0B4
S3150800130019F910F03E0000F00FF984490969898936
S315080013101AEA010108438149096988817F48218DB4
S3150800132081817E480069808900F004F9800704D528
S315080013307A488089401E7949888178488189774822
S31508001340406800F0D6F975480069808900F0F2F81F
S315080013500321084201D0012000E000206F49898955
S31508001360C0B240186C490880684800686A4909880C
S3150800137008186062208D68490988401A208520006F
S3150800138000F0C9FC654840680089002806D0634813
S315080013904068634908606148002141605F48006908
S315080013A0808900F0C7F8C00705D55E48007850F078
S315080013B020005C49087094F82200C0070FD594F8FD
S315080013C0220010F0FE0084F8220094F8220050F063
S315080013D0020084F82200200001F025FB05E094F8BD
S315080013E0220050F0010084F822001FE0200001F0DE
S315080013F0EAFA1BE0200001F0E6FA17E04348006825
S31508001400616A401A002808D440480068616A401A90
S31508001410218D401A401C012808DB94F8220050F060
S31508001420020084F82200200001F0FDFABDE8F18FE1
S315080014302DE9F843040037480068143080463548DB
S315080014400068808900F076F880B2000B80B2062822
S3150800145053DB30480068808900F06CF880B2000BD6
S31508001460401F8000060000200500ADB2B6B2B542A6
S3150800147043D2ADB215F8080081465FFA89F9B9F189
S31508001480000F04D0B9F1020F04D001D328E034E0EC
S315080014906D1CEAE7ADB215EB08004078042804D1C4
S315080014A0B6B2ADB2281D864200DA26E0ADB215EB1B
S315080014B008008078ADB215EB0801C97851EA00201A
S315080014C00700BFB240F2B550874202DABFB2002F1A
S315080014D002D140F2B45000E0380020872D1DC4E741
S315080014E0ADB215EB08004078002806D0280080B277
S315080014F010EB080040784519B7E7BDE8F18300000E
S3150800150098E30020DBE30020ACE30020B8E30020EA
S31508001510BCE30020B0E30020D4E30020A0E20020D2
S31508001520C0E30020DCE3002080B2010A51EA002073
S3150800153080B2704710B50400200080B2FFF7F4FFB0
S3150800154010BD10F47F41090251EA0061020A12F443
S315080015507F42114351EA1060704710B5040020001D
S31508001560FFF7EFFF10BD2DE9F84F04008B46150075
S3150800157000208246E4B2002C05D0022C07D004D302
S31508001580032C07D007E01AF1140A1AF1140A1AF103
S315080015900E0A02E001E00020A9E0EDB2002D68D0B5
S315080015A0022D00F08B80C0F08980032D40F09880D2
S315080015B0082000F054FF0600002E01D1002096E016
S315080015C03573002030601FFA8AFA1AEB06001030CD
S315080015D0C01C800880007060A6F808B01FFA8BFB54
S315080015E01FFA8AFA1AF1030030F00300D0F50070EA
S315080015F0834501DA584606E01AF103004FF6FC71F6
S315080016000840D0F5007070810120F081B0461FFABD
S315080016108BFB7089BBEB00008146B9F1010F27DB14
S31508001620082000F01CFF0700002F04D1300000F04E
S31508001630E4F800205BE03D730020787300203860F2
S31508001640C8F80070A7F80890484680B2B0F5007F41
S3150800165001DA484601E04FF40070788117F110006E
S3150800166078600120F8817889B9EB0009B846D4E793
S3150800167038E01AF113004FF6FC7108401FFA8BFB8D
S315080016801BF1030131F00301081880B201F0B7FD20
S315080016900600002E01D1002029E01FFA8AFA1AEB6B
S315080016A006001030C01C800880007060A6F808B0DC
S315080016B0A6F80AB000203060357313E0072000F062
S315080016C0CEFE0600002E01D1002010E0002070603A
S315080016D0A6F808B0A6F80AB000203060357301E015
S315080016E0002004E00120F081002070733000BDE87E
S315080016F0F28F2DE9F04104000D002089ADB2854234
S315080017002BD2ADB22089281A80462F002600708970
S31508001710BFB2B84207D270893F1A308918EB000069
S3150800172030813668F3E7307B00280BD17089BFB269
S31508001730874207D07068801B391889B2300001F0DB
S31508001740C0FC06007781708930813068002802D095
S31508001750306800F052F800203060BDE8F08170B4BF
S31508001760020009B2002901D0002A01D1002042E076
S3150800177009B2002909D509B2484205005089ADB217
S31508001780A84201D2012036E000E00D00107B0300DC
S31508001790506804009BB2002B02D09BB2032B0CD1DD
S315080017A009B24842566880195060506812F110060E
S315080017B0B04219D2546001201DE09BB2022B02D020
S315080017C09BB2012B0ED109B2002909D55089ADB2B9
S315080017D0A84205D309B2484256688019506003E00A
S315080017E0012008E0012006E0508908185081108978
S315080017F008181081002070BC70472DE9F0410400DC
S31508001800002C01D100202EE000200700002C28D053
S31508001810E089401EE08180461FFA88F8B8F1000F7B
S315080018201CD120680600207B0500ADB2032D04D12B
S315080018302100082000F027FE0DE0ADB2012D02D0F0
S31508001840ADB2022D04D12100072000F01CFE02E0F3
S31508001850200001F01AFC7F1C3400D7E700200400A2
S31508001860D4E73800C0B2BDE8F081010000221000BC
S31508001870002902D0401C0968FAE7C0B27047002860
S3150800188002D0C189491CC181704710B4002801D013
S31508001890002900D10EE002001368002B05D0138939
S315080018A00C89E31813811268F6E713890C89E31883
S315080018B01381116010BC704738B504000D0029006B
S315080018C02000FFF7E2FF2800FFF7D9FF31BD2DE919
S315080018D0F04104000D0000275FF00008002C05D039
S315080018E0002D03D020892989884202D27FF0090079
S315080018F04AE06089BFB2C01B69891FFA88F8B1EB54
S315080019000801884204DB6889B0EB0800060002E09B
S315080019106089C01B0600B6B232001FFA88F86868EC
S3150800192018EB0001BFB26068381801F0E9FCF71936
S3150800193016EB08086089BFB2874202D1002007006B
S31508001940246868891FFA88F8804502D300208046F3
S315080019502D68002D09D068892989884205D128680B
S31508001960002802D07FF008000EE0002C09D060891C
S315080019702189884205D12068002802D07FF0080016
S3150800198002E0002DB5D10020BDE8F0812DE9F84F21
S3150800199004000D0016001F005FF0000B002C01D19B
S315080019A0002042E0002D01D100203EE000208146C3
S315080019B0002C01D0002D01D1002036E0A046B6B299
S315080019C0002E30D0B8F1000F2DD0BFB2002F08D0AE
S315080019D0B8F80A00BFB2874203D3B8F80A003F1A1C
S315080019E01EE0B8F80A00C01B8246B6B21FFA8AFA89
S315080019F0564500D2B2461FFA8AFA5246BFB2D8F8FE
S31508001A00040039181FFA89F919EB050001F078FC6A
S31508001A101AEB0B0B1AEB0909B6EB0A0600200700AE
S31508001A20D8F80080CBE7584680B2BDE8F28F2DE99A
S31508001A30F04704000D001600B1465FF0000A002CBE
S31508001A4001D100202DE0002D01D1002029E0002C35
S31508001A5005D0002D03D02089B6B2B04202D27FF05D
S31508001A6009001EE027001FFA89F9B9F1000F17D0FF
S31508001A70C84678891FFA88F8404501D27889804691
S31508001A801FFA88F842461FFA8AFA1AEB050178689F
S31508001A9001F036FCB9EB080918EB0A0A3F68E2E7D9
S31508001AA00020BDE8F08730B4020010680300D84370
S31508001AB0002801D0002B01D101201CE091F831004B
S31508001AC0800701D4002016E04868834201D100202F
S31508001AD011E010688C6820404C688D682C40A04244
S31508001AE008D1886833EA00008C68E443A04201D133
S31508001AF0012000E0002030BC704750F8041B61B19B
S31508001B0050F8042BD30744BFA9F101039A18002300
S31508001B1042F8043B091FFAD1EFE7704780B500F099
S31508001B20B4FADFF89C080078401CDFF894180870AF
S31508001B30C00701D500F034F901BD38B50400207C92
S31508001B4000280AD001283FD002284BD0032857D0B6
S31508001B50042860D0072869D073E000200500DFF864
S31508001B6064080068A04207D1DFF858080068C06812
S31508001B70DFF8501808601EE0DFF84C08DFF8441854
S31508001B8009680160DFF840080068002813D0DFF80C
S31508001B9038080068C068A04205D1DFF82C0800683C
S31508001BA0E168C16007E0DFF820080068C068DFF870
S31508001BB018180860E6E70020E0602100022000F01F
S31508001BC062FC0020040040E0002005002100DFF848
S31508001BD0FC0700F096FB2100032000F054FC0020CF
S31508001BE0040032E0002005002100DFF8E40700F0D9
S31508001BF088FB2100022000F046FC0020040024E0B7
S31508001C000121200000F09FFC05006DB2002D01D1D6
S31508001C100520207419E00121200000F094FC05003D
S31508001C206DB2002D01D1052020740EE0012120009F
S31508001C3000F089FC05006DB2002D01D10920207441
S31508001C4003E00020050000200400002C05D06DB23A
S31508001C50002D02D1200000F0E6FE280040B232BD79
S31508001C602DE9F04F85B004000D00207C0A2809D123
S31508001C702100DFF8600700F044FB2100022000F095
S31508001C8002FC45E0A06D0600606A0700002C01D141
S31508001C90002000E020680290201D002801D10020C5
S31508001CA000E060680390208B8146208C8046D4F83B
S31508001CB090008246606983462100DFF8140700F029
S31508001CC020FBA06F002802D0A06F00F017FA606F03
S31508001CD0002802D0606F00F011FA2100022000F0FF
S31508001CE0D2FB5046002803D07FF004015846D0475F
S31508001CF0002D0DD01FFA88F8CDF804801FFA89F94F
S31508001D00CDF8009003AB02AA3900300000F0FAFFC4
S31508001D1005B0BDE8F08F0100486A0A8D1218088FD1
S31508001D2040F2B553984202DB40F2B45000E0088F07
S31508001D30CB6AD31A181A002804D4088D4885C86AAD
S31508001D40101A0CE0486ACB6AC01A012802DB002088
S31508001D50488503E0C86A4B6AC01A48850020704760
S31508001D6070B504000D00208D28182085208D40F6BA
S31508001D706931884202DB40F6683020852000FFF78B
S31508001D80CAFF060040F2DA20864208DB94F82200F1
S31508001D9050F0020084F82200200000F044FE70BDD6
S31508001DA02DE9FC4700208246DFF82C060068401C17
S31508001DB0DFF82416086000200600DFF8140600681D
S31508001DC00400002C00F03081002080460020814667
S31508001DD0207C022806D194F84A00062802D118F178
S31508001DE001086CE094F84A000C2802D118F10108A1
S31508001DF065E094F89C0000281FD0D4F89800401C91
S31508001E00C4F89800D4F8980094F89C10DFF8CC250C
S31508001E10891811F8011C884251D30020C4F898008B
S31508001E2094F89C00072804D294F89C00401C84F877
S31508001E309C00200001F06CF841E0B4F93600002857
S31508001E4002D4E08E401CE086A06F002837D0B4F993
S31508001E503600B4F94810884231DB207C02280DD0C0
S31508001E60B4F94400B4F9461011EBE00094F84A10AE
S31508001E70DFF86C2589568840A4F848000020E086DB
S31508001E80B4F85200B4F85C10884202D2B4F8527022
S31508001E9001E0B4F85C70BFB27808A4F85400B4F84E
S31508001EA05400218F884204D2208F80B24000A4F8C3
S31508001EB05400208FA4F85200200000F085FF207CF3
S31508001EC0062808D1DFF810050068216B401A292872
S31508001ED001D318F10108207A000735D5207C04289B
S31508001EE002D0207C07282FD1D4F89400DFF8F41408
S31508001EF008184FF4FA71B0FBF1F0DFF8DC14096842
S31508001F00226B891A884204D218F1010819F10109CD
S31508001F101AE0D4F8940094F89D10DFF8CC2402FB5C
S31508001F2001004FF4FA71B0FBF1F0DFF8AC14096860
S31508001F30226B891A884207D2200000F0C6FF94F85F
S31508001F409D00401C84F89D00207C032808D1DFF8FA
S31508001F5088040068216B401A292801D318F1010862
S31508001F60207C092808D1DFF870040068216B401A24
S31508001F70F12801D318F101085FFA88F8B8F1000FC3
S31508001F802CD0200000F0A0F9002E02D0E068F06006
S31508001F9003E0E068DFF838140860D4F890000028F9
S31508001FA005D07FF004016069D4F8902090475FFA65
S31508001FB089F9B9F1000F09D0208C0190208B009087
S31508001FC0231D2200616AA06D00F09CFEE0680500F2
S31508001FD02100022000F057FA2C00F2E694F83400AB
S31508001FE0401C84F8340094F8340094F8351088427C
S31508001FF017D3002084F83400D4F88C00002806D0C3
S3150800200021006069D4F88C209047824601E00020C0
S3150800201082464FFA8AFABAF1000F02D1200000F080
S3150800202002FD2600E468CCE600200600DFF8A403DB
S3150800203000680400002C26D000208046DFF89803AC
S315080020400068216B401AF12801D318F101085FFADC
S3150800205088F8B8F1000F13D0200000F035F9002EEB
S3150800206002D0E068F06003E0E068DFF86813086013
S31508002070E06805002100022000F005FA2C00D9E7E7
S315080020802600E468D6E7BDE8F38770B5DFF84003B5
S3150800209000680400002C30D0E06F002818D0D4F86F
S315080020A08400002808D00023E26F21006069D4F874
S315080020B08460B047050006E00023E26F2100002097
S315080020C000F040F805006DB2002D01D10020E06750
S315080020D094F82200C0070ED594F8220050F00200AA
S315080020E084F82200200000F09EFC94F8220010F0EC
S315080020F0FC0084F82200E468CCE770BD70B50400E3
S315080021000025002C08D020680600200000F007F8FB
S31508002110401905003400F4E72800C0B270BD38B590
S3150800212004000025002C0AD06068002803D06068E7
S31508002130FFF763FB05002100042000F0A4F928003E
S31508002140C0B232BDF8B504000D0016001F00002EFF
S3150800215007D031892800FFF703FE3000FFF74DFB53
S3150800216006E07FB2002F03D12800FFF7E6FC00E067
S315080021700020F2BD2DE9F04104007F2080460020B2
S31508002180070000200600924800680500002D18D0B8
S31508002190687CE4B2844212D3687C5FFA88F880458A
S315080021A00DD38D480068296B401AB84207D38A4870
S315080021B00068296B401A07002E00687C8046ED6887
S315080021C0E4E7002E03D001213000FFF749FDBDE802
S315080021D0F08170B500200600002005007D480068E3
S315080021E00400002C0DD07C480068216B401AB042D0
S315080021F005D379480068216B401A06002500E46873
S31508002200EFE7002D03D001212800FFF729FD70BD57
S3150800221070B50400022000F022F90500002D0FD148
S31508002220FFF7D7FF022000F01AF90500002D07D1A5
S315080022302000C0B2FFF79EFF022000F010F905004B
S31508002240002D3FD0A0220021280001F05FF8402091
S31508002250687441F2D060A5F86E000020A5F87000F9
S3150800226040F66830288540F6683068850020A872F0
S31508002270FF20E8724FF4067028870620A5F8480064
S315080022800020A5F844000620A5F846005FF0FF30B8
S31508002290E8860120A5F8520000F071F806006E667F
S315080022A0AE65EE64AE664C4800682863002085F883
S315080022B034004E48C5F884004D48C5F894000020FF
S315080022C085F89D00280070BD10B50400207C002804
S315080022D016D0207C0A2813D0207C012810D0E06F65
S315080022E0002804D0E06FFFF788FA0020E067606FE7
S315080022F0FFF704FFA06FFFF701FF00206067A067E4
S3150800230010BD38B504000D002068A84203D1206826
S31508002310C068206016E02C48216801602A480068D9
S3150800232000280FD028480068C068A84204D126486B
S315080023300068E968C16005E023480068C06822496A
S315080023400860EBE70020E8602800FFF7BDFF287C5F
S315080023500A280FD0287C01280CD095F82200C0073F
S3150800236008D595F8220050F0020085F822002800CA
S3150800237000F059FB287C01280020287431BD1D482F
S3150800238000681549096808181A4908601948006854
S315080023907047F8B504000D00280000F0C1FF0700DB
S315080023A0002F0AD0388D002807D0388D2838060027
S315080023B0A4B2B6B2B44200D33400200080B2F2BD53
S315080023C0DAE300209CE30020ACE30020A0E3002031
S315080023D0A4E30020A8E3002098E3002040BB0008FF
S315080023E004BB0008B84C0A00F8240100452100087F
S315080023F000DD6D005408002010B400231A0092B2C4
S31508002400092A01DA521CFAE7254B9B089B0018009B
S3150800241000231A0092B2092A1FDA92B2214B00242D
S3150800242043F822400023190092B21F4B33F81230AA
S3150800243089B299420FD292B21A4B53F822300360EE
S3150800244092B2184B43F8220092B2184B33F8123066
S315080024501818491CE8E7521CDCE710BC7047010055
S31508002460C9B2092901DB00200CE0C9B20D4850F8B1
S3150800247021000200002A04D0C9B20A48136840F8AD
S31508002480213010007047002909D00A00C0B2054B58
S3150800249053F820301360C0B2024B43F8202070472F
S315080024A07B3000205CE20020F0BA0008DCBA0008A5
S315080024B02DE9F84304000D0016001F00D5F8048026
S315080024C0208BFFF731F8A8F80000208CFFF72CF8CE
S315080024D0A8F80200C8F80470606AFFF732F8C8F86E
S315080024E008004FF6C070FFF71FF8B8F80C1010EA8E
S315080024F001091020FFF718F850EA0900A8F80C009F
S31508002500608DFFF711F8A8F80E000020A8F8120051
S31508002510B8F80C00FFF70EF8042196FBF1F1491DF7
S3150800252010F03F0050EA013080B2FEF7FDFFA8F830
S315080025300C000020A8F81000606A618D0818E06297
S315080025404046BDE8F28330B583B004000D00002094
S315080025500190012000902B00DBB200220021200010
S3150800256000F001F83EBD2DE9FE4F84B00400BDF829
S31508002570140000280BD19DF84400002807D19DF8C7
S3150800258018000321084202D17FF0090018E2BDF8BD
S315080025901400002805D10498002802D07FF009000D
S315080025A00EE2B4F86E00BDF81410884208D294F80A
S315080025B0220050F0800084F822005FF0FF30FFE12F
S315080025C0BDF814008146049802909DF84400C0079F
S315080025D001D5042000E000209DF84410890701D5A4
S315080025E00C2100E0002108188DF80400A06E83462F
S315080025F0B4F8700080461FFA88F8B8F1080F05DAB3
S315080026001FFA88F84FF6FD70804508DB94F822001B
S3150800261050F0800084F822005FF0FF30D0E11FFA06
S3150800262088F8B8F1000FFFD10020050006008246A1
S3150800263000200700002E05D01FFA89F9B9F1000F0E
S3150800264000F0D380208F9DF80410401A1FFA89F9EC
S31508002650484504DA208F9DF80410471A00E04F46D3
S315080026600420FFF7FCFE0500002D00F099810020EC
S31508002670286000206860002E01D12E0001E0CAF80B
S315080026800050AA469DF84000C00722D500229DF8B2
S315080026900400C11989B20020FEF765FF68600028AA
S315080026A000F07E816868FFF7E0F810EB08008046C6
S315080026B00498002809D0BFB23A0002999DF8040090
S315080026C06B685B68C01800F01BFE68684068A86005
S315080026D031E000229DF8041089B20020FEF743FF7E
S315080026E06860002800F05C816868FFF7BEF810EBA8
S315080026F0080080461FFA89F9B9F1000F1BD001229C
S31508002700390089B20320FEF72EFF0390002805D171
S315080027106868FFF772F80020686041E118F101085F
S315080027200398029941600298A86003996868FFF7C0
S31508002730ACF8002003901FFA88F8B8F1090F05DAFB
S315080027401FFA88F84FF6FD70804500DB28E1AF8157
S3150800275014216868FFF703F8002840F021816868AB
S3150800276040682861208BFEF7DFFE29690880208CE7
S31508002770FEF7DAFE296948805846FEF7E2FE29691F
S3150800278048602869002141824FF6C070FEF7CCFEEA
S3150800279029698989084000909DF8180080B2FEF7DB
S315080027A0C3FE00990843296988819DF84400A873E7
S315080027B028698089FEF7BEFE9DF80410042291FB65
S315080027C0F2F1491D10F03F0050EA013080B2FEF7E1
S315080027D0ABFE29698881B9EB0709BFB217EB0B0B6A
S315080027E0BFB202983818029024E7606F002802D119
S315080027F00020824608E0606F8246DAF8000000286A
S3150800280002D0DAF800A0F8E7BAF1000F00F08480E9
S31508002810DAF810008089FEF78DFE0321084201D000
S31508002820012000E00020BAF80C10C0B240180028B9
S3150800283072D0DAF810008089FEF77CFE0321084280
S315080028406AD19DF818000321084203D09DF81800A4
S31508002850012861D1208FBAF80C10B2895118884224
S315080028605ADB9AF80E00B17B884255D1DAF8100087
S315080028704068FEF772FEBAF80C1008180090306926
S315080028804068FEF76AFE0099814245D19DF804002A
S315080028901430414209B27068FEF761FF002840F023
S315080028A07F807068408900280CD170680090706835
S315080028B000687060009800210160B8F1010800986E
S315080028C0FEF79BFF9DF81800C0070CD5DAF8100034
S315080028D0808900900120FEF727FE00990843DAF860
S315080028E0101088810DE07168DAF80400FEF7CDFF54
S315080028F0BAF80C00B1890818AAF80C003068CAF8AA
S315080029000000B54203D15546BAF80C00070031005D
S315080029100420FFF7B8FD06E0BAF1000F01D166679B
S3150800292001E0CAF800609DF818000321084204D0A7
S31508002930BDF81400401CADF814009DF81800C00737
S3150800294005D594F8220050F0200084F82200A06EE5
S31508002950BDF814100818A066B4F86E00BDF8141077
S31508002960401AA4F86E00A4F87080B4F87000002825
S31508002970002D13D0BFB2002F10D0286900280DD023
S315080029809DF84000800709D42869808900900820AE
S31508002990FEF7CAFD009908432969888100200FE0DF
S315080029A094F8220050F0800084F82200002E02D00D
S315080029B03000FFF7A3FBB4F8700000285FF0FF3083
S315080029C007B0BDE8F08F7CB5040000260022F6B2F9
S315080029D016F1140189B20120FEF7C5FD0500002D88
S315080029E002D17FF001001DE094F8220010F0FC00EF
S315080029F084F82200A06DFEF7A4FD0300F6B23200AB
S31508002A0029002000FFF754FD06200190A07A0090C7
S31508002A10E37A221D2100280000F04AFE2800FEF76E
S31508002A20ECFE002076BD2DE9F0470400B2480068A8
S31508002A30A04201D10020F8E0B4F85C00B4F85210C6
S31508002A40884202D2B4F85C6001E0B4F85260606F64
S31508002A50050094F8220080070FD5002D09D02869B3
S31508002A604068FEF77AFDE16C401AA9890818864283
S31508002A7003D22000FFF7A7FFD7E0A06F0700002FBB
S31508002A8004D03868002801D03F68FAE7002D00F026
S31508002A90AD8028694068FEF760FDE16C401AA98997
S31508002AA008188642C0F0A28028698089FEF742FD90
S31508002AB0A16F002910D094F82200442108420BD1B6
S31508002AC0606F00280AD0606F0068002804D1606F24
S31508002AD08089218F884201D3012000E00020002848
S31508002AE005D194F82200A021084200F07F802868CA
S31508002AF06067207C02280FD02869B0F80C90102057
S31508002B00FEF712FD50EA09002969888194F8220027
S31508002B1010F0FC0084F822002100280000F087F855
S31508002B2028694068FEF719FD814628698089FEF7FD
S31508002B3001FD0321084201D0012000E00020A989F7
S31508002B40C0B2401810EB0908A06DB0EB08000028C9
S31508002B5001D5C4F8588028698089FEF7EBFC032163
S31508002B60084201D0012000E00020A989C0B240181F
S31508002B70012835DB00202860A06F002802D1A56750
S31508002B802F0030E028694068FEF7E7FC814638697F
S31508002B904068FEF7E2FCB9EB000000281DD514F1E9
S31508002BA07809D9F80000002811D0D9F80000006982
S31508002BB04068FEF7D2FC824628694068FEF7CDFCDD
S31508002BC0BAEB0000002802D5D9F80090E9E7D9F851
S31508002BD000002860C9F8005005E03D603F6802E043
S31508002BE02800FFF79CFA606F05004FE7002D15D007
S31508002BF094F89C00002811D128694068FEF7ADFCBE
S31508002C00E16C401AA9890818B4F85C10814205D20B
S31508002C100020C4F89800012084F89C0094F822004B
S31508002C2010F07F0084F822000020BDE8F0872DE927
S31508002C30FC4104000D00686AFEF783FC2169886080
S31508002C40688DFEF771FC2169C881686A698D081864
S31508002C50E862206914308046A07BC00706D527485D
S31508002C60FEF76FFCC8F8000018F10408002D02D022
S31508002C70286800280CD1281D00F052FB0700002FF9
S31508002C8037D0381D002801D1002000E07868286078
S31508002C90B5F9360010F1010F01D10020E886E86B7E
S31508002CA0002807D116480068E86320694068FEF7DF
S31508002CB054FC2864206961684968401A06006068FF
S31508002CC04089801B6168488160680089801B61684B
S31508002CD00881606821694160206900210182062017
S31508002CE00190A87A0090EB7A2A1D2900606800F006
S31508002CF0DFFCBDE8F3810000C4E30020B40504024C
S31508002D0098E300202DE9F04F83B006000F009046A7
S31508002D1099460C9C0D9D002214210120FEF723FCE8
S31508002D208246BAF1000F4DD0DAF804008346200037
S31508002D3080B2FEF7F9FBABF80000280080B2FEF778
S31508002D40F3FBABF802003000FEF7FBFBCBF8040000
S31508002D503800FEF7F6FBCBF808004FF6C070FEF712
S31508002D60E3FBBBF80C10084000901420FEF7DCFBD0
S31508002D7000990843ABF80C0040F66830FEF7D4FB20
S31508002D80ABF80E000020ABF81200BBF80C00FEF7FB
S31508002D90D1FB10F03F0050F4A04080B2FEF7C4FB10
S31508002DA0ABF80C000020ABF81000062001900020BC
S31508002DB00090FF234A464146504600F079FC5046AB
S31508002DC0FEF71BFDBDE8F78F38B50400A06F002895
S31508002DD016D0A06F05002868002801D02D68FAE7EC
S31508002DE0606F2860A06F60670020A06794F84A00AB
S31508002DF0401C84F84A000020E0632000FFF713FE19
S31508002E0031BDF8B50400A06F002822D0A06F0500D8
S31508002E102868A06714F174000600306800280ED0F0
S31508002E20306800694068FEF798FB07002869406823
S31508002E30FEF793FB381A002801D53668EDE73068A7
S31508002E402860356094F84A00401C84F84A0000203F
S31508002E50E063F1BD10B50400A06F002834D094F8E3
S31508002E602200400730D42000FFF7CBFFB4F85C00FF
S31508002E70B4F85210884207D2B4F85C00022190FBDD
S31508002E80F1F0A4F8540006E0B4F85200022190FBD1
S31508002E90F1F0A4F85400B4F85400218FB0EB410FB8
S31508002EA004DA208F80B24000A4F85400B4F8540025
S31508002EB0218F032202FB0100A4F8520094F8220095
S31508002EC050F0040084F8220010BD30B583B0040029
S31508002ED0002214210120FEF746FB0500002D16D01E
S31508002EE0A06D401EFEF72DFB0300002229002000DE
S31508002EF0FFF7DEFA0620019000200090E37A221DF3
S31508002F002100280000F0D4FB2800FEF776FC37BD28
S31508002F102DE9FC470400A06F0700002F01D1606F60
S31508002F200700002F4CD038698089FEF703FBC007DD
S31508002F3005D5B889002802D15FF0010901E05FF0E4
S31508002F4000095FFA89F9B9F1000F02D05FF0140899
S31508002F5001E05FF015080022414689B20120FEF71C
S31508002F6002FB0500002D2BD0386943680022290092
S31508002F702000FFF79DFA06005FFA89F9B9F1000FFC
S31508002F800DD04FF6C070FEF7CFFAB18910EA010AE4
S31508002F901120FEF7C9FA50EA0A00B08103E0686812
S31508002FA0B968097801750620019000200090E37A37
S31508002FB0221D2100280000F07BFB2800FEF71DFCDF
S31508002FC0BDE8F38710B40388C94C24681B19190097
S31508002FD0884216D00B79002B13D1C64B1B68994231
S31508002FE00FD0C54B1B688B4201D1C34B18600B88A9
S31508002FF003800B88BE4C24681B19BD4C2468041B2F
S315080030005C804388BA4C24681B191A00824212D085
S315080030101379002B0FD1B84B1B68834201D1B64BED
S315080030201A60038813800388B14C24681B19B04CB6
S315080030302468141B5C8010BC7047B0498908890055
S31508003040AB4A1160AA49096808004FF4205101806B
S315080030500021418000210171A549096811F5205117
S31508003060A44A1160A349096801220A71A14909689D
S315080030704FF420520A809F4909684FF420524A802B
S315080030809D499B4A12680A60704738B50400002CAF
S3150800309016D097480068844203D39648006884424D
S315080030A000D30DE0B4F1080005000020287192480D
S315080030B00068854201D2904805602800FFF782FF24
S315080030C031BDF0B50200C81C4FF6FC71014089B24B
S315080030D00C2901DA0C20010089B2B1F5205F01DD67
S315080030E000208BE082480068824203D3814800684A
S315080030F0824201D3100081E0B2F1080006007C4844
S315080031000068301A04003088A4B2001B083803008F
S315080031109BB289B28B4201D200206FE089B29BB282
S31508003120994201D1100069E03088DFF8C4C1DCF8A3
S3150800313000C010EB0C0007003879002837D1B7F823
S3150800314000C0604611EB040C1CF1080C6546DFF85C
S31508003150A8C1DCF800C0BC450AD1ADB2DFF890C101
S31508003160DCF800C015EB0C0CDFF88CE1CEF800C0DB
S31508003170ADB2DFF87CC1DCF800C015EB0C0C674675
S315080031805FF0000C87F804C038807C803580B7F87B
S3150800319000C0BCF5205F30D0B7F800C0DFF850E1BA
S315080031A0DEF800E01CEB0E0CACF8025025E09BB2F2
S315080031B089B211F1140083421FD30819083005009B
S315080031C0ADB24B480068281807004B48006887428C
S315080031D001D24948076000203871308838807C80E1
S315080031E035803888B0F5205F07D03888DFF800C109
S315080031F0DCF800C010EB0C0045801000F0BD70B480
S315080032000500ADB2002D01D100206FE0E81C4FF695
S31508003210FC750540ADB20C2D01DA0C200500ADB2E7
S31508003220B5F5205F01DD002060E033480068304EC8
S315080032303668801B010089B2ADB2D5F520508142AF
S3150800324053DA89B22A480068081803001879002852
S3150800325046D1188889B2401A0838ADB2A8423FD379
S31508003260188889B2401A0838ADB215F11406B0426A
S3150800327019D368180830020092B21D480068101861
S315080032800400002020711888208061801A8001209F
S3150800329018712088B0F5205F07D02088144E36684C
S315080032A08019428001E001201871134800688342A2
S315080032B013D111480068007900280ED00E4800681E
S315080032C00C4E3668B04208D00B4800680088084E95
S315080032D036688019084E3060EBE713F1080005E000
S315080032E089B203480068095AA5E7002070BC7047F0
S315080032F038E300203CE3002040E300206708002074
S3150800330010B5044600F0F6F9204610BD10B504467F
S3150800331010460A460146204600F040FA204610BDEF
S3150800332038B50400DFF8740300680500002D10D0D6
S31508003330280000F029FB002809D02068A968084061
S315080033406968AA681140884201D128000FE02D68F3
S31508003350ECE7D3480068002805D0D148006800F09B
S3150800336013FB002801D1002001E0CD48006832BDDA
S315080033702DE9F84F04000D005FF0010860680600AB
S315080033803088FEF7D7F880B2000B80B2042804D044
S315080033902000FEF732FA0020E6E03088FEF7CAF889
S315080033A0C0F3032081461FFA89F95FEA8909708804
S315080033B0FEF7C0F8070060891FFA89F9484503D364
S315080033C02089BFB2B84204D22000FEF716FA0020C0
S315080033D0CAE0390089B22000FEF78BF95FF0010BCD
S315080033E0AA46504600F0D0FA002814D01AF1040074
S315080033F0002810D0DAF8040000280CD03069DAF872
S315080034000410884206D0514616F11000FEF74BFB11
S31508003410002800D011E0BBF1000F05D0002083463C
S315080034209E480068824601E0DAF800A0AA4501D164
S31508003430DAF800A0BAF1000FD3D1BAF1000F11D112
S315080034403089FEF777F8C0B211280BD11FFA89F92F
S3150800345019EB06004088FEF76DF8442802D1AA4603
S3150800346000208046B8F1000F1BD0F068002818D05D
S31508003470290016F10C00FEF716FB00280CD15FF0A8
S315080034807040FEF76AF8F16810EA010B5FF06040D9
S31508003490FEF763F8834504D12000FEF7AEF9002055
S315080034A062E0BAF1000F04D12000FEF7A6F9002069
S315080034B05AE0B6F806B043F6FF70FEF735F8010095
S315080034C01BEA010F09D0200000F0E2FB0400002CE3
S315080034D001D1002048E0606806007248056072481D
S315080034E006602900200000F077FD002835D13089D4
S315080034F0FEF720F8C0B2C0B201280DD0062806D0C3
S3150800350011280ED12900200000F0AAFD25E0290087
S315080035102000FCF737FE20E02900200000F0A6FF77
S315080035201BE0290016F11000FEF7BDFA002811D19C
S315080035305FF07040FEF711F8316910EA010B5FF091
S315080035406040FEF70AF8834504D066600221200031
S3150800355001F04DF82000FEF750F9524800210160AD
S315080035605148002101600020BDE8F28F2DE9F84F8F
S3150800357006000F0090460A9C0B9DDDF83090B8F1C6
S31508003580000F6ED05FF0140B14213000FEF7E7F839
S31508003590002802D07FF001007DE070688246BAF804
S315080035A00800FDF7C7FFC0B29DF8001050EA0120D9
S315080035B080B2FDF7B9FFAAF80800BAF80800FDF7C7
S315080035C0B9FFEDB280B2000A55EA002080B2FDF7D5
S315080035D0ABFFAAF80800B8F1000F01D1002001E0FE
S315080035E0D8F80000CAF810001FFA8BFB04209BFBD2
S315080035F0F0F0E4B254EA002050F4804080B2FDF7BF
S3150800360093FFAAF800003089FDF78EFFAAF802009A
S315080036100020AAF8060025480088FDF785FFAAF8C5
S31508003620040022480088401C20490880002F02D048
S31508003630386800280AD119F10400002801D10020B1
S3150800364001E0D9F80400CAF80C0006E0002F01D101
S31508003650002000E03868CAF80C000020AAF80A0022
S3150800366004E0706882461AF110008046B9F828000E
S3150800367000280AD0B9F828003189884205D242467E
S315080036804946300000F0E4FB05E042463100484672
S31508003690D9F814309847BDE8F28F00004CE30020B3
S315080036A050E30020D8E20020F8E20020D0E3002012
S315080036B02DE9F04784B006000F00904699460C9D08
S315080036C00D9C4046FFF72CFE8246002802D17FF06B
S315080036D003000CE0CDF808A0E4B20194EDB2009521
S315080036E04B46DBB2424639003000FFF73FFF04B0D5
S315080036F0BDE8F08762B38B0708D0521E11F8013B6C
S3150800370000F8013B00F024808B07F6D1830740F0D0
S31508003710208000BF103A07D330B4B1E83810103A09
S31508003720A0E83810F9D230BC530724BFB1E8081016
S31508003730A0E8081044BF51F8043B40F8043BD20700
S3150800374024BF31F8022B20F8022B44BF0B780370F4
S315080037507047121F17D35B0009D151F8043B121F9B
S3150800376020F8023B1B0C20F8023BF6D20BE051F87E
S31508003770043B121F00F8013B1B0A20F8023B1B0CF6
S3150800378000F8013BF3D238BF121D521E24BF11F8B0
S31508003790013B00F8013BF8D87047000062F30F229E
S315080037A062F31F42401810F0030308D0C91A1FD34A
S315080037B0DB0748BF00F8012D28BF20F8022D1300AB
S315080037C030B414461546103928BF20E93C00FAD80B
S315080037D0490728BF20E90C0048BF40F8042D890096
S315080037E028BF20F8022D48BF00F8012D30BC7047CD
S315080037F0C91818BF00F8012DCB0728BF00F8012DFE
S31508003800704700002DE9F04704000D0016001F0060
S31508003810DDF82080DDF82490DDF828A0002060601F
S315080038200020A0600020E060002084F8310000201D
S31508003830206200206062C4F81C803E48007884F844
S3150800384034003C480078401C3A490870C4F810A077
S315080038503B0032002900200000F00EF82000C8477F
S31508003860002801D0002005E033480068206032486F
S3150800387004602000BDE8F087F8B504000D001600C6
S315080038801F002900200000F009F83100200000F090
S3150800389045F83900200000F03AF8F1BD2DE9F0416D
S315080038A004000D0028686168884228D0244800680A
S315080038B00600002E0DD030686168884207D1D6F818
S315080038C00C8001213000FEF7CBF94646F1E7F66891
S315080038D0EFE71C4800680700002F10D0002F0CD017
S315080038E03868002809D038686168884205D1002DF3
S315080038F001D1002000E028683860FF68ECE7002D59
S3150800390001D1002000E028686060BDE8F081002948
S3150800391001D1002200E00A68C2607047002901D17F
S31508003920002200E00A688260704704490860704710
S3150800393000000000D9E300204CE3002050E30020FB
S31508003940A4E30020A0E3002010B5040094F8310099
S31508003950C0070DD494F8310050F0010084F8310006
S3150800396094F83100800603D5211D200001F0B2FB32
S3150800397010BD90F83110C90705D590F8311011F02F
S31508003980FE0180F83110704790F8310010F0010000
S31508003990704700002DE9F84304000D000026002DAD
S315080039A0606840688046B8F80400002816D1606848
S315080039B00700D8F800006060142214F1080178683E
S315080039C0FFF79EFC0121380000F01BFE3800FDF7CA
S315080039D04CFF801906003800FDF70FFF60680700E6
S315080039E0002F0ED078688046B946D8F80000070040
S315080039F04846FDF73AFF801906004846FDF7FDFEE2
S31508003A00EEE72900200000F07CF8DFF8C4050088FE
S31508003A10801BDFF8BC1508803000BDE8F2832DE96D
S31508003A20F84F04000D005FF0000A00200700002090
S31508003A30804600208346DFF8940500680600002EBD
S31508003A4021D07069E168884207D1B0692169884246
S31508003A5003D1B089A188884201D0012000E0002066
S31508003A6000280AD01BF1010B002F01D1370004E012
S31508003A70F87FF17F884200D337003068002800D0ED
S31508003A80B0463668DBE7002F06D041463800FFF718
S31508003A9081FF814619EB0A0AAA4502DABBF1020F31
S31508003AA0C3DA5046BDE8F28F70B504000D00052054
S31508003AB0FEF7D5FC0600002E0DD129002000FFF7E1
S31508003AC0AEFFA84203DB0520FEF7C9FC0600002E60
S31508003AD001D1002014E0202200213000FFF716FC57
S31508003AE00320F077DFF8E40400683060DFF8DC04D0
S31508003AF006601422210016F10800FFF701FC3000C9
S31508003B0070BD38B504000D00DFF8C0040068A04297
S31508003B1004D1DFF8B8042168016001E02068286054
S31508003B2021000520FEF7AFFC31BD2DE9F04F83B02B
S31508003B3004000D005FF000085FF0010A6868019054
S31508003B4001984088FDF7F6FC834601980088FDF742
S31508003B50F1FC1FFA8BFBC0F3032080B2BBEB80009D
S31508003B60ADF802000198C088FDF7E4FCC004C00C5B
S31508003B7080B2C000ADF8000068680600002030601A
S31508003B80BDF80000B080BDF80000BDF802100818A6
S31508003B90F08060688146B9F1000F30D0D9F804008A
S31508003BA00700B088B988884213D2C6F80090B8F1E1
S31508003BB0000F0CD0B088B8F80610884203D3B8882E
S31508003BC0F188884200D254E0C8F8005000E06560E9
S31508003BD015E0B088B98888424BD0B088F988884201
S31508003BE047D3B8F1000F06D0B8F80600B98888425E
S31508003BF001D00020824638688146B846CBE7B9F13D
S31508003C00000F0DD1B8F1000F09D0C8F80050B8F868
S31508003C100600B188884203D00020824600E065602D
S31508003C20A07FC00723D5BAF1000F1ED06068406890
S31508003C308088002802D00020824616E0B046306808
S31508003C408146B9F1000F0ED0D9F804000600B8F87D
S31508003C500600B188884202D00020824603E0B046BA
S31508003C6030688146EDE7BAF1000F50460EE00020B5
S31508003C700CE02800FDF7F9FDD5490988C0B2081AF5
S31508003C80D34908802800FDF7B8FD0020BDE8FE8F5F
S31508003C902DE9F84F04005FF0000A606806003088D6
S31508003CA0FDF748FCC0F3032080B28000142840F0DA
S31508003CB0C980F088FDF73EFCC004C00C80B2C00085
S31508003CC0ADF802007088FDF735FC83463088FDF7AD
S31508003CD031FC1FFA8BFBC0F3032080B2BBEB8000DC
S31508003CE0ADF800002000FDF7C0FD8146B848008801
S31508003CF05FFA89F919EB00000B2810DB5FFA89F9DE
S31508003D0049463000FFF78BFE002807D0B0480088E8
S31508003D105FFA89F919EB00000B2800DB92E0AB4843
S31508003D2000680700002F13D07869F168884209D126
S31508003D30B8693169884205D1B889B188884201D104
S31508003D40012000E00020002802D1BA463F68E9E7D2
S31508003D50002F09D15FFA89F949463000FFF7A4FE1A
S31508003D600700002F10D16DE0F088FDF7E3FBC004D3
S31508003D700AD1F889FDF7DEFBC00405D0142231000C
S31508003D8017F10800FFF7BCFA914800885FFA89F92D
S31508003D9019EB00008E490880F088FDF7CBFB8004FC
S31508003DA009D4B87F50F00100B877BDF80200BDF815
S31508003DB000100818B88321003800FFF7B6FE00285F
S31508003DC03ED0B88B1430B883786840680068050020
S31508003DD0786840680600142217F108013000FFF7DA
S31508003DE08FFAB88BFDF7A0FB70800020F0800020CA
S31508003DF070811421300001F0F4F9708178680400AC
S31508003E00002D0ED0686880467FF013012800FDF764
S31508003E10A6FC29002000FDF738FDD8F800000500AB
S31508003E20EEE751463800FFF76CFE2000FDF71DFD52
S31508003E3067490988C0B2081A65490880200005E064
S31508003E40002003E02000FDF7D8FC0020BDE8F28F33
S31508003E502DE9F74F84B00598008DADF806001420BB
S31508003E60ADF80400022200210220FDF77CFB0400C5
S31508003E70002C02D15FF0FF30A4E0BDF80600608197
S31508003E80208154488008800060606068060014221B
S31508003E90049841683000FFF733FAF088FDF74AFBCB
S31508003EA082465FEACA40C00C80461AF40050ADF854
S31508003EB00A000498008914380700BDF8060014386B
S31508003EC0082190FBF1F0ADF80800BFB2002F75D0BD
S31508003ED0BDF806001438BFB2B84202DB5FF001092C
S31508003EE001E05FF000095FFA89F9BDF80A005FEAA8
S31508003EF0C841C90C084382461FFA89F9B9F1000F6F
S31508003F0001D15AF4005A1FFA89F9B9F1000F01D004
S31508003F10BB4604E0BDF8080080B25FEAC00BBDF8F6
S31508003F2004000090BDF804305A4692B216F1140106
S31508003F300498FDF72BFD00994018ADF8040050468B
S31508003F4080B2FDF7F1FAF0801BF1140080B2FDF79C
S31508003F50EBFA7080002070811421300001F041F9DD
S31508003F6070811FFA89F9B9F1000F05D017F114010C
S31508003F7089B22000FDF7BDFB002200210220FDF7D3
S31508003F80F2FA0500002D13D021002800FDF794FC55
S31508003F90069A29000598059B5B6998472800FDF74E
S31508003FA02CFCB7EB0B07BDF8080010EB08088CE7EC
S31508003FB02000FDF722FC5FF0FF3003E02000FDF74C
S31508003FC01CFC002007B0BDE8F08F0000FCE20020D2
S31508003FD0D2E300204FD700202DE9F04704000D005A
S31508003FE05FF0000A60688046B8F80800FDF7A2FA94
S31508003FF0C0B28146002007001848006806005FFA2C
S315080040008AFABAF1000F24D1002E22D0307C00B2F1
S315080040100FFA89F9484519D17069002816D018F1A0
S315080040200C0322003100B069D6F814C0E047002816
S315080040300CD00020040001208246002F06D0F0682C
S31508004040F86006480068F060044806603700F668BD
S31508004050D5E75046C0B2BDE8F087000054E300201B
S315080040602DE9F04F85B004000D0060680700388818
S31508004070FDF760FA2189C0F3032080B2800008307A
S3150800408081420EDB3888FDF755FAC0F3032080B26B
S31508004090800000B2414209B22000FDF760FB00280B
S315080040A003D02000FDF7A9FBF4E06068039029001F
S315080040B017F11000FDF7F7FC824603980088FDF714
S315080040C039FA804603984088FDF734FAADF80400BB
S315080040D000208346BDF80400442820D11FFA88F83A
S315080040E0B8F1430F40F08080286A00287CD0286AFF
S315080040F04068002878D0286A4068001D00280AD041
S31508004100286A40684068002805D0286A40684068E0
S31508004110F968884268D1286A4068834664E00020C6
S3150800412002900020814600200600DFF81C03006884
S315080041308346BBF1000F53D000208146BBF812001E
S31508004140BDF8041088421ED15FFA8AFABAF1000F48
S3150800415006D1BBF1000F0DD0DBF80000002809D00E
S31508004160DBF800003969884204D05FFA8AFABAF1A6
S31508004170000F08D001208146002E04D19BF81000BC
S31508004180400700D45E465FFA89F9B9F1000F22D0DC
S31508004190BBF814001FFA88F840451CD11BF104002F
S315080041A0002808D0DBF80400002804D0DBF8040057
S315080041B0F96888420FD1029800280BD00298DBF8DC
S315080041C00C10C160DFF880020068CBF80C009E482E
S315080041D0C0F800B004E0CDF808B0DBF80CB0A8E7EA
S315080041E0BBF1000F00D1B346BBF1000F03D16868DD
S315080041F0396988424BD17FF007012000FDF7AFFAF5
S31508004200002803D02000FDF7F8FA43E0BBF1000FC1
S3150800421015D0DBF8180000280DD01FFA88F8CDF85D
S31508004220008017F10C0322005946DBF81C00DBF866
S3150800423018C0E0472EE02000FDF7DFFA2AE05FFA13
S315080042408AFABAF1000F1ED15FF07040FDF785F9C2
S315080042503969084000905FF06040FDF77EF90099E3
S31508004260814210D03888FDF765F9C0F3032080B283
S31508004270800010F1080109B22000FDF770FA032149
S31508004280200000F0B4F92000FDF7B7FA02E020009C
S31508004290FDF7B3FA05B0BDE8F08F2DE9F04182B01D
S315080042A004000D0016001F003000FFF739F880469D
S315080042B0B8F1000F02D17FF0030008E0CDF80080C6
S315080042C03B009BB232002900200000F002F8BDE84E
S315080042D0F6812DE9F44F84B004000D001E000E9FF0
S315080042E0608A00280DD1628A2100200000F067F854
S315080042F082464FFA8AFABAF1000F02D0504640B207
S315080043005AE008212800FDF72AFA002810D00022D2
S3150800431008210120FDF727F98346BBF1000F02D1DA
S315080043205FF0FF3048E029005846FDF7C5FA00E07F
S31508004330AB46DBF804008046608AFDF7F5F8A8F876
S315080043400000300080B2FDF7EFF8A8F80200002060
S31508004350A8F80600002C02D02068002802D1381DD3
S3150800436081460EE020687968884209D0AB4504D0BA
S315080043705846FDF742FA002083467FF008001BE006
S31508004380A146BBF80800FDF7CFF8A8F80400029785
S3150800439011200190A07A0090E37A049A494658467B
S315080043A0FFF7E4F88246AB4504D05846FDF725FAF0
S315080043B000208346504640B205B0BDE8F08F30B4C1
S315080043C0030000200400204800680500002D05D0E1
S315080043D0AB4201D101200400ED68F7E7002901D1BD
S315080043E0002000E00868186092B2002A1CD14FF439
S315080043F080500200144800680500002D0FD092B2C4
S3150800440047F6FF7082420AD0688A92B2904204D177
S31508004410521C0D4800680500EFE7ED68EDE7002D32
S3150800442002D07FF00A0009E05A82E4B2002C04D1D7
S3150800443005480068D86004480360002030BC70470F
S315080044408161C26170470000C8E3002010B50120F1
S31508004450FEF705F80400002C06D0202200212000D3
S31508004460FEF754FFFF20E072200010BD2DE9F04F43
S3150800447085B004000D00606807003888FDF75AF813
S31508004480C0F3032000B2800081460FFA89F9D9F1FA
S31508004490000109B22000FDF762F9002802D120893F
S315080044A0042800D299E0606800788DF80C009DF821
S315080044B00C00082840F08D805FF0010A5FF070401C
S315080044C0FDF74BF8396910EA010B5FF06040FDF71C
S315080044D044F8834501D100208246290017F11000CF
S315080044E0FDF7E1FA002801D000208246BAF1000F54
S315080044F003D12000FDF781F976E0208908286CD3DE
S31508004500200000F079FE002803D02000FDF775F999
S315080045106AE022212000FDF722F9002827D0494623
S3150800452009B22000FDF71BF900285AD1002221897B
S315080045300220FDF718F88246BAF1000F51D0210083
S315080045405046FDF7C4F900284BD1DAF804000700F5
S315080045500FFA89F9D9F1000109B25046FDF7FFF8BB
S3150800456000283ED12000FDF748F9544606E07FF0C2
S3150800457021012000FDF7F3F8002832D16068060013
S31508004580F86880463869F860C7F8108000203070EF
S31508004590002070803889FCF7CDFF50F47F4080B248
S315080045A0FCF7C2FF388100207881494609B220000D
S315080045B0FDF7D5F800280CD10295012001900020BE
S315080045C00090FF23002217F10C012000FEF7CEFF12
S315080045D082462000FDF711F906E02000FDF70DF9E7
S315080045E002E02000FDF709F905B0BDE8F08F38B5FF
S315080045F004000D002A00D2B20321200000F00BF8B7
S3150800460031BD38B504000D002A00D2B20B212000B6
S3150800461000F001F831BD2DE9F04383B004000D0028
S315080046201600002224210120FCF79DFF0700002F19
S315080046302AD0606880467868814689F8005089F8EB
S3150800464001600020A9F804000020A9F806001C2231
S31508004650616878680830FEF753FE0020A9F8020062
S315080046607989484600F0BDFDA9F8020001200190AD
S3150800467000200090FF2318F10C0200213800FFF7F4
S3150800468017F83800FDF7B9F8BDE8F78338B5040020
S31508004690002C09D0250024686868FDF7AEF82900C3
S315080046A00620FDF7F0FEF3E731BD10B50020040043
S315080046B0E4B20A2C56DAE4B21420DFF8441A00FBF6
S315080046C00410C07B401CE4B21421DFF8342A01FB35
S315080046D00421C873E4B21420DFF8241A00FB04107E
S315080046E0807B022808D1E4B21420DFF8141A00FBF4
S315080046F00410C07BF02811DAE4B21420DFF8001A9F
S3150800470000FB0410807B01282AD1E4B21420DFF8CC
S31508004710F01900FB0410C07B022821DBE4B2142048
S31508004720DFF8DC1900FB04100068002810D0E4B29A
S315080047301420DFF8CC1900FB04100068FFF7A6FF69
S31508004740E4B21420DFF8B81900FB04100021016058
S31508004750E4B21420DFF8A81900FB041000218173C5
S31508004760641CA5E710BD2DE9F24F82B004000A20AB
S315080047708DF800000A250A265FF0000B00275FF077
S3150800478000085FF00A095FF0000A002C1CD0DFF869
S31508004790740900781421DFF8682901FB0020807B62
S315080047A0022811D12068DFF85C1909781422DFF88D
S315080047B0503902FB01314968884205D1DFF84409BE
S315080047C090F9000040B20AE1002083465FFA8BFBAD
S315080047D0BBF10A0F80F29C8076B20A2E0BD15FFAE3
S315080047E08BFB1420DFF8181900FB0B10807B0028C0
S315080047F001D15E4689E05FFA8BFB1420DFF80019C9
S3150800480000FB0B10807B01284BD1002C11D02068AF
S315080048105FFA8BFB1421DFF8E82801FB0B214968B6
S31508004820884206D1DFF8DC0880F800B0584640B266
S31508004830D5E05FFA8BFB1420DFF8C41800FB0B10D9
S315080048400068002816D05FFA8BFB1420DFF8B01832
S3150800485000FB0B10C07B5FFA8AFA504555D3D94640
S315080048605FFA8BFB1420DFF8981800FB0B10C07B4F
S3150800487082464AE05FFA8BFB1420DFF8841800FBB7
S315080048800B10C07BFFB2B8423FD38DF800B05FFA79
S315080048908BFB1420DFF8681800FB0B10C07B0700A1
S315080048A033E05FFA8BFB1420DFF8541800FB0B107B
S315080048B0807B022829D1002C11D020685FFA8BFB57
S315080048C01421DFF83C2801FB0B214968884206D1F0
S315080048D0DFF8300880F800B0584640B27FE05FFA4B
S315080048E08BFB1420DFF8181800FB0B10C07B5FFA4F
S315080048F088F8404509D35D465FFA8BFB1420DFF83C
S31508004900001800FB0B10C07B80461BF1010B5DE70E
S3150800491076B20A2E06D19DF8080010F00300012889
S3150800492004D106E09DF80800800702D55FF0FF3045
S3150800493055E076B20A2E01DAB34629E06DB20A2DA1
S3150800494001DAAB4624E09DF900000A2803DA9DF84F
S31508004950000083461CE04FFA89F9B9F10A0F14DA08
S31508004960CB465FFA8BFB1420DFF8941700FB0B107D
S315080049700068FFF78BFE5FFA8BFB1420DFF88017C1
S3150800498000FB0B100021016002E05FF0FF3026E01B
S315080049905FFA8BFB1420DFF8681700FB0B10002169
S315080049A08173002C0CD0002C01D1002000E0206877
S315080049B05FFA8BFB1421DFF8482701FB0B214860BF
S315080049C05FFA8BFB1420DFF8381700FB0B10002169
S315080049D0C173DFF8300780F800B0584640B2BDE82A
S315080049E0FE8F2DE9F84304000D0016001F00D5F8C8
S315080049F00480062081465FFA89F9B9F1000F13D0C1
S31508004A00B9F101095FFA89F95FFA89F919F8070016
S31508004A1009F808005FFA89F919EB08005FFA89F9BD
S31508004A2019F806108171E6E74FF40060FCF77CFD83
S31508004A30A8F80C0029002000A2699047BDE8F28377
S31508004A402DE9F84F04000D0016001F00002D15D0A3
S31508004A502868002812D021002800FDF724F800282D
S31508004A600CD15FF07040FCF778FD296810EA010A5E
S31508004A705FF06040FCF771FD824502D17FF00900C6
S31508004A8071E03900C9B22800FFF76DFE80464FFA7B
S31508004A9088F8B8F1000F02D5404640B263E04FFAF5
S31508004AA088F81420DFF8581600FB081002218173D5
S31508004AB04FFA88F81420DFF8481600FB081004613E
S31508004AC0062081465FFA89F9B9F1000F12D0B9F1CB
S31508004AD001095FFA89F94FFA88F81420DFF82016D9
S31508004AE000FB081019EB00005FFA89F919F806109F
S31508004AF00172E7E74FFA88F81420DFF8041600FB7E
S31508004B0008100021C1734FFA88F81420DFF8F01551
S31508004B1000FB08100068002824D04FFA88F81420F3
S31508004B20DFF8DC1500FB0810D0F800B04FFA88F85B
S31508004B301420DFF8CC1500FB0810DBF80010016024
S31508004B40DBF80400824659460620FDF79CFC330034
S31508004B5014F12B0251462000FFF743FF5046FCF79D
S31508004B604CFED0E70020BDE8F28FF8B504000D0032
S31508004B70002C13D06868060006F20E000700F868D5
S31508004B80A16808406168A2681140884206D10023DE
S31508004B90B21D17F10C012000FFF752FFF1BD2DE9F8
S31508004BA0FE4F04000D001600002C00F0C980708925
S31508004BB02A2803DA3000FCF720FEC1E07068804638
S31508004BC008F20E000700388800900120FCF7ACFCBC
S31508004BD0009981421BD1B888009040F20460FCF726
S31508004BE0A3FC0099814212D1788800904FF40060A6
S31508004BF0FCF79AFC0099814209D1B8F80C0000909C
S31508004C0040F60600FCF790FC0099814203D030007C
S31508004C10FCF7F3FD94E03900200000F0DFFB0422E6
S31508004C2017F10E0101A8FEF76BFB042217F1180114
S31508004C3002A8FEF765FB6068002802D100208246BC
S31508004C4008E002986168884202D15FF0010A01E033
S31508004C505FF0000A5FFA8AFABAF1000F07D001235B
S31508004C6017F1080201A92000FFF7EAFE06E0002373
S31508004C7017F1080201A92000FFF7E2FEF888FCF701
S31508004C8053FC012802D0022852D056E05FFA8AFA6D
S31508004C90BAF1000F4BD00220FCF746FCF880D7F893
S31508004CA00E00B8610422211D17F10E00FEF728FB3D
S31508004CB006208146606A002806D0606A00790028C6
S31508004CC002D0DFF844B401E017F1080B5FFA89F95E
S31508004CD0B9F1000F26D0B9F101095FFA89F919EB84
S31508004CE007005FFA89F919EB0701097A81745FFAF7
S31508004CF089F95FFA89F919F80B0009F808005FFACB
S31508004D0089F919EB07005FFA89F919F80510017294
S31508004D105FFA89F919EB08005FFA89F919F805109D
S31508004D208171D3E731002000A2699047FFE704E0CC
S31508004D3001A9200000F0B6FBFFE73000FCF75DFD97
S31508004D40BDE8F78F2DE9FC4104000D0016000E2181
S31508004D502800FCF704FD002802D07FF0010056E089
S31508004D600020070021003000FCF79DFE002803D034
S31508004D70DFF89403070043E05FF07040FCF7EDFBB3
S31508004D80316810EA01085FF06040FCF7E6FB8045F1
S31508004D901ED101208DF8000000208DF801005E204C
S31508004DA08DF802003068FCF7D8FB000C10F07F0085
S31508004DB08DF803003068FCF7D0FB000A8DF8040074
S31508004DC03068FCF7CAFB8DF8050000A8070017E055
S31508004DD03068A16808406168A2681140884209D015
S31508004DE0E068002803D014F10C00060002E07FF00A
S31508004DF003000CE02A003100200000F00AF806E063
S31508004E003B0014F12B0229002000FFF7EAFDBDE85C
S31508004E10F6812DE9F84F04000D00160004F22B0068
S31508004E2000905FF0FF3721002800FCF73CFE0028C1
S31508004E3011D15FF07040FCF790FB296810EA010970
S31508004E405FF06040FCF789FB814504D0002D02D055
S31508004E502868002802D17FF00900B6E00121280061
S31508004E60FFF781FC80464FFA88F8B8F1000F02D5A3
S31508004E70404640B2A9E04FFA88F81420A04900FB42
S31508004E800810807B002807D14FFA88F814209C491F
S31508004E9000FB0810012181734FFA88F814209849FD
S31508004EA000FB0810807B012801D0002E04D12900C0
S31508004EB0200000F00FF90700002E00F084804FFA5A
S31508004EC088F814208E4900FB0810807B02280ED132
S31508004ED04FFA88F814208A4900FB081010F10803D5
S31508004EE0009A31002000FFF77CFD07006BE04FFABF
S31508004EF088F81420824900FB0810807B012862D1BB
S31508004F005FF00009B246BAF1000F09D09AF80C0012
S31508004F10012802D00120814602E0DAF800A0F2E773
S31508004F20B9F1000F15D00022BAF808100320FCF7D3
S31508004F301AFB8246BAF1000F0FD031005046FCF733
S31508004F40C6FC002809D05046FCF757FC00208246CC
S31508004F5003E0B2465046FCF792FCBAF1000F32D095
S31508004F600620FDF77CFA8346BBF1000F28D0002007
S31508004F70CBF80000CBF804A04FFA88F81420604953
S31508004F8000FB0810006800280FD04FFA88F8142193
S31508004F905B4A01FB0821096808000168002901D05D
S31508004FA00068FAE7C0F800B007E04FFA88F814205E
S31508004FB0534900FB0810C0F800B00020070002E0C3
S31508004FC05046FCF71AFC380040B2BDE8F28F2DE9CE
S31508004FD0FE4F04000D9D002700222A210320FCF71E
S31508004FE0C2FA0600002E02D15FF0FF3070E070684A
S31508004FF0814609F20E008246BDF83C00FCF794FA99
S31508005000AAF8060006208046606A002806D0606A6C
S315080050100079002802D0DFF8F0B001E0DDF804B02E
S315080050205FFA88F8B8F1000F27D0B8F101085FFADF
S3150800503088F818EB0A005FFA88F8029918F8011040
S3150800504001725FFA88F818EB0A005FFA88F818F810
S31508005050051081745FFA88F85FFA88F818F80B006B
S3150800506008F809005FFA88F818EB09005FFA88F86B
S31508005070009918F801108171D2E70C980068CAF8EF
S315080050800E000E980068CAF818000120FCF74CFAC2
S31508005090AAF800004FF40060FCF746FAAAF80200E6
S315080050A040F20460FCF740FAAAF8040040F606004D
S315080050B0FCF73AFAA9F80C0031002000A2699047DB
S315080050C007003000FCF799FB00200600380040B2C4
S315080050D0BDE8FE8F30B585B004000D0001200390B1
S315080050E002950A480190201D009014F12B03064AE8
S315080050F014F12B012000FFF76AFF05B030BD000050
S3150800510004DF0020D6E3002030BB000838BB0008C7
S31508005110F8B504000D0060680600B089FCF704FACB
S315080051200700BFB23800B0F5006F04D040F606019C
S31508005130884216D01CE021002800FFF716FD7FF0F4
S315080051400D012000FCF70BFB002805D02000FCF71A
S3150800515054FB0020040003E029002000FEF708F9AC
S315080051600BE0220015F12B012800FFF718FD04E0DB
S315080051702000FCF742FB002004000020F2BD2DE9C8
S31508005180F04104000D00002006002700ADB2022DF4
S315080051900DDB3878000280467F1C387850EA08080C
S315080051A07F1C1FFA88F818EB0606AD1EEEE7ADB2AF
S315080051B0002D06D03878000280461FFA88F818EBCA
S315080051C00606B0B210EB1646300C0004002802D0D2
S315080051D0B0B210EB1646300080B2FCF7A5F9BDE870
S315080051E0F08138B504000D00290089B22000FFF7C8
S315080051F0C6FFC04380B232BDF8B5040000200700E0
S31508005200002006002500002D19D069896868FFF777
S31508005210B6FFC0190700B8B210EB17476889022114
S3150800522090FBF1F202FB1102002A06D0D6F1010624
S31508005230F8B2C7F3072151EA00272D68E3E7F6B26B
S31508005240002E04D0F8B2C7F3072151EA0027F84325
S3150800525080B2F2BD38B504000125EDB2002D0ED09E
S31508005260606A007A002803D0200000F046F809E0BA
S31508005270200000F02EF8606A6421017202E0200026
S3150800528000F03BF831BD70B504000D0094F82F000E
S3150800529094F8301050EA01204C490818FCF751F9E7
S315080052A0FCF75BF90600606A407A86194AF6FE1032
S315080052B060F31F464548864201D216F57E464448A5
S315080052C0864201D3B6F57E463000FCF73AF92860E7
S315080052D070BD1FB5040001200390606A02903D4826
S315080052E00190606A009014F12B033B4A14F12B01DC
S315080052F02000FFF76CFE04B010BD70B50400656AA7
S3150800530000262000FEF740FB002802D02000FEF70A
S3150800531030FB002060600020A0600020E060002DC7
S315080053200FD10A20FDF76BFF0500002D02D15FF0B3
S31508005330FF301FE00A2200212800FDF7E7FF65621B
S315080053400CE0002028710020E88000206871042203
S3150800535000212800FDF7DAFF002028722900200026
S31508005360FFF791FF687A401C6872200000F003F886
S31508005370300040B270BD10B4416A01220A710022A1
S315080053804A71426A002A02D0426A527A00E0002232
S3150800539090F8303090F82E40240454EA036390F8CD
S315080053A02D4053EA042390F82F402343D2180A23AA
S315080053B0B2FBF3F403FB1422CA804A7A0B2A02DBF7
S315080053C04FF41672CA8010BC704700000001FEA98F
S315080053D000FFFEA938BB000830BB000830B585B011
S315080053E004000D00606A002859D0606A0079002818
S315080053F055D094F82B008DF8000094F82C008DF801
S31508005400010094F82D008DF8020094F82E008DF80E
S31508005410030094F82F008DF8040094F830008DF8F6
S315080054200500042215F10E0102A8FDF769FF042202
S3150800543015F1180103A8FDF763FF606A00790128D2
S3150800544007D0606A0079022819D1606A4079002875
S3150800545015D10298616A096888420CD00398616A76
S31508005460096888421BD1062215F1080100A800F038
S3150800547097F9002813D02000FFF73FFF0FE00298A6
S31508005480616A096888420AD1062215F1080100A84E
S3150800549000F086F9002802D02000FFF7DBFE05B0F1
S315080054A030BD000038B504000D00002C0ED0206A6F
S315080054B000280BD0206A807C082807D12868216A32
S315080054C0896A884202D1200000F001F831BDF8B59A
S315080054D00400256A00260C21280000F045F8200063
S315080054E000F08AF8060076B2002E29D1012235216D
S315080054F0280000F041F80421280000F050F80422A2
